{
  "_format": "hh-sol-artifact-1",
  "contractName": "Staking",
  "sourceName": "contracts/Staking.sol",
  "abi": [
    {
      "inputs": [
        {
          "internalType": "contract ERC20",
          "name": "_token",
          "type": "address"
        },
        {
          "internalType": "string",
          "name": "_name",
          "type": "string"
        },
        {
          "internalType": "string",
          "name": "_symbol",
          "type": "string"
        },
        {
          "internalType": "uint256",
          "name": "_duration",
          "type": "uint256"
        },
        {
          "internalType": "uint256",
          "name": "_cliff",
          "type": "uint256"
        }
      ],
      "stateMutability": "nonpayable",
      "type": "constructor"
    },
    {
      "anonymous": false,
      "inputs": [
        {
          "indexed": true,
          "internalType": "address",
          "name": "previousOwner",
          "type": "address"
        },
        {
          "indexed": true,
          "internalType": "address",
          "name": "newOwner",
          "type": "address"
        }
      ],
      "name": "OwnershipTransferred",
      "type": "event"
    },
    {
      "anonymous": false,
      "inputs": [
        {
          "indexed": true,
          "internalType": "address",
          "name": "from",
          "type": "address"
        },
        {
          "indexed": true,
          "internalType": "address",
          "name": "to",
          "type": "address"
        },
        {
          "indexed": false,
          "internalType": "uint256",
          "name": "tokens",
          "type": "uint256"
        }
      ],
      "name": "Transfer",
      "type": "event"
    },
    {
      "inputs": [
        {
          "internalType": "address",
          "name": "",
          "type": "address"
        },
        {
          "internalType": "uint256",
          "name": "",
          "type": "uint256"
        }
      ],
      "name": "allStakes",
      "outputs": [
        {
          "internalType": "uint256",
          "name": "duration",
          "type": "uint256"
        },
        {
          "internalType": "uint256",
          "name": "cliff",
          "type": "uint256"
        },
        {
          "internalType": "uint256",
          "name": "initial",
          "type": "uint256"
        },
        {
          "internalType": "uint256",
          "name": "balance",
          "type": "uint256"
        },
        {
          "internalType": "uint256",
          "name": "timestamp",
          "type": "uint256"
        }
      ],
      "stateMutability": "view",
      "type": "function"
    },
    {
      "inputs": [
        {
          "internalType": "address",
          "name": "account",
          "type": "address"
        },
        {
          "internalType": "uint256",
          "name": "index",
          "type": "uint256"
        }
      ],
      "name": "available",
      "outputs": [
        {
          "internalType": "uint256",
          "name": "",
          "type": "uint256"
        }
      ],
      "stateMutability": "view",
      "type": "function"
    },
    {
      "inputs": [
        {
          "internalType": "address",
          "name": "account",
          "type": "address"
        }
      ],
      "name": "balanceOf",
      "outputs": [
        {
          "internalType": "uint256",
          "name": "total",
          "type": "uint256"
        }
      ],
      "stateMutability": "view",
      "type": "function"
    },
    {
      "inputs": [],
      "name": "cliff",
      "outputs": [
        {
          "internalType": "uint256",
          "name": "",
          "type": "uint256"
        }
      ],
      "stateMutability": "view",
      "type": "function"
    },
    {
      "inputs": [],
      "name": "decimals",
      "outputs": [
        {
          "internalType": "uint8",
          "name": "",
          "type": "uint8"
        }
      ],
      "stateMutability": "view",
      "type": "function"
    },
    {
      "inputs": [],
      "name": "duration",
      "outputs": [
        {
          "internalType": "uint256",
          "name": "",
          "type": "uint256"
        }
      ],
      "stateMutability": "view",
      "type": "function"
    },
    {
      "inputs": [
        {
          "internalType": "uint256",
          "name": "index",
          "type": "uint256"
        },
        {
          "internalType": "uint256",
          "name": "amount",
          "type": "uint256"
        }
      ],
      "name": "extend",
      "outputs": [],
      "stateMutability": "nonpayable",
      "type": "function"
    },
    {
      "inputs": [
        {
          "internalType": "uint256",
          "name": "index",
          "type": "uint256"
        },
        {
          "internalType": "address",
          "name": "account",
          "type": "address"
        },
        {
          "internalType": "uint256",
          "name": "amount",
          "type": "uint256"
        }
      ],
      "name": "extendFor",
      "outputs": [],
      "stateMutability": "nonpayable",
      "type": "function"
    },
    {
      "inputs": [
        {
          "internalType": "address",
          "name": "account",
          "type": "address"
        }
      ],
      "name": "getStakes",
      "outputs": [
        {
          "components": [
            {
              "internalType": "uint256",
              "name": "duration",
              "type": "uint256"
            },
            {
              "internalType": "uint256",
              "name": "cliff",
              "type": "uint256"
            },
            {
              "internalType": "uint256",
              "name": "initial",
              "type": "uint256"
            },
            {
              "internalType": "uint256",
              "name": "balance",
              "type": "uint256"
            },
            {
              "internalType": "uint256",
              "name": "timestamp",
              "type": "uint256"
            }
          ],
          "internalType": "struct Staking.Stake[]",
          "name": "stakes",
          "type": "tuple[]"
        }
      ],
      "stateMutability": "view",
      "type": "function"
    },
    {
      "inputs": [],
      "name": "name",
      "outputs": [
        {
          "internalType": "string",
          "name": "",
          "type": "string"
        }
      ],
      "stateMutability": "view",
      "type": "function"
    },
    {
      "inputs": [],
      "name": "owner",
      "outputs": [
        {
          "internalType": "address",
          "name": "",
          "type": "address"
        }
      ],
      "stateMutability": "view",
      "type": "function"
    },
    {
      "inputs": [],
      "name": "renounceOwnership",
      "outputs": [],
      "stateMutability": "nonpayable",
      "type": "function"
    },
    {
      "inputs": [
        {
          "internalType": "string",
          "name": "_name",
          "type": "string"
        },
        {
          "internalType": "string",
          "name": "_symbol",
          "type": "string"
        }
      ],
      "name": "setMetaData",
      "outputs": [],
      "stateMutability": "nonpayable",
      "type": "function"
    },
    {
      "inputs": [
        {
          "internalType": "uint256",
          "name": "_duration",
          "type": "uint256"
        },
        {
          "internalType": "uint256",
          "name": "_cliff",
          "type": "uint256"
        }
      ],
      "name": "setVesting",
      "outputs": [],
      "stateMutability": "nonpayable",
      "type": "function"
    },
    {
      "inputs": [
        {
          "internalType": "uint256",
          "name": "amount",
          "type": "uint256"
        }
      ],
      "name": "stake",
      "outputs": [],
      "stateMutability": "nonpayable",
      "type": "function"
    },
    {
      "inputs": [
        {
          "internalType": "address",
          "name": "account",
          "type": "address"
        },
        {
          "internalType": "uint256",
          "name": "amount",
          "type": "uint256"
        }
      ],
      "name": "stakeFor",
      "outputs": [],
      "stateMutability": "nonpayable",
      "type": "function"
    },
    {
      "inputs": [],
      "name": "symbol",
      "outputs": [
        {
          "internalType": "string",
          "name": "",
          "type": "string"
        }
      ],
      "stateMutability": "view",
      "type": "function"
    },
    {
      "inputs": [],
      "name": "token",
      "outputs": [
        {
          "internalType": "contract ERC20",
          "name": "",
          "type": "address"
        }
      ],
      "stateMutability": "view",
      "type": "function"
    },
    {
      "inputs": [],
      "name": "totalSupply",
      "outputs": [
        {
          "internalType": "uint256",
          "name": "",
          "type": "uint256"
        }
      ],
      "stateMutability": "view",
      "type": "function"
    },
    {
      "inputs": [
        {
          "internalType": "address",
          "name": "newOwner",
          "type": "address"
        }
      ],
      "name": "transferOwnership",
      "outputs": [],
      "stateMutability": "nonpayable",
      "type": "function"
    },
    {
      "inputs": [
        {
          "internalType": "uint256[]",
          "name": "amounts",
          "type": "uint256[]"
        }
      ],
      "name": "unstake",
      "outputs": [],
      "stateMutability": "nonpayable",
      "type": "function"
    },
    {
      "inputs": [
        {
          "internalType": "address",
          "name": "account",
          "type": "address"
        },
        {
          "internalType": "uint256",
          "name": "index",
          "type": "uint256"
        }
      ],
      "name": "vested",
      "outputs": [
        {
          "internalType": "uint256",
          "name": "",
          "type": "uint256"
        }
      ],
      "stateMutability": "view",
      "type": "function"
    }
  ],
  "bytecode": "0x60a06040523480156200001157600080fd5b50604051620030f9380380620030f98339818101604052810190620000379190620002c7565b6000620000496200016960201b60201c565b9050806000806101000a81548173ffffffffffffffffffffffffffffffffffffffff021916908373ffffffffffffffffffffffffffffffffffffffff1602179055508073ffffffffffffffffffffffffffffffffffffffff16600073ffffffffffffffffffffffffffffffffffffffff167f8be0079c531659141344cd1fd0a4f28419497f9722a3daafe3b4186f6b6457e060405160405180910390a3508473ffffffffffffffffffffffffffffffffffffffff1660808173ffffffffffffffffffffffffffffffffffffffff1660601b8152505083600490805190602001906200013692919062000171565b5082600590805190602001906200014f92919062000171565b5081600181905550806002819055505050505050620004a0565b600033905090565b828054600181600116156101000203166002900490600052602060002090601f016020900481019282620001a95760008555620001f5565b82601f10620001c457805160ff1916838001178555620001f5565b82800160010185558215620001f5579182015b82811115620001f4578251825591602001919060010190620001d7565b5b50905062000204919062000208565b5090565b5b808211156200022357600081600090555060010162000209565b5090565b60006200023e6200023884620003af565b6200037b565b9050828152602081018484840111156200025757600080fd5b6200026484828562000434565b509392505050565b6000815190506200027d816200046c565b92915050565b600082601f8301126200029557600080fd5b8151620002a784826020860162000227565b91505092915050565b600081519050620002c18162000486565b92915050565b600080600080600060a08688031215620002e057600080fd5b6000620002f0888289016200026c565b955050602086015167ffffffffffffffff8111156200030e57600080fd5b6200031c8882890162000283565b945050604086015167ffffffffffffffff8111156200033a57600080fd5b620003488882890162000283565b93505060606200035b88828901620002b0565b92505060806200036e88828901620002b0565b9150509295509295909350565b6000604051905081810181811067ffffffffffffffff82111715620003a557620003a46200046a565b5b8060405250919050565b600067ffffffffffffffff821115620003cd57620003cc6200046a565b5b601f19601f8301169050602081019050919050565b6000620003ef826200040a565b9050919050565b60006200040382620003e2565b9050919050565b600073ffffffffffffffffffffffffffffffffffffffff82169050919050565b6000819050919050565b60005b838110156200045457808201518184015260208101905062000437565b8381111562000464576000848401525b50505050565bfe5b6200047781620003f6565b81146200048357600080fd5b50565b62000491816200042a565b81146200049d57600080fd5b50565b60805160601c612c22620004d76000398061059a5280610758528061080b528061116f528061129d52806116905250612c226000f3fe608060405234801561001057600080fd5b50600436106101425760003560e01c80638667ab24116100b8578063c89258db1161007c578063c89258db14610357578063d552198d14610373578063e449f3411461038f578063f2fde38b146103ab578063f8724aba146103c7578063fc0c546a146103f757610142565b80638667ab24146102af5780638da5cb5b146102e357806395d89b4114610301578063a694fc3a1461031f578063bb2c41001461033b57610142565b80632ee409081161010a5780632ee40908146101ef578063313ce5671461020b57806361d2d3631461022957806370a0823114610245578063715018a6146102755780637ba6f4581461027f57610142565b806306fdde03146101475780630f059913146101655780630fb5a6b41461019557806313d033c0146101b357806318160ddd146101d1575b600080fd5b61014f610415565b60405161015c9190612814565b60405180910390f35b61017f600480360381019061017a9190612306565b6104b3565b60405161018c91906128b6565b60405180910390f35b61019d61058a565b6040516101aa91906128b6565b60405180910390f35b6101bb610590565b6040516101c891906128b6565b60405180910390f35b6101d9610596565b6040516101e691906128b6565b60405180910390f35b61020960048036038101906102049190612306565b610646565b005b610213610807565b6040516102209190612924565b60405180910390f35b610243600480360381019061023e91906124bd565b6108ac565b005b61025f600480360381019061025a91906122dd565b61096d565b60405161026c91906128b6565b60405180910390f35b61027d610a88565b005b610299600480360381019061029491906122dd565b610bf5565b6040516102a691906127d7565b60405180910390f35b6102c960048036038101906102c49190612306565b610d5a565b6040516102da9594939291906128d1565b60405180910390f35b6102eb610dad565b6040516102f89190612793565b60405180910390f35b610309610dd6565b6040516103169190612814565b60405180910390f35b6103396004803603810190610334919061241c565b610e74565b005b610355600480360381019061035091906123b0565b610e81565b005b610371600480360381019061036c91906124bd565b610f62565b005b61038d6004803603810190610388919061246e565b610f71565b005b6103a960048036038101906103a49190612342565b611224565b005b6103c560048036038101906103c091906122dd565b6113b6565b005b6103e160048036038101906103dc9190612306565b6115a8565b6040516103ee91906128b6565b60405180910390f35b6103ff61168e565b60405161040c91906127f9565b60405180910390f35b60048054600181600116156101000203166002900480601f0160208091040260200160405190810160405280929190818152602001828054600181600116156101000203166002900480156104ab5780601f10610480576101008083540402835291602001916104ab565b820191906000526020600020905b81548152906001019060200180831161048e57829003601f168201915b505050505081565b600080600360008573ffffffffffffffffffffffffffffffffffffffff1673ffffffffffffffffffffffffffffffffffffffff168152602001908152602001600020838154811061050057fe5b9060005260206000209060050201905060015461052a8260040154426116b290919063ffffffff16565b111561053d578060020154915050610584565b610580816000015461057261055f8460040154426116b290919063ffffffff16565b846002015461173590919063ffffffff16565b6117bb90919063ffffffff16565b9150505b92915050565b60015481565b60025481565b60007f000000000000000000000000000000000000000000000000000000000000000073ffffffffffffffffffffffffffffffffffffffff166370a08231306040518263ffffffff1660e01b81526004016105f19190612793565b60206040518083038186803b15801561060957600080fd5b505afa15801561061d573d6000803e3d6000fd5b505050506040513d601f19601f820116820180604052508101906106419190612445565b905090565b60008111610689576040517f08c379a000000000000000000000000000000000000000000000000000000000815260040161068090612896565b60405180910390fd5b600360008373ffffffffffffffffffffffffffffffffffffffff1673ffffffffffffffffffffffffffffffffffffffff1681526020019081526020016000206040518060a00160405280600154815260200160025481526020018381526020018381526020014281525090806001815401808255809150506001900390600052602060002090600502016000909190919091506000820151816000015560208201518160010155604082015181600201556060820151816003015560808201518160040155505061079d3330837f000000000000000000000000000000000000000000000000000000000000000073ffffffffffffffffffffffffffffffffffffffff16611844909392919063ffffffff16565b8173ffffffffffffffffffffffffffffffffffffffff16600073ffffffffffffffffffffffffffffffffffffffff167fddf252ad1be2c89b69c2b068fc378daa952ba7f163c4a11628f55a4df523b3ef836040516107fb91906128b6565b60405180910390a35050565b60007f000000000000000000000000000000000000000000000000000000000000000073ffffffffffffffffffffffffffffffffffffffff1663313ce5676040518163ffffffff1660e01b815260040160206040518083038186803b15801561086f57600080fd5b505afa158015610883573d6000803e3d6000fd5b505050506040513d601f19601f820116820180604052508101906108a791906124f9565b905090565b6108b4611905565b73ffffffffffffffffffffffffffffffffffffffff166108d2610dad565b73ffffffffffffffffffffffffffffffffffffffff161461095b576040517f08c379a00000000000000000000000000000000000000000000000000000000081526004018080602001828103825260208152602001807f4f776e61626c653a2063616c6c6572206973206e6f7420746865206f776e657281525060200191505060405180910390fd5b81600181905550806002819055505050565b600080600360008473ffffffffffffffffffffffffffffffffffffffff1673ffffffffffffffffffffffffffffffffffffffff168152602001908152602001600020805480602002602001604051908101604052809291908181526020016000905b82821015610a3357838290600052602060002090600502016040518060a001604052908160008201548152602001600182015481526020016002820154815260200160038201548152602001600482015481525050815260200190600101906109cf565b5050505090506000815190505b600081806001900392501115610a8157610a7a828281518110610a5f57fe5b6020026020010151606001518461190d90919063ffffffff16565b9250610a40565b5050919050565b610a90611905565b73ffffffffffffffffffffffffffffffffffffffff16610aae610dad565b73ffffffffffffffffffffffffffffffffffffffff1614610b37576040517f08c379a00000000000000000000000000000000000000000000000000000000081526004018080602001828103825260208152602001807f4f776e61626c653a2063616c6c6572206973206e6f7420746865206f776e657281525060200191505060405180910390fd5b600073ffffffffffffffffffffffffffffffffffffffff1660008054906101000a900473ffffffffffffffffffffffffffffffffffffffff1673ffffffffffffffffffffffffffffffffffffffff167f8be0079c531659141344cd1fd0a4f28419497f9722a3daafe3b4186f6b6457e060405160405180910390a360008060006101000a81548173ffffffffffffffffffffffffffffffffffffffff021916908373ffffffffffffffffffffffffffffffffffffffff160217905550565b60606000600360008473ffffffffffffffffffffffffffffffffffffffff1673ffffffffffffffffffffffffffffffffffffffff1681526020019081526020016000208054905090508067ffffffffffffffff81118015610c5557600080fd5b50604051908082528060200260200182016040528015610c8f57816020015b610c7c6120e8565b815260200190600190039081610c745790505b5091505b600081806001900392501115610d5457600360008473ffffffffffffffffffffffffffffffffffffffff1673ffffffffffffffffffffffffffffffffffffffff1681526020019081526020016000208181548110610ced57fe5b90600052602060002090600502016040518060a001604052908160008201548152602001600182015481526020016002820154815260200160038201548152602001600482015481525050828281518110610d4457fe5b6020026020010181905250610c93565b50919050565b60036020528160005260406000208181548110610d7657600080fd5b9060005260206000209060050201600091509150508060000154908060010154908060020154908060030154908060040154905085565b60008060009054906101000a900473ffffffffffffffffffffffffffffffffffffffff16905090565b60058054600181600116156101000203166002900480601f016020809104026020016040519081016040528092919081815260200182805460018160011615610100020316600290048015610e6c5780601f10610e4157610100808354040283529160200191610e6c565b820191906000526020600020905b815481529060010190602001808311610e4f57829003601f168201915b505050505081565b610e7e3382610646565b50565b610e89611905565b73ffffffffffffffffffffffffffffffffffffffff16610ea7610dad565b73ffffffffffffffffffffffffffffffffffffffff1614610f30576040517f08c379a00000000000000000000000000000000000000000000000000000000081526004018080602001828103825260208152602001807f4f776e61626c653a2063616c6c6572206973206e6f7420746865206f776e657281525060200191505060405180910390fd5b8160049080519060200190610f46929190612117565b508060059080519060200190610f5d929190612117565b505050565b610f6d823383610f71565b5050565b60008111610fb4576040517f08c379a0000000000000000000000000000000000000000000000000000000008152600401610fab90612896565b60405180910390fd5b6000600360008473ffffffffffffffffffffffffffffffffffffffff1673ffffffffffffffffffffffffffffffffffffffff168152602001908152602001600020848154811061100057fe5b90600052602060002090600502019050806002015461101f84866104b3565b14156110345761102f8383610646565b61121e565b600061104d83836002015461190d90919063ffffffff16565b9050600061106884846003015461190d90919063ffffffff16565b905060006110a78361109961108a8760040154426116b290919063ffffffff16565b8861173590919063ffffffff16565b6117bb90919063ffffffff16565b84600401540190506040518060a001604052806001548152602001600254815260200184815260200183815260200182815250600360008873ffffffffffffffffffffffffffffffffffffffff1673ffffffffffffffffffffffffffffffffffffffff168152602001908152602001600020888154811061112457fe5b906000526020600020906005020160008201518160000155602082015181600101556040820151816002015560608201518160030155608082015181600401559050506111b43330877f000000000000000000000000000000000000000000000000000000000000000073ffffffffffffffffffffffffffffffffffffffff16611844909392919063ffffffff16565b8573ffffffffffffffffffffffffffffffffffffffff16600073ffffffffffffffffffffffffffffffffffffffff167fddf252ad1be2c89b69c2b068fc378daa952ba7f163c4a11628f55a4df523b3ef8760405161121291906128b6565b60405180910390a35050505b50505050565b6000808383905090505b60008180600190039250111561129257600084848381811061124c57fe5b90506020020135111561128d576112758185858481811061126957fe5b90506020020135611995565b83838281811061128157fe5b90506020020135820191505b61122e565b60008211156113b0577f000000000000000000000000000000000000000000000000000000000000000073ffffffffffffffffffffffffffffffffffffffff1663a9059cbb33846040518363ffffffff1660e01b81526004016112f69291906127ae565b602060405180830381600087803b15801561131057600080fd5b505af1158015611324573d6000803e3d6000fd5b505050506040513d601f19601f820116820180604052508101906113489190612387565b50600073ffffffffffffffffffffffffffffffffffffffff163373ffffffffffffffffffffffffffffffffffffffff167fddf252ad1be2c89b69c2b068fc378daa952ba7f163c4a11628f55a4df523b3ef846040516113a791906128b6565b60405180910390a35b50505050565b6113be611905565b73ffffffffffffffffffffffffffffffffffffffff166113dc610dad565b73ffffffffffffffffffffffffffffffffffffffff1614611465576040517f08c379a00000000000000000000000000000000000000000000000000000000081526004018080602001828103825260208152602001807f4f776e61626c653a2063616c6c6572206973206e6f7420746865206f776e657281525060200191505060405180910390fd5b600073ffffffffffffffffffffffffffffffffffffffff168173ffffffffffffffffffffffffffffffffffffffff1614156114eb576040517f08c379a0000000000000000000000000000000000000000000000000000000008152600401808060200182810382526026815260200180612b566026913960400191505060405180910390fd5b8073ffffffffffffffffffffffffffffffffffffffff1660008054906101000a900473ffffffffffffffffffffffffffffffffffffffff1673ffffffffffffffffffffffffffffffffffffffff167f8be0079c531659141344cd1fd0a4f28419497f9722a3daafe3b4186f6b6457e060405160405180910390a3806000806101000a81548173ffffffffffffffffffffffffffffffffffffffff021916908373ffffffffffffffffffffffffffffffffffffffff16021790555050565b600080600360008573ffffffffffffffffffffffffffffffffffffffff1673ffffffffffffffffffffffffffffffffffffffff16815260200190815260200160002083815481106115f557fe5b90600052602060002090600502016040518060a0016040529081600082015481526020016001820154815260200160028201548152602001600382015481526020016004820154815250509050806020015161165e8260800151426116b290919063ffffffff16565b101561166e576000915050611688565b806060015181604001510361168385856104b3565b039150505b92915050565b7f000000000000000000000000000000000000000000000000000000000000000081565b60008282111561172a576040517f08c379a000000000000000000000000000000000000000000000000000000000815260040180806020018281038252601e8152602001807f536166654d6174683a207375627472616374696f6e206f766572666c6f77000081525060200191505060405180910390fd5b818303905092915050565b60008083141561174857600090506117b5565b600082840290508284828161175957fe5b04146117b0576040517f08c379a0000000000000000000000000000000000000000000000000000000008152600401808060200182810382526021815260200180612ba26021913960400191505060405180910390fd5b809150505b92915050565b6000808211611832576040517f08c379a000000000000000000000000000000000000000000000000000000000815260040180806020018281038252601a8152602001807f536166654d6174683a206469766973696f6e206279207a65726f00000000000081525060200191505060405180910390fd5b81838161183b57fe5b04905092915050565b6118ff846323b872dd60e01b858585604051602401808473ffffffffffffffffffffffffffffffffffffffff1681526020018373ffffffffffffffffffffffffffffffffffffffff1681526020018281526020019350505050604051602081830303815290604052907bffffffffffffffffffffffffffffffffffffffffffffffffffffffff19166020820180517bffffffffffffffffffffffffffffffffffffffffffffffffffffffff8381831617835250505050611d5a565b50505050565b600033905090565b60008082840190508381101561198b576040517f08c379a000000000000000000000000000000000000000000000000000000000815260040180806020018281038252601b8152602001807f536166654d6174683a206164646974696f6e206f766572666c6f77000000000081525060200191505060405180910390fd5b8091505092915050565b600360003373ffffffffffffffffffffffffffffffffffffffff1673ffffffffffffffffffffffffffffffffffffffff168152602001908152602001600020805490508210611a19576040517f08c379a0000000000000000000000000000000000000000000000000000000008152600401611a1090612836565b60405180910390fd5b6000600360003373ffffffffffffffffffffffffffffffffffffffff1673ffffffffffffffffffffffffffffffffffffffff1681526020019081526020016000208381548110611a6557fe5b906000526020600020906005020190508060010154611a918260040154426116b290919063ffffffff16565b1015611ad2576040517f08c379a0000000000000000000000000000000000000000000000000000000008152600401611ac990612856565b60405180910390fd5b611adc33846115a8565b821115611b1e576040517f08c379a0000000000000000000000000000000000000000000000000000000008152600401611b1590612876565b60405180910390fd5b611b358282600301546116b290919063ffffffff16565b8160030181905550600081600301541415611d55576000600360003373ffffffffffffffffffffffffffffffffffffffff1673ffffffffffffffffffffffffffffffffffffffff168152602001908152602001600020805480602002602001604051908101604052809291908181526020016000905b82821015611c0f57838290600052602060002090600502016040518060a00160405290816000820154815260200160018201548152602001600282015481526020016003820154815260200160048201548152505081526020019060010190611bab565b50505050905080611c2b600183516116b290919063ffffffff16565b81518110611c3557fe5b6020026020010151600360003373ffffffffffffffffffffffffffffffffffffffff1673ffffffffffffffffffffffffffffffffffffffff1681526020019081526020016000208581548110611c8757fe5b90600052602060002090600502016000820151816000015560208201518160010155604082015181600201556060820151816003015560808201518160040155905050600360003373ffffffffffffffffffffffffffffffffffffffff1673ffffffffffffffffffffffffffffffffffffffff168152602001908152602001600020805480611d1257fe5b6001900381819060005260206000209060050201600080820160009055600182016000905560028201600090556003820160009055600482016000905550509055505b505050565b6000611dbc826040518060400160405280602081526020017f5361666545524332303a206c6f772d6c6576656c2063616c6c206661696c65648152508573ffffffffffffffffffffffffffffffffffffffff16611e499092919063ffffffff16565b9050600081511115611e4457808060200190516020811015611ddd57600080fd5b8101908080519060200190929190505050611e43576040517f08c379a000000000000000000000000000000000000000000000000000000000815260040180806020018281038252602a815260200180612bc3602a913960400191505060405180910390fd5b5b505050565b6060611e588484600085611e61565b90509392505050565b606082471015611ebc576040517f08c379a0000000000000000000000000000000000000000000000000000000008152600401808060200182810382526026815260200180612b7c6026913960400191505060405180910390fd5b611ec585612009565b611f37576040517f08c379a000000000000000000000000000000000000000000000000000000000815260040180806020018281038252601d8152602001807f416464726573733a2063616c6c20746f206e6f6e2d636f6e747261637400000081525060200191505060405180910390fd5b6000808673ffffffffffffffffffffffffffffffffffffffff1685876040518082805190602001908083835b60208310611f865780518252602082019150602081019050602083039250611f63565b6001836020036101000a03801982511681845116808217855250505050505090500191505060006040518083038185875af1925050503d8060008114611fe8576040519150601f19603f3d011682016040523d82523d6000602084013e611fed565b606091505b5091509150611ffd82828661201c565b92505050949350505050565b600080823b905060008111915050919050565b6060831561202c578290506120e1565b60008351111561203f5782518084602001fd5b816040517f08c379a00000000000000000000000000000000000000000000000000000000081526004018080602001828103825283818151815260200191508051906020019080838360005b838110156120a657808201518184015260208101905061208b565b50505050905090810190601f1680156120d35780820380516001836020036101000a031916815260200191505b509250505060405180910390fd5b9392505050565b6040518060a0016040528060008152602001600081526020016000815260200160008152602001600081525090565b828054600181600116156101000203166002900490600052602060002090601f01602090048101928261214d5760008555612194565b82601f1061216657805160ff1916838001178555612194565b82800160010185558215612194579182015b82811115612193578251825591602001919060010190612178565b5b5090506121a191906121a5565b5090565b5b808211156121be5760008160009055506001016121a6565b5090565b60006121d56121d084612970565b61293f565b9050828152602081018484840111156121ed57600080fd5b6121f8848285612aa4565b509392505050565b60008135905061220f81612af9565b92915050565b60008083601f84011261222757600080fd5b8235905067ffffffffffffffff81111561224057600080fd5b60208301915083602082028301111561225857600080fd5b9250929050565b60008151905061226e81612b10565b92915050565b600082601f83011261228557600080fd5b81356122958482602086016121c2565b91505092915050565b6000813590506122ad81612b27565b92915050565b6000815190506122c281612b27565b92915050565b6000815190506122d781612b3e565b92915050565b6000602082840312156122ef57600080fd5b60006122fd84828501612200565b91505092915050565b6000806040838503121561231957600080fd5b600061232785828601612200565b92505060206123388582860161229e565b9150509250929050565b6000806020838503121561235557600080fd5b600083013567ffffffffffffffff81111561236f57600080fd5b61237b85828601612215565b92509250509250929050565b60006020828403121561239957600080fd5b60006123a78482850161225f565b91505092915050565b600080604083850312156123c357600080fd5b600083013567ffffffffffffffff8111156123dd57600080fd5b6123e985828601612274565b925050602083013567ffffffffffffffff81111561240657600080fd5b61241285828601612274565b9150509250929050565b60006020828403121561242e57600080fd5b600061243c8482850161229e565b91505092915050565b60006020828403121561245757600080fd5b6000612465848285016122b3565b91505092915050565b60008060006060848603121561248357600080fd5b60006124918682870161229e565b93505060206124a286828701612200565b92505060406124b38682870161229e565b9150509250925092565b600080604083850312156124d057600080fd5b60006124de8582860161229e565b92505060206124ef8582860161229e565b9150509250929050565b60006020828403121561250b57600080fd5b6000612519848285016122c8565b91505092915050565b600061252e83836126fe565b60a08301905092915050565b61254381612a4a565b82525050565b612552816129f5565b82525050565b6000612563826129b0565b61256d81856129d3565b9350612578836129a0565b8060005b838110156125a95781516125908882612522565b975061259b836129c6565b92505060018101905061257c565b5085935050505092915050565b6125bf81612a5c565b82525050565b60006125d0826129bb565b6125da81856129e4565b93506125ea818560208601612ab3565b6125f381612ae8565b840191505092915050565b600061260b6012836129e4565b91507f494e4445585f4f55545f4f465f52414e474500000000000000000000000000006000830152602082019050919050565b600061264b6011836129e4565b91507f434c4946465f4e4f545f524541434845440000000000000000000000000000006000830152602082019050919050565b600061268b6018836129e4565b91507f414d4f554e545f455843454544535f415641494c41424c4500000000000000006000830152602082019050919050565b60006126cb600e836129e4565b91507f414d4f554e545f494e56414c49440000000000000000000000000000000000006000830152602082019050919050565b60a0820160008201516127146000850182612766565b5060208201516127276020850182612766565b50604082015161273a6040850182612766565b50606082015161274d6060850182612766565b5060808201516127606080850182612766565b50505050565b61276f81612a33565b82525050565b61277e81612a33565b82525050565b61278d81612a3d565b82525050565b60006020820190506127a86000830184612549565b92915050565b60006040820190506127c3600083018561253a565b6127d06020830184612775565b9392505050565b600060208201905081810360008301526127f18184612558565b905092915050565b600060208201905061280e60008301846125b6565b92915050565b6000602082019050818103600083015261282e81846125c5565b905092915050565b6000602082019050818103600083015261284f816125fe565b9050919050565b6000602082019050818103600083015261286f8161263e565b9050919050565b6000602082019050818103600083015261288f8161267e565b9050919050565b600060208201905081810360008301526128af816126be565b9050919050565b60006020820190506128cb6000830184612775565b92915050565b600060a0820190506128e66000830188612775565b6128f36020830187612775565b6129006040830186612775565b61290d6060830185612775565b61291a6080830184612775565b9695505050505050565b60006020820190506129396000830184612784565b92915050565b6000604051905081810181811067ffffffffffffffff8211171561296657612965612ae6565b5b8060405250919050565b600067ffffffffffffffff82111561298b5761298a612ae6565b5b601f19601f8301169050602081019050919050565b6000819050602082019050919050565b600081519050919050565b600081519050919050565b6000602082019050919050565b600082825260208201905092915050565b600082825260208201905092915050565b6000612a0082612a13565b9050919050565b60008115159050919050565b600073ffffffffffffffffffffffffffffffffffffffff82169050919050565b6000819050919050565b600060ff82169050919050565b6000612a5582612a80565b9050919050565b6000612a6782612a6e565b9050919050565b6000612a7982612a13565b9050919050565b6000612a8b82612a92565b9050919050565b6000612a9d82612a13565b9050919050565b82818337600083830152505050565b60005b83811015612ad1578082015181840152602081019050612ab6565b83811115612ae0576000848401525b50505050565bfe5b6000601f19601f8301169050919050565b612b02816129f5565b8114612b0d57600080fd5b50565b612b1981612a07565b8114612b2457600080fd5b50565b612b3081612a33565b8114612b3b57600080fd5b50565b612b4781612a3d565b8114612b5257600080fd5b5056fe4f776e61626c653a206e6577206f776e657220697320746865207a65726f2061646472657373416464726573733a20696e73756666696369656e742062616c616e636520666f722063616c6c536166654d6174683a206d756c7469706c69636174696f6e206f766572666c6f775361666545524332303a204552433230206f7065726174696f6e20646964206e6f742073756363656564a2646970667358221220baf942b73dccf9d233f7923416f85a46ac0d8f441750ec0531a1a48fa5e1495c64736f6c63430007060033",
  "linkReferences": {},
  "deployedLinkReferences": {}
}