{
  "_format": "hh-sol-artifact-1",
  "contractName": "FeeReceiver",
  "sourceName": "contracts/FeeReceiver.sol",
  "abi": [
    {
      "inputs": [
        {
          "internalType": "address",
          "name": "_swapToToken",
          "type": "address"
        },
        {
          "internalType": "address",
          "name": "_uniRouter",
          "type": "address"
        },
        {
          "internalType": "uint256",
          "name": "_triggerFee",
          "type": "uint256"
        },
        {
          "internalType": "address[]",
          "name": "_payees",
          "type": "address[]"
        },
        {
          "internalType": "uint256[]",
          "name": "_shares",
          "type": "uint256[]"
        }
      ],
      "stateMutability": "nonpayable",
      "type": "constructor"
    },
    {
      "anonymous": false,
      "inputs": [
        {
          "indexed": false,
          "internalType": "address",
          "name": "triggerAccount",
          "type": "address"
        },
        {
          "indexed": false,
          "internalType": "contract IERC20",
          "name": "swapFromToken",
          "type": "address"
        },
        {
          "indexed": false,
          "internalType": "contract IERC20",
          "name": "swapToToken",
          "type": "address"
        },
        {
          "indexed": false,
          "internalType": "uint256",
          "name": "amountTokenFrom",
          "type": "uint256"
        },
        {
          "indexed": false,
          "internalType": "uint256",
          "name": "amountTokenTo",
          "type": "uint256"
        },
        {
          "indexed": false,
          "internalType": "address[]",
          "name": "recievedAddresses",
          "type": "address[]"
        }
      ],
      "name": "ConvertAndTransfer",
      "type": "event"
    },
    {
      "anonymous": false,
      "inputs": [
        {
          "indexed": true,
          "internalType": "address",
          "name": "previousOwner",
          "type": "address"
        },
        {
          "indexed": true,
          "internalType": "address",
          "name": "newOwner",
          "type": "address"
        }
      ],
      "name": "OwnershipTransferred",
      "type": "event"
    },
    {
      "anonymous": false,
      "inputs": [
        {
          "indexed": false,
          "internalType": "address",
          "name": "account",
          "type": "address"
        },
        {
          "indexed": false,
          "internalType": "uint256",
          "name": "shares",
          "type": "uint256"
        }
      ],
      "name": "PayeeAdded",
      "type": "event"
    },
    {
      "anonymous": false,
      "inputs": [
        {
          "indexed": false,
          "internalType": "address",
          "name": "account",
          "type": "address"
        }
      ],
      "name": "PayeeRemoved",
      "type": "event"
    },
    {
      "anonymous": false,
      "inputs": [
        {
          "indexed": false,
          "internalType": "address",
          "name": "from",
          "type": "address"
        },
        {
          "indexed": false,
          "internalType": "uint256",
          "name": "amount",
          "type": "uint256"
        }
      ],
      "name": "PaymentReceived",
      "type": "event"
    },
    {
      "anonymous": false,
      "inputs": [
        {
          "indexed": false,
          "internalType": "address",
          "name": "to",
          "type": "address"
        },
        {
          "indexed": false,
          "internalType": "uint256",
          "name": "amount",
          "type": "uint256"
        }
      ],
      "name": "PaymentReleased",
      "type": "event"
    },
    {
      "inputs": [
        {
          "internalType": "address",
          "name": "_account",
          "type": "address"
        },
        {
          "internalType": "uint256",
          "name": "_shares",
          "type": "uint256"
        }
      ],
      "name": "addPayee",
      "outputs": [],
      "stateMutability": "nonpayable",
      "type": "function"
    },
    {
      "inputs": [
        {
          "internalType": "address",
          "name": "_swapFromToken",
          "type": "address"
        },
        {
          "internalType": "uint256",
          "name": "_amountOutMin",
          "type": "uint256"
        },
        {
          "internalType": "address[]",
          "name": "_path",
          "type": "address[]"
        }
      ],
      "name": "convertAndTransfer",
      "outputs": [],
      "stateMutability": "nonpayable",
      "type": "function"
    },
    {
      "inputs": [],
      "name": "owner",
      "outputs": [
        {
          "internalType": "address",
          "name": "",
          "type": "address"
        }
      ],
      "stateMutability": "view",
      "type": "function"
    },
    {
      "inputs": [
        {
          "internalType": "uint256",
          "name": "index",
          "type": "uint256"
        }
      ],
      "name": "payee",
      "outputs": [
        {
          "internalType": "address",
          "name": "",
          "type": "address"
        }
      ],
      "stateMutability": "view",
      "type": "function"
    },
    {
      "inputs": [
        {
          "internalType": "address",
          "name": "_account",
          "type": "address"
        },
        {
          "internalType": "uint256",
          "name": "_index",
          "type": "uint256"
        }
      ],
      "name": "removePayee",
      "outputs": [],
      "stateMutability": "nonpayable",
      "type": "function"
    },
    {
      "inputs": [],
      "name": "renounceOwnership",
      "outputs": [],
      "stateMutability": "nonpayable",
      "type": "function"
    },
    {
      "inputs": [
        {
          "internalType": "bool",
          "name": "_switch",
          "type": "bool"
        }
      ],
      "name": "setStakeActive",
      "outputs": [],
      "stateMutability": "nonpayable",
      "type": "function"
    },
    {
      "inputs": [
        {
          "internalType": "address",
          "name": "_stakeAddress",
          "type": "address"
        }
      ],
      "name": "setStakeAddress",
      "outputs": [],
      "stateMutability": "nonpayable",
      "type": "function"
    },
    {
      "inputs": [
        {
          "internalType": "uint256",
          "name": "_stakeThreshold",
          "type": "uint256"
        }
      ],
      "name": "setStakeThreshold",
      "outputs": [],
      "stateMutability": "nonpayable",
      "type": "function"
    },
    {
      "inputs": [
        {
          "internalType": "address",
          "name": "_swapToToken",
          "type": "address"
        }
      ],
      "name": "setSwapToToken",
      "outputs": [],
      "stateMutability": "nonpayable",
      "type": "function"
    },
    {
      "inputs": [
        {
          "internalType": "uint256",
          "name": "_triggerFee",
          "type": "uint256"
        }
      ],
      "name": "setTriggerFee",
      "outputs": [],
      "stateMutability": "nonpayable",
      "type": "function"
    },
    {
      "inputs": [
        {
          "internalType": "address",
          "name": "account",
          "type": "address"
        }
      ],
      "name": "shares",
      "outputs": [
        {
          "internalType": "uint256",
          "name": "",
          "type": "uint256"
        }
      ],
      "stateMutability": "view",
      "type": "function"
    },
    {
      "inputs": [],
      "name": "stakeActive",
      "outputs": [
        {
          "internalType": "bool",
          "name": "",
          "type": "bool"
        }
      ],
      "stateMutability": "view",
      "type": "function"
    },
    {
      "inputs": [],
      "name": "stakeAddress",
      "outputs": [
        {
          "internalType": "address",
          "name": "",
          "type": "address"
        }
      ],
      "stateMutability": "view",
      "type": "function"
    },
    {
      "inputs": [],
      "name": "stakeThreshold",
      "outputs": [
        {
          "internalType": "uint256",
          "name": "",
          "type": "uint256"
        }
      ],
      "stateMutability": "view",
      "type": "function"
    },
    {
      "inputs": [],
      "name": "swapToToken",
      "outputs": [
        {
          "internalType": "address",
          "name": "",
          "type": "address"
        }
      ],
      "stateMutability": "view",
      "type": "function"
    },
    {
      "inputs": [],
      "name": "totalShares",
      "outputs": [
        {
          "internalType": "uint256",
          "name": "",
          "type": "uint256"
        }
      ],
      "stateMutability": "view",
      "type": "function"
    },
    {
      "inputs": [
        {
          "internalType": "address",
          "name": "newOwner",
          "type": "address"
        }
      ],
      "name": "transferOwnership",
      "outputs": [],
      "stateMutability": "nonpayable",
      "type": "function"
    },
    {
      "inputs": [],
      "name": "triggerFee",
      "outputs": [
        {
          "internalType": "uint256",
          "name": "",
          "type": "uint256"
        }
      ],
      "stateMutability": "view",
      "type": "function"
    },
    {
      "inputs": [],
      "name": "uniRouter",
      "outputs": [
        {
          "internalType": "address",
          "name": "",
          "type": "address"
        }
      ],
      "stateMutability": "view",
      "type": "function"
    }
  ],
  "bytecode": "0x60a06040523480156200001157600080fd5b5060405162003620380380620036208339818101604052810190620000379190620006a3565b8181620000596200004d6200022b60201b60201c565b6200023360201b60201c565b8051825114620000a0576040517f08c379a0000000000000000000000000000000000000000000000000000000008152600401620000979062000984565b60405180910390fd5b6000825111620000e7576040517f08c379a0000000000000000000000000000000000000000000000000000000008152600401620000de90620009c8565b60405180910390fd5b60005b82518110156200019e576200018883828151811062000132577f4e487b7100000000000000000000000000000000000000000000000000000000600052603260045260246000fd5b602002602001015183838151811062000174577f4e487b7100000000000000000000000000000000000000000000000000000000600052603260045260246000fd5b6020026020010151620002f760201b60201c565b8080620001959062000b4a565b915050620000ea565b50505084600460006101000a81548173ffffffffffffffffffffffffffffffffffffffff021916908373ffffffffffffffffffffffffffffffffffffffff1602179055508373ffffffffffffffffffffffffffffffffffffffff1660808173ffffffffffffffffffffffffffffffffffffffff1660601b8152505082600781905550505050505062000c2a565b600033905090565b60008060009054906101000a900473ffffffffffffffffffffffffffffffffffffffff169050816000806101000a81548173ffffffffffffffffffffffffffffffffffffffff021916908373ffffffffffffffffffffffffffffffffffffffff1602179055508173ffffffffffffffffffffffffffffffffffffffff168173ffffffffffffffffffffffffffffffffffffffff167f8be0079c531659141344cd1fd0a4f28419497f9722a3daafe3b4186f6b6457e060405160405180910390a35050565b600073ffffffffffffffffffffffffffffffffffffffff168273ffffffffffffffffffffffffffffffffffffffff1614156200036a576040517f08c379a0000000000000000000000000000000000000000000000000000000008152600401620003619062000962565b60405180910390fd5b60008111620003b0576040517f08c379a0000000000000000000000000000000000000000000000000000000008152600401620003a790620009ea565b60405180910390fd5b6000600260008473ffffffffffffffffffffffffffffffffffffffff1673ffffffffffffffffffffffffffffffffffffffff168152602001908152602001600020541462000435576040517f08c379a00000000000000000000000000000000000000000000000000000000081526004016200042c90620009a6565b60405180910390fd5b6003829080600181540180825580915050600190039060005260206000200160009091909190916101000a81548173ffffffffffffffffffffffffffffffffffffffff021916908373ffffffffffffffffffffffffffffffffffffffff16021790555080600260008473ffffffffffffffffffffffffffffffffffffffff1673ffffffffffffffffffffffffffffffffffffffff1681526020019081526020016000208190555080600154620004ec919062000aaf565b6001819055507f40c340f65e17194d14ddddb073d3c9f888e3cb52b5aae0c6c7706b4fbc905fac82826040516200052592919062000935565b60405180910390a15050565b600062000548620005428462000a40565b62000a0c565b905080838252602082019050828560208602820111156200056857600080fd5b60005b858110156200059c57816200058188826200061b565b8452602084019350602083019250506001810190506200056b565b5050509392505050565b6000620005bd620005b78462000a6f565b62000a0c565b90508083825260208201905082856020860282011115620005dd57600080fd5b60005b85811015620006115781620005f688826200068c565b845260208401935060208301925050600181019050620005e0565b5050509392505050565b6000815190506200062c8162000bf6565b92915050565b600082601f8301126200064457600080fd5b81516200065684826020860162000531565b91505092915050565b600082601f8301126200067157600080fd5b815162000683848260208601620005a6565b91505092915050565b6000815190506200069d8162000c10565b92915050565b600080600080600060a08688031215620006bc57600080fd5b6000620006cc888289016200061b565b9550506020620006df888289016200061b565b9450506040620006f2888289016200068c565b935050606086015167ffffffffffffffff8111156200071057600080fd5b6200071e8882890162000632565b925050608086015167ffffffffffffffff8111156200073c57600080fd5b6200074a888289016200065f565b9150509295509295909350565b620007628162000b0c565b82525050565b600062000777602c8362000a9e565b91507f5061796d656e7453706c69747465723a206163636f756e74206973207468652060008301527f7a65726f206164647265737300000000000000000000000000000000000000006020830152604082019050919050565b6000620007df60328362000a9e565b91507f5061796d656e7453706c69747465723a2070617965657320616e64207368617260008301527f6573206c656e677468206d69736d6174636800000000000000000000000000006020830152604082019050919050565b600062000847602b8362000a9e565b91507f5061796d656e7453706c69747465723a206163636f756e7420616c726561647960008301527f20686173207368617265730000000000000000000000000000000000000000006020830152604082019050919050565b6000620008af601a8362000a9e565b91507f5061796d656e7453706c69747465723a206e6f207061796565730000000000006000830152602082019050919050565b6000620008f1601d8362000a9e565b91507f5061796d656e7453706c69747465723a207368617265732061726520300000006000830152602082019050919050565b6200092f8162000b40565b82525050565b60006040820190506200094c600083018562000757565b6200095b602083018462000924565b9392505050565b600060208201905081810360008301526200097d8162000768565b9050919050565b600060208201905081810360008301526200099f81620007d0565b9050919050565b60006020820190508181036000830152620009c18162000838565b9050919050565b60006020820190508181036000830152620009e381620008a0565b9050919050565b6000602082019050818103600083015262000a0581620008e2565b9050919050565b6000604051905081810181811067ffffffffffffffff8211171562000a365762000a3562000bc7565b5b8060405250919050565b600067ffffffffffffffff82111562000a5e5762000a5d62000bc7565b5b602082029050602081019050919050565b600067ffffffffffffffff82111562000a8d5762000a8c62000bc7565b5b602082029050602081019050919050565b600082825260208201905092915050565b600062000abc8262000b40565b915062000ac98362000b40565b9250827fffffffffffffffffffffffffffffffffffffffffffffffffffffffffffffffff0382111562000b015762000b0062000b98565b5b828201905092915050565b600062000b198262000b20565b9050919050565b600073ffffffffffffffffffffffffffffffffffffffff82169050919050565b6000819050919050565b600062000b578262000b40565b91507fffffffffffffffffffffffffffffffffffffffffffffffffffffffffffffffff82141562000b8d5762000b8c62000b98565b5b600182019050919050565b7f4e487b7100000000000000000000000000000000000000000000000000000000600052601160045260246000fd5b7f4e487b7100000000000000000000000000000000000000000000000000000000600052604160045260246000fd5b62000c018162000b0c565b811462000c0d57600080fd5b50565b62000c1b8162000b40565b811462000c2757600080fd5b50565b60805160601c6129c962000c576000396000818161090101528181610d5801526118b101526129c96000f3fe608060405234801561001057600080fd5b506004361061012c5760003560e01c80638da5cb5b116100ad578063ce7c2ac211610071578063ce7c2ac2146102e3578063f11f77f914610313578063f2fde38b14610331578063f68371571461034d578063fd7128481461036b5761012c565b80638da5cb5b1461025157806390b2dd571461026f578063a0e47bf61461028d578063b21285ce146102ab578063b6a9a334146102c75761012c565b806373b411cb116100f457806373b411cb146101ad57806376aa3fef146101cb57806384e45c3d146101e757806385107367146102035780638b83209b146102215761012c565b806318f9b0231461013157806323471d181461014d5780633a98ef39146101695780635ff162ca14610187578063715018a6146101a3575b600080fd5b61014b60048036038101906101469190611c1c565b610387565b005b61016760048036038101906101629190611bf3565b610411565b005b610171610541565b60405161017e91906125d8565b60405180910390f35b6101a1600480360381019061019c9190611cc4565b61054b565b005b6101ab6105e4565b005b6101b561066c565b6040516101c29190612331565b60405180910390f35b6101e560048036038101906101e09190611d16565b610692565b005b61020160048036038101906101fc9190611c1c565b61075c565b005b61020b6107e6565b6040516102189190612331565b60405180910390f35b61023b60048036038101906102369190611d16565b61080c565b6040516102489190612331565b60405180910390f35b6102596108c3565b6040516102669190612331565b60405180910390f35b6102776108ec565b60405161028491906123dd565b60405180910390f35b6102956108ff565b6040516102a29190612331565b60405180910390f35b6102c560048036038101906102c09190611bf3565b610923565b005b6102e160048036038101906102dc9190611d16565b610a53565b005b6102fd60048036038101906102f89190611bf3565b610ad9565b60405161030a91906125d8565b60405180910390f35b61031b610b22565b60405161032891906125d8565b60405180910390f35b61034b60048036038101906103469190611bf3565b610b28565b005b610355610c20565b60405161036291906125d8565b60405180910390f35b61038560048036038101906103809190611c58565b610c26565b005b61038f6110d5565b73ffffffffffffffffffffffffffffffffffffffff166103ad6108c3565b73ffffffffffffffffffffffffffffffffffffffff1614610403576040517f08c379a00000000000000000000000000000000000000000000000000000000081526004016103fa906124d8565b60405180910390fd5b61040d82826110dd565b5050565b6104196110d5565b73ffffffffffffffffffffffffffffffffffffffff166104376108c3565b73ffffffffffffffffffffffffffffffffffffffff161461048d576040517f08c379a0000000000000000000000000000000000000000000000000000000008152600401610484906124d8565b60405180910390fd5b600073ffffffffffffffffffffffffffffffffffffffff168173ffffffffffffffffffffffffffffffffffffffff1614156104fd576040517f08c379a00000000000000000000000000000000000000000000000000000000081526004016104f4906124f8565b60405180910390fd5b80600560006101000a81548173ffffffffffffffffffffffffffffffffffffffff021916908373ffffffffffffffffffffffffffffffffffffffff16021790555050565b6000600154905090565b6105536110d5565b73ffffffffffffffffffffffffffffffffffffffff166105716108c3565b73ffffffffffffffffffffffffffffffffffffffff16146105c7576040517f08c379a00000000000000000000000000000000000000000000000000000000081526004016105be906124d8565b60405180910390fd5b80600860006101000a81548160ff02191690831515021790555050565b6105ec6110d5565b73ffffffffffffffffffffffffffffffffffffffff1661060a6108c3565b73ffffffffffffffffffffffffffffffffffffffff1614610660576040517f08c379a0000000000000000000000000000000000000000000000000000000008152600401610657906124d8565b60405180910390fd5b61066a600061130a565b565b600460009054906101000a900473ffffffffffffffffffffffffffffffffffffffff1681565b61069a6110d5565b73ffffffffffffffffffffffffffffffffffffffff166106b86108c3565b73ffffffffffffffffffffffffffffffffffffffff161461070e576040517f08c379a0000000000000000000000000000000000000000000000000000000008152600401610705906124d8565b60405180910390fd5b6064811115610752576040517f08c379a000000000000000000000000000000000000000000000000000000000815260040161074990612518565b60405180910390fd5b8060078190555050565b6107646110d5565b73ffffffffffffffffffffffffffffffffffffffff166107826108c3565b73ffffffffffffffffffffffffffffffffffffffff16146107d8576040517f08c379a00000000000000000000000000000000000000000000000000000000081526004016107cf906124d8565b60405180910390fd5b6107e282826113ce565b5050565b600560009054906101000a900473ffffffffffffffffffffffffffffffffffffffff1681565b600060016003805490501015610857576040517f08c379a000000000000000000000000000000000000000000000000000000000815260040161084e90612598565b60405180910390fd5b60038281548110610891577f4e487b7100000000000000000000000000000000000000000000000000000000600052603260045260246000fd5b9060005260206000200160009054906101000a900473ffffffffffffffffffffffffffffffffffffffff169050919050565b60008060009054906101000a900473ffffffffffffffffffffffffffffffffffffffff16905090565b600860009054906101000a900460ff1681565b7f000000000000000000000000000000000000000000000000000000000000000081565b61092b6110d5565b73ffffffffffffffffffffffffffffffffffffffff166109496108c3565b73ffffffffffffffffffffffffffffffffffffffff161461099f576040517f08c379a0000000000000000000000000000000000000000000000000000000008152600401610996906124d8565b60405180910390fd5b600073ffffffffffffffffffffffffffffffffffffffff168173ffffffffffffffffffffffffffffffffffffffff161415610a0f576040517f08c379a0000000000000000000000000000000000000000000000000000000008152600401610a06906124f8565b60405180910390fd5b80600460006101000a81548173ffffffffffffffffffffffffffffffffffffffff021916908373ffffffffffffffffffffffffffffffffffffffff16021790555050565b610a5b6110d5565b73ffffffffffffffffffffffffffffffffffffffff16610a796108c3565b73ffffffffffffffffffffffffffffffffffffffff1614610acf576040517f08c379a0000000000000000000000000000000000000000000000000000000008152600401610ac6906124d8565b60405180910390fd5b8060068190555050565b6000600260008373ffffffffffffffffffffffffffffffffffffffff1673ffffffffffffffffffffffffffffffffffffffff168152602001908152602001600020549050919050565b60065481565b610b306110d5565b73ffffffffffffffffffffffffffffffffffffffff16610b4e6108c3565b73ffffffffffffffffffffffffffffffffffffffff1614610ba4576040517f08c379a0000000000000000000000000000000000000000000000000000000008152600401610b9b906124d8565b60405180910390fd5b600073ffffffffffffffffffffffffffffffffffffffff168173ffffffffffffffffffffffffffffffffffffffff161415610c14576040517f08c379a0000000000000000000000000000000000000000000000000000000008152600401610c0b90612478565b60405180910390fd5b610c1d8161130a565b50565b60075481565b600860009054906101000a900460ff1615610c8457610c443361171f565b610c83576040517f08c379a0000000000000000000000000000000000000000000000000000000008152600401610c7a90612558565b60405180910390fd5b5b60016003805490501015610ccd576040517f08c379a0000000000000000000000000000000000000000000000000000000008152600401610cc490612438565b60405180910390fd5b6000610cd8856117f1565b905060008111610d1d576040517f08c379a0000000000000000000000000000000000000000000000000000000008152600401610d1490612418565b60405180910390fd5b610d27858261188e565b6000610d54600460009054906101000a900473ffffffffffffffffffffffffffffffffffffffff166117f1565b90507f000000000000000000000000000000000000000000000000000000000000000073ffffffffffffffffffffffffffffffffffffffff16635c11d7958387878730610dac6102584261198490919063ffffffff16565b6040518763ffffffff1660e01b8152600401610dcd969594939291906125f3565b600060405180830381600087803b158015610de757600080fd5b505af1158015610dfb573d6000803e3d6000fd5b505050506000610e2c600460009054906101000a900473ffffffffffffffffffffffffffffffffffffffff166117f1565b90506000610e43838361199a90919063ffffffff16565b90506000610e6f6064610e61600754856119b090919063ffffffff16565b6119c690919063ffffffff16565b9050610e9e33600460009054906101000a900473ffffffffffffffffffffffffffffffffffffffff16836119dc565b6000610eb3828461199a90919063ffffffff16565b905060005b600380549050811015611064576000610f92600154610f8460646002600060038881548110610f10577f4e487b7100000000000000000000000000000000000000000000000000000000600052603260045260246000fd5b9060005260206000200160009054906101000a900473ffffffffffffffffffffffffffffffffffffffff1673ffffffffffffffffffffffffffffffffffffffff1673ffffffffffffffffffffffffffffffffffffffff168152602001908152602001600020546119b090919063ffffffff16565b6119c690919063ffffffff16565b90506000610fbc6064610fae84876119b090919063ffffffff16565b6119c690919063ffffffff16565b905061104f60038481548110610ffb577f4e487b7100000000000000000000000000000000000000000000000000000000600052603260045260246000fd5b9060005260206000200160009054906101000a900473ffffffffffffffffffffffffffffffffffffffff16600460009054906101000a900473ffffffffffffffffffffffffffffffffffffffff16836119dc565b5050808061105c90612887565b915050610eb8565b507fbbff0d48cf418ade2cf203bbc04beecbb9959c8f7df1b4d3dcea3233e29a058a338b600460009054906101000a900473ffffffffffffffffffffffffffffffffffffffff16898760036040516110c19695949392919061234c565b60405180910390a150505050505050505050565b600033905090565b600073ffffffffffffffffffffffffffffffffffffffff168273ffffffffffffffffffffffffffffffffffffffff16141561114d576040517f08c379a000000000000000000000000000000000000000000000000000000000815260040161114490612458565b60405180910390fd5b60008111611190576040517f08c379a0000000000000000000000000000000000000000000000000000000008152600401611187906125b8565b60405180910390fd5b6000600260008473ffffffffffffffffffffffffffffffffffffffff1673ffffffffffffffffffffffffffffffffffffffff1681526020019081526020016000205414611212576040517f08c379a000000000000000000000000000000000000000000000000000000000815260040161120990612578565b60405180910390fd5b6003829080600181540180825580915050600190039060005260206000200160009091909190916101000a81548173ffffffffffffffffffffffffffffffffffffffff021916908373ffffffffffffffffffffffffffffffffffffffff16021790555080600260008473ffffffffffffffffffffffffffffffffffffffff1673ffffffffffffffffffffffffffffffffffffffff16815260200190815260200160002081905550806001546112c791906126cc565b6001819055507f40c340f65e17194d14ddddb073d3c9f888e3cb52b5aae0c6c7706b4fbc905fac82826040516112fe9291906123b4565b60405180910390a15050565b60008060009054906101000a900473ffffffffffffffffffffffffffffffffffffffff169050816000806101000a81548173ffffffffffffffffffffffffffffffffffffffff021916908373ffffffffffffffffffffffffffffffffffffffff1602179055508173ffffffffffffffffffffffffffffffffffffffff168173ffffffffffffffffffffffffffffffffffffffff167f8be0079c531659141344cd1fd0a4f28419497f9722a3daafe3b4186f6b6457e060405160405180910390a35050565b6003805490508110611415576040517f08c379a000000000000000000000000000000000000000000000000000000000815260040161140c906123f8565b60405180910390fd5b6003818154811061144f577f4e487b7100000000000000000000000000000000000000000000000000000000600052603260045260246000fd5b9060005260206000200160009054906101000a900473ffffffffffffffffffffffffffffffffffffffff1673ffffffffffffffffffffffffffffffffffffffff168273ffffffffffffffffffffffffffffffffffffffff16146114e7576040517f08c379a00000000000000000000000000000000000000000000000000000000081526004016114de90612538565b60405180910390fd5b600260008373ffffffffffffffffffffffffffffffffffffffff1673ffffffffffffffffffffffffffffffffffffffff1681526020019081526020016000205460015461153491906127ad565b6001819055506000600260008473ffffffffffffffffffffffffffffffffffffffff1673ffffffffffffffffffffffffffffffffffffffff168152602001908152602001600020819055506003600160038054905061159391906127ad565b815481106115ca577f4e487b7100000000000000000000000000000000000000000000000000000000600052603260045260246000fd5b9060005260206000200160009054906101000a900473ffffffffffffffffffffffffffffffffffffffff166003828154811061162f577f4e487b7100000000000000000000000000000000000000000000000000000000600052603260045260246000fd5b9060005260206000200160006101000a81548173ffffffffffffffffffffffffffffffffffffffff021916908373ffffffffffffffffffffffffffffffffffffffff16021790555060038054806116af577f4e487b7100000000000000000000000000000000000000000000000000000000600052603160045260246000fd5b6001900381819060005260206000200160006101000a81549073ffffffffffffffffffffffffffffffffffffffff021916905590557fc2ee819acfe1baf117c2aac9d3f627a864f075d2fecc990eebd82d59f2662605826040516117139190612331565b60405180910390a15050565b600080600560009054906101000a900473ffffffffffffffffffffffffffffffffffffffff16905060006006548273ffffffffffffffffffffffffffffffffffffffff166370a08231866040518263ffffffff1660e01b81526004016117859190612331565b60206040518083038186803b15801561179d57600080fd5b505afa1580156117b1573d6000803e3d6000fd5b505050506040513d601f19601f820116820180604052508101906117d59190611d3f565b10156117e25760006117e5565b60015b90508092505050919050565b60008082905060008173ffffffffffffffffffffffffffffffffffffffff166370a08231306040518263ffffffff1660e01b81526004016118329190612331565b60206040518083038186803b15801561184a57600080fd5b505afa15801561185e573d6000803e3d6000fd5b505050506040513d601f19601f820116820180604052508101906118829190611d3f565b90508092505050919050565b60008290508073ffffffffffffffffffffffffffffffffffffffff1663095ea7b37f0000000000000000000000000000000000000000000000000000000000000000846040518363ffffffff1660e01b81526004016118ee9291906123b4565b602060405180830381600087803b15801561190857600080fd5b505af115801561191c573d6000803e3d6000fd5b505050506040513d601f19601f820116820180604052508101906119409190611ced565b61197f576040517f08c379a000000000000000000000000000000000000000000000000000000000815260040161197690612498565b60405180910390fd5b505050565b6000818361199291906126cc565b905092915050565b600081836119a891906127ad565b905092915050565b600081836119be9190612753565b905092915050565b600081836119d49190612722565b905092915050565b6000829050818173ffffffffffffffffffffffffffffffffffffffff166370a08231306040518263ffffffff1660e01b8152600401611a1b9190612331565b60206040518083038186803b158015611a3357600080fd5b505afa158015611a47573d6000803e3d6000fd5b505050506040513d601f19601f82011682018060405250810190611a6b9190611d3f565b1015611aac576040517f08c379a0000000000000000000000000000000000000000000000000000000008152600401611aa3906124b8565b60405180910390fd5b8073ffffffffffffffffffffffffffffffffffffffff1663a9059cbb85846040518363ffffffff1660e01b8152600401611ae79291906123b4565b602060405180830381600087803b158015611b0157600080fd5b505af1158015611b15573d6000803e3d6000fd5b505050506040513d601f19601f82011682018060405250810190611b399190611ced565b5050505050565b600081359050611b4f8161294e565b92915050565b60008083601f840112611b6757600080fd5b8235905067ffffffffffffffff811115611b8057600080fd5b602083019150836020820283011115611b9857600080fd5b9250929050565b600081359050611bae81612965565b92915050565b600081519050611bc381612965565b92915050565b600081359050611bd88161297c565b92915050565b600081519050611bed8161297c565b92915050565b600060208284031215611c0557600080fd5b6000611c1384828501611b40565b91505092915050565b60008060408385031215611c2f57600080fd5b6000611c3d85828601611b40565b9250506020611c4e85828601611bc9565b9150509250929050565b60008060008060608587031215611c6e57600080fd5b6000611c7c87828801611b40565b9450506020611c8d87828801611bc9565b935050604085013567ffffffffffffffff811115611caa57600080fd5b611cb687828801611b55565b925092505092959194509250565b600060208284031215611cd657600080fd5b6000611ce484828501611b9f565b91505092915050565b600060208284031215611cff57600080fd5b6000611d0d84828501611bb4565b91505092915050565b600060208284031215611d2857600080fd5b6000611d3684828501611bc9565b91505092915050565b600060208284031215611d5157600080fd5b6000611d5f84828501611bde565b91505092915050565b6000611d748383611d80565b60208301905092915050565b611d8981612801565b82525050565b611d9881612801565b82525050565b6000611daa8385612693565b9350611db58261264f565b8060005b85811015611dee57611dcb82846126b5565b611dd58882611d68565b9750611de083612679565b925050600181019050611db9565b5085925050509392505050565b6000611e068261266e565b611e108185612693565b9350611e1b83612659565b8060005b83811015611e5357611e308261292e565b611e3a8882611d68565b9750611e4583612686565b925050600181019050611e1f565b5085935050505092915050565b611e6981612813565b82525050565b611e7881612849565b82525050565b6000611e8b6029836126a4565b91507f5061796d656e7453706c69747465723a20696e646578206e6f7420696e20706160008301527f79656520617272617900000000000000000000000000000000000000000000006020830152604082019050919050565b6000611ef16015836126a4565b91507f546f6b656e2062616c616e6365206973207a65726f00000000000000000000006000830152602082019050919050565b6000611f316011836126a4565b91507f4e6f2070617965657320617265207365740000000000000000000000000000006000830152602082019050919050565b6000611f71602c836126a4565b91507f5061796d656e7453706c69747465723a206163636f756e74206973207468652060008301527f7a65726f206164647265737300000000000000000000000000000000000000006020830152604082019050919050565b6000611fd76026836126a4565b91507f4f776e61626c653a206e6577206f776e657220697320746865207a65726f206160008301527f64647265737300000000000000000000000000000000000000000000000000006020830152604082019050919050565b600061203d600e836126a4565b91507f617070726f7665206661696c65640000000000000000000000000000000000006000830152602082019050919050565b600061207d601c836126a4565b91507f4e6f7420656e6f7567682066756e647320746f207472616e73666572000000006000830152602082019050919050565b60006120bd6020836126a4565b91507f4f776e61626c653a2063616c6c6572206973206e6f7420746865206f776e65726000830152602082019050919050565b60006120fd601a836126a4565b91507f43616e6e6f742073657420746f207a65726f20616464726573730000000000006000830152602082019050919050565b600061213d6020836126a4565b91507f43616e6e6f74207365742074726967676572206665652061626f7665203130306000830152602082019050919050565b600061217d6039836126a4565b91507f5061796d656e7453706c69747465723a206163636f756e7420646f6573206e6f60008301527f74206d6174636820706179656520617272617920696e646578000000000000006020830152604082019050919050565b60006121e36018836126a4565b91507f4e6f7420656e6f756768207374616b656420746f6b656e7300000000000000006000830152602082019050919050565b6000612223602b836126a4565b91507f5061796d656e7453706c69747465723a206163636f756e7420616c726561647960008301527f20686173207368617265730000000000000000000000000000000000000000006020830152604082019050919050565b60006122896024836126a4565b91507f5061796d656e7453706c69747465723a20546865726520617265206e6f20706160008301527f79656573000000000000000000000000000000000000000000000000000000006020830152604082019050919050565b60006122ef601d836126a4565b91507f5061796d656e7453706c69747465723a207368617265732061726520300000006000830152602082019050919050565b61232b8161283f565b82525050565b60006020820190506123466000830184611d8f565b92915050565b600060c0820190506123616000830189611d8f565b61236e6020830188611e6f565b61237b6040830187611e6f565b6123886060830186612322565b6123956080830185612322565b81810360a08301526123a78184611dfb565b9050979650505050505050565b60006040820190506123c96000830185611d8f565b6123d66020830184612322565b9392505050565b60006020820190506123f26000830184611e60565b92915050565b6000602082019050818103600083015261241181611e7e565b9050919050565b6000602082019050818103600083015261243181611ee4565b9050919050565b6000602082019050818103600083015261245181611f24565b9050919050565b6000602082019050818103600083015261247181611f64565b9050919050565b6000602082019050818103600083015261249181611fca565b9050919050565b600060208201905081810360008301526124b181612030565b9050919050565b600060208201905081810360008301526124d181612070565b9050919050565b600060208201905081810360008301526124f1816120b0565b9050919050565b60006020820190508181036000830152612511816120f0565b9050919050565b6000602082019050818103600083015261253181612130565b9050919050565b6000602082019050818103600083015261255181612170565b9050919050565b60006020820190508181036000830152612571816121d6565b9050919050565b6000602082019050818103600083015261259181612216565b9050919050565b600060208201905081810360008301526125b18161227c565b9050919050565b600060208201905081810360008301526125d1816122e2565b9050919050565b60006020820190506125ed6000830184612322565b92915050565b600060a0820190506126086000830189612322565b6126156020830188612322565b8181036040830152612628818688611d9e565b90506126376060830185611d8f565b6126446080830184612322565b979650505050505050565b6000819050919050565b60008190508160005260206000209050919050565b600081549050919050565b6000602082019050919050565b6000600182019050919050565b600082825260208201905092915050565b600082825260208201905092915050565b60006126c46020840184611b40565b905092915050565b60006126d78261283f565b91506126e28361283f565b9250827fffffffffffffffffffffffffffffffffffffffffffffffffffffffffffffffff03821115612717576127166128d0565b5b828201905092915050565b600061272d8261283f565b91506127388361283f565b925082612748576127476128ff565b5b828204905092915050565b600061275e8261283f565b91506127698361283f565b9250817fffffffffffffffffffffffffffffffffffffffffffffffffffffffffffffffff04831182151516156127a2576127a16128d0565b5b828202905092915050565b60006127b88261283f565b91506127c38361283f565b9250828210156127d6576127d56128d0565b5b828203905092915050565b600073ffffffffffffffffffffffffffffffffffffffff82169050919050565b600061280c8261281f565b9050919050565b60008115159050919050565b600073ffffffffffffffffffffffffffffffffffffffff82169050919050565b6000819050919050565b60006128548261285b565b9050919050565b60006128668261281f565b9050919050565b600061288061287b83612941565b6127e1565b9050919050565b60006128928261283f565b91507fffffffffffffffffffffffffffffffffffffffffffffffffffffffffffffffff8214156128c5576128c46128d0565b5b600182019050919050565b7f4e487b7100000000000000000000000000000000000000000000000000000000600052601160045260246000fd5b7f4e487b7100000000000000000000000000000000000000000000000000000000600052601260045260246000fd5b600061293a825461286d565b9050919050565b60008160001c9050919050565b61295781612801565b811461296257600080fd5b50565b61296e81612813565b811461297957600080fd5b50565b6129858161283f565b811461299057600080fd5b5056fea2646970667358221220d1241c678edd58d7194163cf2781b455ef16e89320bff1cf019d875163f6eef664736f6c63430008000033",
  "linkReferences": {},
  "deployedLinkReferences": {}
}