{
  "_format": "hh-sol-artifact-1",
  "contractName": "FeeReceiver",
  "sourceName": "contracts/FeeReceiver.sol",
  "abi": [
    {
      "inputs": [
        {
          "internalType": "address",
          "name": "_swapToToken",
          "type": "address"
        },
        {
          "internalType": "address",
          "name": "_poolAddress",
          "type": "address"
        },
        {
          "internalType": "address",
          "name": "_uniRouter",
          "type": "address"
        },
        {
          "internalType": "uint256",
          "name": "_triggerFee",
          "type": "uint256"
        },
        {
          "internalType": "address[]",
          "name": "_payees",
          "type": "address[]"
        },
        {
          "internalType": "uint256[]",
          "name": "_shares",
          "type": "uint256[]"
        }
      ],
      "stateMutability": "nonpayable",
      "type": "constructor"
    },
    {
      "anonymous": false,
      "inputs": [
        {
          "indexed": false,
          "internalType": "address",
          "name": "triggerAccount",
          "type": "address"
        },
        {
          "indexed": false,
          "internalType": "contract IERC20",
          "name": "swapFrom",
          "type": "address"
        },
        {
          "indexed": false,
          "internalType": "contract IERC20",
          "name": "swapTo",
          "type": "address"
        },
        {
          "indexed": false,
          "internalType": "uint256",
          "name": "amount",
          "type": "uint256"
        },
        {
          "indexed": false,
          "internalType": "address[]",
          "name": "recievedAddresses",
          "type": "address[]"
        }
      ],
      "name": "FeeConsolidatation",
      "type": "event"
    },
    {
      "anonymous": false,
      "inputs": [
        {
          "indexed": true,
          "internalType": "address",
          "name": "previousOwner",
          "type": "address"
        },
        {
          "indexed": true,
          "internalType": "address",
          "name": "newOwner",
          "type": "address"
        }
      ],
      "name": "OwnershipTransferred",
      "type": "event"
    },
    {
      "anonymous": false,
      "inputs": [
        {
          "indexed": false,
          "internalType": "address",
          "name": "account",
          "type": "address"
        },
        {
          "indexed": false,
          "internalType": "uint256",
          "name": "shares",
          "type": "uint256"
        }
      ],
      "name": "PayeeAdded",
      "type": "event"
    },
    {
      "anonymous": false,
      "inputs": [
        {
          "indexed": false,
          "internalType": "address",
          "name": "account",
          "type": "address"
        }
      ],
      "name": "PayeeRemoved",
      "type": "event"
    },
    {
      "anonymous": false,
      "inputs": [
        {
          "indexed": false,
          "internalType": "address",
          "name": "from",
          "type": "address"
        },
        {
          "indexed": false,
          "internalType": "uint256",
          "name": "amount",
          "type": "uint256"
        }
      ],
      "name": "PaymentReceived",
      "type": "event"
    },
    {
      "anonymous": false,
      "inputs": [
        {
          "indexed": false,
          "internalType": "address",
          "name": "to",
          "type": "address"
        },
        {
          "indexed": false,
          "internalType": "uint256",
          "name": "amount",
          "type": "uint256"
        }
      ],
      "name": "PaymentReleased",
      "type": "event"
    },
    {
      "inputs": [
        {
          "components": [
            {
              "internalType": "bytes32",
              "name": "root",
              "type": "bytes32"
            },
            {
              "internalType": "uint256",
              "name": "score",
              "type": "uint256"
            },
            {
              "internalType": "bytes32[]",
              "name": "proof",
              "type": "bytes32[]"
            }
          ],
          "internalType": "struct IPool.Claim[]",
          "name": "_claims",
          "type": "tuple[]"
        },
        {
          "internalType": "address",
          "name": "_swapFromToken",
          "type": "address"
        },
        {
          "internalType": "uint256",
          "name": "_amount",
          "type": "uint256"
        },
        {
          "internalType": "uint256",
          "name": "_amountOutMin",
          "type": "uint256"
        },
        {
          "internalType": "address[]",
          "name": "_path",
          "type": "address[]"
        }
      ],
      "name": "ConsolidateFeeToken",
      "outputs": [],
      "stateMutability": "nonpayable",
      "type": "function"
    },
    {
      "inputs": [
        {
          "internalType": "address",
          "name": "_account",
          "type": "address"
        },
        {
          "internalType": "uint256",
          "name": "_shares",
          "type": "uint256"
        }
      ],
      "name": "addPayee",
      "outputs": [],
      "stateMutability": "nonpayable",
      "type": "function"
    },
    {
      "inputs": [],
      "name": "owner",
      "outputs": [
        {
          "internalType": "address",
          "name": "",
          "type": "address"
        }
      ],
      "stateMutability": "view",
      "type": "function"
    },
    {
      "inputs": [
        {
          "internalType": "uint256",
          "name": "index",
          "type": "uint256"
        }
      ],
      "name": "payee",
      "outputs": [
        {
          "internalType": "address",
          "name": "",
          "type": "address"
        }
      ],
      "stateMutability": "view",
      "type": "function"
    },
    {
      "inputs": [],
      "name": "poolAddress",
      "outputs": [
        {
          "internalType": "address",
          "name": "",
          "type": "address"
        }
      ],
      "stateMutability": "view",
      "type": "function"
    },
    {
      "inputs": [
        {
          "internalType": "address",
          "name": "_account",
          "type": "address"
        },
        {
          "internalType": "uint256",
          "name": "_index",
          "type": "uint256"
        }
      ],
      "name": "removePayee",
      "outputs": [],
      "stateMutability": "nonpayable",
      "type": "function"
    },
    {
      "inputs": [],
      "name": "renounceOwnership",
      "outputs": [],
      "stateMutability": "nonpayable",
      "type": "function"
    },
    {
      "inputs": [
        {
          "internalType": "address",
          "name": "_poolAddress",
          "type": "address"
        }
      ],
      "name": "setPoolAddress",
      "outputs": [],
      "stateMutability": "nonpayable",
      "type": "function"
    },
    {
      "inputs": [
        {
          "internalType": "bool",
          "name": "_switch",
          "type": "bool"
        }
      ],
      "name": "setStakeActive",
      "outputs": [],
      "stateMutability": "nonpayable",
      "type": "function"
    },
    {
      "inputs": [
        {
          "internalType": "address",
          "name": "_stakeAddress",
          "type": "address"
        }
      ],
      "name": "setStakeAddress",
      "outputs": [],
      "stateMutability": "nonpayable",
      "type": "function"
    },
    {
      "inputs": [
        {
          "internalType": "uint256",
          "name": "_stakeThreshold",
          "type": "uint256"
        }
      ],
      "name": "setStakeThreshold",
      "outputs": [],
      "stateMutability": "nonpayable",
      "type": "function"
    },
    {
      "inputs": [
        {
          "internalType": "address",
          "name": "_swapToToken",
          "type": "address"
        }
      ],
      "name": "setSwapToToken",
      "outputs": [],
      "stateMutability": "nonpayable",
      "type": "function"
    },
    {
      "inputs": [
        {
          "internalType": "uint256",
          "name": "_triggerFee",
          "type": "uint256"
        }
      ],
      "name": "setTriggerFee",
      "outputs": [],
      "stateMutability": "nonpayable",
      "type": "function"
    },
    {
      "inputs": [
        {
          "internalType": "address",
          "name": "account",
          "type": "address"
        }
      ],
      "name": "shares",
      "outputs": [
        {
          "internalType": "uint256",
          "name": "",
          "type": "uint256"
        }
      ],
      "stateMutability": "view",
      "type": "function"
    },
    {
      "inputs": [],
      "name": "stakeActive",
      "outputs": [
        {
          "internalType": "bool",
          "name": "",
          "type": "bool"
        }
      ],
      "stateMutability": "view",
      "type": "function"
    },
    {
      "inputs": [],
      "name": "stakeAddress",
      "outputs": [
        {
          "internalType": "address",
          "name": "",
          "type": "address"
        }
      ],
      "stateMutability": "view",
      "type": "function"
    },
    {
      "inputs": [],
      "name": "stakeThreshold",
      "outputs": [
        {
          "internalType": "uint256",
          "name": "",
          "type": "uint256"
        }
      ],
      "stateMutability": "view",
      "type": "function"
    },
    {
      "inputs": [],
      "name": "swapToToken",
      "outputs": [
        {
          "internalType": "address",
          "name": "",
          "type": "address"
        }
      ],
      "stateMutability": "view",
      "type": "function"
    },
    {
      "inputs": [],
      "name": "totalShares",
      "outputs": [
        {
          "internalType": "uint256",
          "name": "",
          "type": "uint256"
        }
      ],
      "stateMutability": "view",
      "type": "function"
    },
    {
      "inputs": [
        {
          "internalType": "address",
          "name": "newOwner",
          "type": "address"
        }
      ],
      "name": "transferOwnership",
      "outputs": [],
      "stateMutability": "nonpayable",
      "type": "function"
    },
    {
      "inputs": [],
      "name": "triggerFee",
      "outputs": [
        {
          "internalType": "uint256",
          "name": "",
          "type": "uint256"
        }
      ],
      "stateMutability": "view",
      "type": "function"
    },
    {
      "inputs": [],
      "name": "uniRouter",
      "outputs": [
        {
          "internalType": "address",
          "name": "",
          "type": "address"
        }
      ],
      "stateMutability": "view",
      "type": "function"
    }
  ],
  "bytecode": "0x60a06040523480156200001157600080fd5b50604051620037dd380380620037dd8339818101604052810190620000379190620006e5565b8181620000596200004d6200026d60201b60201c565b6200027560201b60201c565b8051825114620000a0576040517f08c379a00000000000000000000000000000000000000000000000000000000081526004016200009790620009da565b60405180910390fd5b6000825111620000e7576040517f08c379a0000000000000000000000000000000000000000000000000000000008152600401620000de9062000a1e565b60405180910390fd5b60005b82518110156200019e576200018883828151811062000132577f4e487b7100000000000000000000000000000000000000000000000000000000600052603260045260246000fd5b602002602001015183838151811062000174577f4e487b7100000000000000000000000000000000000000000000000000000000600052603260045260246000fd5b60200260200101516200033960201b60201c565b8080620001959062000ba0565b915050620000ea565b50505085600460006101000a81548173ffffffffffffffffffffffffffffffffffffffff021916908373ffffffffffffffffffffffffffffffffffffffff16021790555084600560006101000a81548173ffffffffffffffffffffffffffffffffffffffff021916908373ffffffffffffffffffffffffffffffffffffffff1602179055508373ffffffffffffffffffffffffffffffffffffffff1660808173ffffffffffffffffffffffffffffffffffffffff1660601b815250508260088190555050505050505062000c80565b600033905090565b60008060009054906101000a900473ffffffffffffffffffffffffffffffffffffffff169050816000806101000a81548173ffffffffffffffffffffffffffffffffffffffff021916908373ffffffffffffffffffffffffffffffffffffffff1602179055508173ffffffffffffffffffffffffffffffffffffffff168173ffffffffffffffffffffffffffffffffffffffff167f8be0079c531659141344cd1fd0a4f28419497f9722a3daafe3b4186f6b6457e060405160405180910390a35050565b600073ffffffffffffffffffffffffffffffffffffffff168273ffffffffffffffffffffffffffffffffffffffff161415620003ac576040517f08c379a0000000000000000000000000000000000000000000000000000000008152600401620003a390620009b8565b60405180910390fd5b60008111620003f2576040517f08c379a0000000000000000000000000000000000000000000000000000000008152600401620003e99062000a40565b60405180910390fd5b6000600260008473ffffffffffffffffffffffffffffffffffffffff1673ffffffffffffffffffffffffffffffffffffffff168152602001908152602001600020541462000477576040517f08c379a00000000000000000000000000000000000000000000000000000000081526004016200046e90620009fc565b60405180910390fd5b6003829080600181540180825580915050600190039060005260206000200160009091909190916101000a81548173ffffffffffffffffffffffffffffffffffffffff021916908373ffffffffffffffffffffffffffffffffffffffff16021790555080600260008473ffffffffffffffffffffffffffffffffffffffff1673ffffffffffffffffffffffffffffffffffffffff16815260200190815260200160002081905550806001546200052e919062000b05565b6001819055507f40c340f65e17194d14ddddb073d3c9f888e3cb52b5aae0c6c7706b4fbc905fac8282604051620005679291906200098b565b60405180910390a15050565b60006200058a620005848462000a96565b62000a62565b90508083825260208201905082856020860282011115620005aa57600080fd5b60005b85811015620005de5781620005c388826200065d565b845260208401935060208301925050600181019050620005ad565b5050509392505050565b6000620005ff620005f98462000ac5565b62000a62565b905080838252602082019050828560208602820111156200061f57600080fd5b60005b85811015620006535781620006388882620006ce565b84526020840193506020830192505060018101905062000622565b5050509392505050565b6000815190506200066e8162000c4c565b92915050565b600082601f8301126200068657600080fd5b81516200069884826020860162000573565b91505092915050565b600082601f830112620006b357600080fd5b8151620006c5848260208601620005e8565b91505092915050565b600081519050620006df8162000c66565b92915050565b60008060008060008060c08789031215620006ff57600080fd5b60006200070f89828a016200065d565b96505060206200072289828a016200065d565b95505060406200073589828a016200065d565b94505060606200074889828a01620006ce565b935050608087015167ffffffffffffffff8111156200076657600080fd5b6200077489828a0162000674565b92505060a087015167ffffffffffffffff8111156200079257600080fd5b620007a089828a01620006a1565b9150509295509295509295565b620007b88162000b62565b82525050565b6000620007cd602c8362000af4565b91507f5061796d656e7453706c69747465723a206163636f756e74206973207468652060008301527f7a65726f206164647265737300000000000000000000000000000000000000006020830152604082019050919050565b60006200083560328362000af4565b91507f5061796d656e7453706c69747465723a2070617965657320616e64207368617260008301527f6573206c656e677468206d69736d6174636800000000000000000000000000006020830152604082019050919050565b60006200089d602b8362000af4565b91507f5061796d656e7453706c69747465723a206163636f756e7420616c726561647960008301527f20686173207368617265730000000000000000000000000000000000000000006020830152604082019050919050565b600062000905601a8362000af4565b91507f5061796d656e7453706c69747465723a206e6f207061796565730000000000006000830152602082019050919050565b600062000947601d8362000af4565b91507f5061796d656e7453706c69747465723a207368617265732061726520300000006000830152602082019050919050565b620009858162000b96565b82525050565b6000604082019050620009a26000830185620007ad565b620009b160208301846200097a565b9392505050565b60006020820190508181036000830152620009d381620007be565b9050919050565b60006020820190508181036000830152620009f58162000826565b9050919050565b6000602082019050818103600083015262000a17816200088e565b9050919050565b6000602082019050818103600083015262000a3981620008f6565b9050919050565b6000602082019050818103600083015262000a5b8162000938565b9050919050565b6000604051905081810181811067ffffffffffffffff8211171562000a8c5762000a8b62000c1d565b5b8060405250919050565b600067ffffffffffffffff82111562000ab45762000ab362000c1d565b5b602082029050602081019050919050565b600067ffffffffffffffff82111562000ae35762000ae262000c1d565b5b602082029050602081019050919050565b600082825260208201905092915050565b600062000b128262000b96565b915062000b1f8362000b96565b9250827fffffffffffffffffffffffffffffffffffffffffffffffffffffffffffffffff0382111562000b575762000b5662000bee565b5b828201905092915050565b600062000b6f8262000b76565b9050919050565b600073ffffffffffffffffffffffffffffffffffffffff82169050919050565b6000819050919050565b600062000bad8262000b96565b91507fffffffffffffffffffffffffffffffffffffffffffffffffffffffffffffffff82141562000be35762000be262000bee565b5b600182019050919050565b7f4e487b7100000000000000000000000000000000000000000000000000000000600052601160045260246000fd5b7f4e487b7100000000000000000000000000000000000000000000000000000000600052604160045260246000fd5b62000c578162000b62565b811462000c6357600080fd5b50565b62000c718162000b96565b811462000c7d57600080fd5b50565b60805160601c612b3062000cad600039600081816104f801528181610c7501526110df0152612b306000f3fe608060405234801561001057600080fd5b50600436106101425760003560e01c80638b83209b116100b8578063b6a9a3341161007c578063b6a9a33414610317578063ce7c2ac214610333578063e9e15b4f14610363578063f11f77f91461037f578063f2fde38b1461039d578063f6837157146103b957610142565b80638b83209b146102715780638da5cb5b146102a157806390b2dd57146102bf578063a0e47bf6146102dd578063b21285ce146102fb57610142565b80635ff162ca1161010a5780635ff162ca146101d7578063715018a6146101f357806373b411cb146101fd57806376aa3fef1461021b57806384e45c3d14610237578063851073671461025357610142565b80631755ff211461014757806317cff69f1461016557806318f9b0231461018157806323471d181461019d5780633a98ef39146101b9575b600080fd5b61014f6103d7565b60405161015c91906123dd565b60405180910390f35b61017f600480360381019061017a9190611d25565b6103fd565b005b61019b60048036038101906101969190611ce9565b6107f8565b005b6101b760048036038101906101b29190611cc0565b610882565b005b6101c1610942565b6040516101ce91906125f4565b60405180910390f35b6101f160048036038101906101ec9190611dcf565b61094c565b005b6101fb6109e5565b005b610205610a6d565b60405161021291906123dd565b60405180910390f35b61023560048036038101906102309190611e21565b610a93565b005b610251600480360381019061024c9190611ce9565b610b19565b005b61025b610ba3565b60405161026891906123dd565b60405180910390f35b61028b60048036038101906102869190611e21565b610bc9565b60405161029891906123dd565b60405180910390f35b6102a9610c37565b6040516102b691906123dd565b60405180910390f35b6102c7610c60565b6040516102d491906124b9565b60405180910390f35b6102e5610c73565b6040516102f291906123dd565b60405180910390f35b61031560048036038101906103109190611cc0565b610c97565b005b610331600480360381019061032c9190611e21565b610d57565b005b61034d60048036038101906103489190611cc0565b610ddd565b60405161035a91906125f4565b60405180910390f35b61037d60048036038101906103789190611cc0565b610e26565b005b610387610ee6565b60405161039491906125f4565b60405180910390f35b6103b760048036038101906103b29190611cc0565b610eec565b005b6103c1610fe4565b6040516103ce91906125f4565b60405180910390f35b600560009054906101000a900473ffffffffffffffffffffffffffffffffffffffff1681565b600960009054906101000a900460ff161561045b5761041b33610fea565b61045a576040517f08c379a000000000000000000000000000000000000000000000000000000000815260040161045190612594565b60405180910390fd5b5b600560009054906101000a900473ffffffffffffffffffffffffffffffffffffffff1673ffffffffffffffffffffffffffffffffffffffff16634eef70e48787876040518463ffffffff1660e01b81526004016104ba9392919061247b565b600060405180830381600087803b1580156104d457600080fd5b505af11580156104e8573d6000803e3d6000fd5b505050506104f685856110bc565b7f000000000000000000000000000000000000000000000000000000000000000073ffffffffffffffffffffffffffffffffffffffff16635c11d795858585853061054c610258426111b290919063ffffffff16565b6040518763ffffffff1660e01b815260040161056d9695949392919061260f565b600060405180830381600087803b15801561058757600080fd5b505af115801561059b573d6000803e3d6000fd5b5050505060006105c960646105bb600854886111c890919063ffffffff16565b6111de90919063ffffffff16565b90506105f833600460009054906101000a900473ffffffffffffffffffffffffffffffffffffffff16836111f4565b600061060d828761135890919063ffffffff16565b905060005b60038054905081101561078b5760006001546002600060038581548110610662577f4e487b7100000000000000000000000000000000000000000000000000000000600052603260045260246000fd5b9060005260206000200160009054906101000a900473ffffffffffffffffffffffffffffffffffffffff1673ffffffffffffffffffffffffffffffffffffffff1673ffffffffffffffffffffffffffffffffffffffff168152602001908152602001600020546106d29190612839565b905061077760038381548110610711577f4e487b7100000000000000000000000000000000000000000000000000000000600052603260045260246000fd5b9060005260206000200160009054906101000a900473ffffffffffffffffffffffffffffffffffffffff16600460009054906101000a900473ffffffffffffffffffffffffffffffffffffffff1661077284876111c890919063ffffffff16565b6111f4565b508080610783906129a8565b915050610612565b507f261df384dc63e9de53c9811f4a93c7fc0cbba42af8be50131c04944cef7daf723388600460009054906101000a900473ffffffffffffffffffffffffffffffffffffffff168960036040516107e69594939291906123f8565b60405180910390a15050505050505050565b61080061136e565b73ffffffffffffffffffffffffffffffffffffffff1661081e610c37565b73ffffffffffffffffffffffffffffffffffffffff1614610874576040517f08c379a000000000000000000000000000000000000000000000000000000000815260040161086b90612534565b60405180910390fd5b61087e8282611376565b5050565b61088a61136e565b73ffffffffffffffffffffffffffffffffffffffff166108a8610c37565b73ffffffffffffffffffffffffffffffffffffffff16146108fe576040517f08c379a00000000000000000000000000000000000000000000000000000000081526004016108f590612534565b60405180910390fd5b80600660006101000a81548173ffffffffffffffffffffffffffffffffffffffff021916908373ffffffffffffffffffffffffffffffffffffffff16021790555050565b6000600154905090565b61095461136e565b73ffffffffffffffffffffffffffffffffffffffff16610972610c37565b73ffffffffffffffffffffffffffffffffffffffff16146109c8576040517f08c379a00000000000000000000000000000000000000000000000000000000081526004016109bf90612534565b60405180910390fd5b80600960006101000a81548160ff02191690831515021790555050565b6109ed61136e565b73ffffffffffffffffffffffffffffffffffffffff16610a0b610c37565b73ffffffffffffffffffffffffffffffffffffffff1614610a61576040517f08c379a0000000000000000000000000000000000000000000000000000000008152600401610a5890612534565b60405180910390fd5b610a6b60006115a3565b565b600460009054906101000a900473ffffffffffffffffffffffffffffffffffffffff1681565b610a9b61136e565b73ffffffffffffffffffffffffffffffffffffffff16610ab9610c37565b73ffffffffffffffffffffffffffffffffffffffff1614610b0f576040517f08c379a0000000000000000000000000000000000000000000000000000000008152600401610b0690612534565b60405180910390fd5b8060088190555050565b610b2161136e565b73ffffffffffffffffffffffffffffffffffffffff16610b3f610c37565b73ffffffffffffffffffffffffffffffffffffffff1614610b95576040517f08c379a0000000000000000000000000000000000000000000000000000000008152600401610b8c90612534565b60405180910390fd5b610b9f8282611667565b5050565b600660009054906101000a900473ffffffffffffffffffffffffffffffffffffffff1681565b600060038281548110610c05577f4e487b7100000000000000000000000000000000000000000000000000000000600052603260045260246000fd5b9060005260206000200160009054906101000a900473ffffffffffffffffffffffffffffffffffffffff169050919050565b60008060009054906101000a900473ffffffffffffffffffffffffffffffffffffffff16905090565b600960009054906101000a900460ff1681565b7f000000000000000000000000000000000000000000000000000000000000000081565b610c9f61136e565b73ffffffffffffffffffffffffffffffffffffffff16610cbd610c37565b73ffffffffffffffffffffffffffffffffffffffff1614610d13576040517f08c379a0000000000000000000000000000000000000000000000000000000008152600401610d0a90612534565b60405180910390fd5b80600460006101000a81548173ffffffffffffffffffffffffffffffffffffffff021916908373ffffffffffffffffffffffffffffffffffffffff16021790555050565b610d5f61136e565b73ffffffffffffffffffffffffffffffffffffffff16610d7d610c37565b73ffffffffffffffffffffffffffffffffffffffff1614610dd3576040517f08c379a0000000000000000000000000000000000000000000000000000000008152600401610dca90612534565b60405180910390fd5b8060078190555050565b6000600260008373ffffffffffffffffffffffffffffffffffffffff1673ffffffffffffffffffffffffffffffffffffffff168152602001908152602001600020549050919050565b610e2e61136e565b73ffffffffffffffffffffffffffffffffffffffff16610e4c610c37565b73ffffffffffffffffffffffffffffffffffffffff1614610ea2576040517f08c379a0000000000000000000000000000000000000000000000000000000008152600401610e9990612534565b60405180910390fd5b80600560006101000a81548173ffffffffffffffffffffffffffffffffffffffff021916908373ffffffffffffffffffffffffffffffffffffffff16021790555050565b60075481565b610ef461136e565b73ffffffffffffffffffffffffffffffffffffffff16610f12610c37565b73ffffffffffffffffffffffffffffffffffffffff1614610f68576040517f08c379a0000000000000000000000000000000000000000000000000000000008152600401610f5f90612534565b60405180910390fd5b600073ffffffffffffffffffffffffffffffffffffffff168173ffffffffffffffffffffffffffffffffffffffff161415610fd8576040517f08c379a0000000000000000000000000000000000000000000000000000000008152600401610fcf906124f4565b60405180910390fd5b610fe1816115a3565b50565b60085481565b600080600660009054906101000a900473ffffffffffffffffffffffffffffffffffffffff16905060006007548273ffffffffffffffffffffffffffffffffffffffff166370a08231866040518263ffffffff1660e01b815260040161105091906123dd565b60206040518083038186803b15801561106857600080fd5b505afa15801561107c573d6000803e3d6000fd5b505050506040513d601f19601f820116820180604052508101906110a09190611e4a565b10156110ad5760006110b0565b60015b90508092505050919050565b60008290508073ffffffffffffffffffffffffffffffffffffffff1663095ea7b37f0000000000000000000000000000000000000000000000000000000000000000846040518363ffffffff1660e01b815260040161111c929190612452565b602060405180830381600087803b15801561113657600080fd5b505af115801561114a573d6000803e3d6000fd5b505050506040513d601f19601f8201168201806040525081019061116e9190611df8565b6111ad576040517f08c379a00000000000000000000000000000000000000000000000000000000081526004016111a490612574565b60405180910390fd5b505050565b600081836111c091906127e3565b905092915050565b600081836111d6919061286a565b905092915050565b600081836111ec9190612839565b905092915050565b6000829050818173ffffffffffffffffffffffffffffffffffffffff166370a08231306040518263ffffffff1660e01b815260040161123391906123dd565b60206040518083038186803b15801561124b57600080fd5b505afa15801561125f573d6000803e3d6000fd5b505050506040513d601f19601f820116820180604052508101906112839190611e4a565b10156112c4576040517f08c379a00000000000000000000000000000000000000000000000000000000081526004016112bb90612514565b60405180910390fd5b8073ffffffffffffffffffffffffffffffffffffffff1663a9059cbb85846040518363ffffffff1660e01b81526004016112ff929190612452565b602060405180830381600087803b15801561131957600080fd5b505af115801561132d573d6000803e3d6000fd5b505050506040513d601f19601f820116820180604052508101906113519190611df8565b5050505050565b6000818361136691906128c4565b905092915050565b600033905090565b600073ffffffffffffffffffffffffffffffffffffffff168273ffffffffffffffffffffffffffffffffffffffff1614156113e6576040517f08c379a00000000000000000000000000000000000000000000000000000000081526004016113dd906124d4565b60405180910390fd5b60008111611429576040517f08c379a0000000000000000000000000000000000000000000000000000000008152600401611420906125d4565b60405180910390fd5b6000600260008473ffffffffffffffffffffffffffffffffffffffff1673ffffffffffffffffffffffffffffffffffffffff16815260200190815260200160002054146114ab576040517f08c379a00000000000000000000000000000000000000000000000000000000081526004016114a2906125b4565b60405180910390fd5b6003829080600181540180825580915050600190039060005260206000200160009091909190916101000a81548173ffffffffffffffffffffffffffffffffffffffff021916908373ffffffffffffffffffffffffffffffffffffffff16021790555080600260008473ffffffffffffffffffffffffffffffffffffffff1673ffffffffffffffffffffffffffffffffffffffff168152602001908152602001600020819055508060015461156091906127e3565b6001819055507f40c340f65e17194d14ddddb073d3c9f888e3cb52b5aae0c6c7706b4fbc905fac8282604051611597929190612452565b60405180910390a15050565b60008060009054906101000a900473ffffffffffffffffffffffffffffffffffffffff169050816000806101000a81548173ffffffffffffffffffffffffffffffffffffffff021916908373ffffffffffffffffffffffffffffffffffffffff1602179055508173ffffffffffffffffffffffffffffffffffffffff168173ffffffffffffffffffffffffffffffffffffffff167f8be0079c531659141344cd1fd0a4f28419497f9722a3daafe3b4186f6b6457e060405160405180910390a35050565b600073ffffffffffffffffffffffffffffffffffffffff168273ffffffffffffffffffffffffffffffffffffffff1614156116d7576040517f08c379a00000000000000000000000000000000000000000000000000000000081526004016116ce906124d4565b60405180910390fd5b6000600260008473ffffffffffffffffffffffffffffffffffffffff1673ffffffffffffffffffffffffffffffffffffffff1681526020019081526020016000205411611759576040517f08c379a0000000000000000000000000000000000000000000000000000000008152600401611750906125d4565b60405180910390fd5b60038181548110611793577f4e487b7100000000000000000000000000000000000000000000000000000000600052603260045260246000fd5b9060005260206000200160009054906101000a900473ffffffffffffffffffffffffffffffffffffffff1673ffffffffffffffffffffffffffffffffffffffff168273ffffffffffffffffffffffffffffffffffffffff161461182b576040517f08c379a000000000000000000000000000000000000000000000000000000000815260040161182290612554565b60405180910390fd5b600260008373ffffffffffffffffffffffffffffffffffffffff1673ffffffffffffffffffffffffffffffffffffffff1681526020019081526020016000205460015461187891906128c4565b6001819055506000600260008473ffffffffffffffffffffffffffffffffffffffff1673ffffffffffffffffffffffffffffffffffffffff16815260200190815260200160002081905550600360016003805490506118d791906128c4565b8154811061190e577f4e487b7100000000000000000000000000000000000000000000000000000000600052603260045260246000fd5b9060005260206000200160009054906101000a900473ffffffffffffffffffffffffffffffffffffffff1660038281548110611973577f4e487b7100000000000000000000000000000000000000000000000000000000600052603260045260246000fd5b9060005260206000200160006101000a81548173ffffffffffffffffffffffffffffffffffffffff021916908373ffffffffffffffffffffffffffffffffffffffff16021790555060038054806119f3577f4e487b7100000000000000000000000000000000000000000000000000000000600052603160045260246000fd5b6001900381819060005260206000200160006101000a81549073ffffffffffffffffffffffffffffffffffffffff021916905590557fc2ee819acfe1baf117c2aac9d3f627a864f075d2fecc990eebd82d59f266260582604051611a5791906123dd565b60405180910390a15050565b6000611a76611a718461269c565b61266b565b90508083825260208201905082856020860282011115611a9557600080fd5b60005b85811015611ac55781611aab8882611c09565b845260208401935060208301925050600181019050611a98565b5050509392505050565b6000611ae2611add846126c8565b61266b565b9050808382526020820190508260005b85811015611b225781358501611b088882611c1e565b845260208401935060208301925050600181019050611af2565b5050509392505050565b600081359050611b3b81612a9e565b92915050565b60008083601f840112611b5357600080fd5b8235905067ffffffffffffffff811115611b6c57600080fd5b602083019150836020820283011115611b8457600080fd5b9250929050565b600082601f830112611b9c57600080fd5b8135611bac848260208601611a63565b91505092915050565b600082601f830112611bc657600080fd5b8135611bd6848260208601611acf565b91505092915050565b600081359050611bee81612ab5565b92915050565b600081519050611c0381612ab5565b92915050565b600081359050611c1881612acc565b92915050565b600060608284031215611c3057600080fd5b611c3a606061266b565b90506000611c4a84828501611c09565b6000830152506020611c5e84828501611c96565b602083015250604082013567ffffffffffffffff811115611c7e57600080fd5b611c8a84828501611b8b565b60408301525092915050565b600081359050611ca581612ae3565b92915050565b600081519050611cba81612ae3565b92915050565b600060208284031215611cd257600080fd5b6000611ce084828501611b2c565b91505092915050565b60008060408385031215611cfc57600080fd5b6000611d0a85828601611b2c565b9250506020611d1b85828601611c96565b9150509250929050565b60008060008060008060a08789031215611d3e57600080fd5b600087013567ffffffffffffffff811115611d5857600080fd5b611d6489828a01611bb5565b9650506020611d7589828a01611b2c565b9550506040611d8689828a01611c96565b9450506060611d9789828a01611c96565b935050608087013567ffffffffffffffff811115611db457600080fd5b611dc089828a01611b41565b92509250509295509295509295565b600060208284031215611de157600080fd5b6000611def84828501611bdf565b91505092915050565b600060208284031215611e0a57600080fd5b6000611e1884828501611bf4565b91505092915050565b600060208284031215611e3357600080fd5b6000611e4184828501611c96565b91505092915050565b600060208284031215611e5c57600080fd5b6000611e6a84828501611cab565b91505092915050565b6000611e7f8383611eb7565b60208301905092915050565b6000611e978383612079565b60208301905092915050565b6000611eaf838361236f565b905092915050565b611ec081612918565b82525050565b611ecf81612918565b82525050565b6000611ee18385612788565b9350611eec826126f4565b8060005b85811015611f2557611f0282846127cc565b611f0c8882611e73565b9750611f1783612754565b925050600181019050611ef0565b5085925050509392505050565b6000611f3d82612733565b611f478185612788565b9350611f52836126fe565b8060005b83811015611f8a57611f6782612a7e565b611f718882611e73565b9750611f7c83612761565b925050600181019050611f56565b5085935050505092915050565b6000611fa28261273e565b611fac8185612799565b9350611fb783612713565b8060005b83811015611fe8578151611fcf8882611e8b565b9750611fda8361276e565b925050600181019050611fbb565b5085935050505092915050565b600061200082612749565b61200a81856127aa565b93508360208202850161201c85612723565b8060005b8581101561205857848403895281516120398582611ea3565b94506120448361277b565b925060208a01995050600181019050612020565b50829750879550505050505092915050565b6120738161292a565b82525050565b61208281612936565b82525050565b6120918161296a565b82525050565b60006120a4602c836127bb565b91507f5061796d656e7453706c69747465723a206163636f756e74206973207468652060008301527f7a65726f206164647265737300000000000000000000000000000000000000006020830152604082019050919050565b600061210a6026836127bb565b91507f4f776e61626c653a206e6577206f776e657220697320746865207a65726f206160008301527f64647265737300000000000000000000000000000000000000000000000000006020830152604082019050919050565b6000612170601c836127bb565b91507f4e6f7420656e6f7567682066756e647320746f207472616e73666572000000006000830152602082019050919050565b60006121b06020836127bb565b91507f4f776e61626c653a2063616c6c6572206973206e6f7420746865206f776e65726000830152602082019050919050565b60006121f06039836127bb565b91507f5061796d656e7453706c69747465723a206163636f756e7420646f6573206e6f60008301527f74206d6174636820706179656520617272617920696e646578000000000000006020830152604082019050919050565b6000612256600f836127bb565b91507f617070726f7665206661696c65642e00000000000000000000000000000000006000830152602082019050919050565b60006122966018836127bb565b91507f4e6f7420656e6f756768207374616b656420746f6b656e7300000000000000006000830152602082019050919050565b60006122d6602b836127bb565b91507f5061796d656e7453706c69747465723a206163636f756e7420616c726561647960008301527f20686173207368617265730000000000000000000000000000000000000000006020830152604082019050919050565b600061233c601d836127bb565b91507f5061796d656e7453706c69747465723a207368617265732061726520300000006000830152602082019050919050565b60006060830160008301516123876000860182612079565b50602083015161239a60208601826123bf565b50604083015184820360408601526123b28282611f97565b9150508091505092915050565b6123c881612960565b82525050565b6123d781612960565b82525050565b60006020820190506123f26000830184611ec6565b92915050565b600060a08201905061240d6000830188611ec6565b61241a6020830187612088565b6124276040830186612088565b61243460608301856123ce565b81810360808301526124468184611f32565b90509695505050505050565b60006040820190506124676000830185611ec6565b61247460208301846123ce565b9392505050565b600060608201905081810360008301526124958186611ff5565b90506124a46020830185612088565b6124b160408301846123ce565b949350505050565b60006020820190506124ce600083018461206a565b92915050565b600060208201905081810360008301526124ed81612097565b9050919050565b6000602082019050818103600083015261250d816120fd565b9050919050565b6000602082019050818103600083015261252d81612163565b9050919050565b6000602082019050818103600083015261254d816121a3565b9050919050565b6000602082019050818103600083015261256d816121e3565b9050919050565b6000602082019050818103600083015261258d81612249565b9050919050565b600060208201905081810360008301526125ad81612289565b9050919050565b600060208201905081810360008301526125cd816122c9565b9050919050565b600060208201905081810360008301526125ed8161232f565b9050919050565b600060208201905061260960008301846123ce565b92915050565b600060a08201905061262460008301896123ce565b61263160208301886123ce565b8181036040830152612644818688611ed5565b90506126536060830185611ec6565b61266060808301846123ce565b979650505050505050565b6000604051905081810181811067ffffffffffffffff8211171561269257612691612a4f565b5b8060405250919050565b600067ffffffffffffffff8211156126b7576126b6612a4f565b5b602082029050602081019050919050565b600067ffffffffffffffff8211156126e3576126e2612a4f565b5b602082029050602081019050919050565b6000819050919050565b60008190508160005260206000209050919050565b6000819050602082019050919050565b6000819050602082019050919050565b600081549050919050565b600081519050919050565b600081519050919050565b6000602082019050919050565b6000600182019050919050565b6000602082019050919050565b6000602082019050919050565b600082825260208201905092915050565b600082825260208201905092915050565b600082825260208201905092915050565b600082825260208201905092915050565b60006127db6020840184611b2c565b905092915050565b60006127ee82612960565b91506127f983612960565b9250827fffffffffffffffffffffffffffffffffffffffffffffffffffffffffffffffff0382111561282e5761282d6129f1565b5b828201905092915050565b600061284482612960565b915061284f83612960565b92508261285f5761285e612a20565b5b828204905092915050565b600061287582612960565b915061288083612960565b9250817fffffffffffffffffffffffffffffffffffffffffffffffffffffffffffffffff04831182151516156128b9576128b86129f1565b5b828202905092915050565b60006128cf82612960565b91506128da83612960565b9250828210156128ed576128ec6129f1565b5b828203905092915050565b600073ffffffffffffffffffffffffffffffffffffffff82169050919050565b600061292382612940565b9050919050565b60008115159050919050565b6000819050919050565b600073ffffffffffffffffffffffffffffffffffffffff82169050919050565b6000819050919050565b60006129758261297c565b9050919050565b600061298782612940565b9050919050565b60006129a161299c83612a91565b6128f8565b9050919050565b60006129b382612960565b91507fffffffffffffffffffffffffffffffffffffffffffffffffffffffffffffffff8214156129e6576129e56129f1565b5b600182019050919050565b7f4e487b7100000000000000000000000000000000000000000000000000000000600052601160045260246000fd5b7f4e487b7100000000000000000000000000000000000000000000000000000000600052601260045260246000fd5b7f4e487b7100000000000000000000000000000000000000000000000000000000600052604160045260246000fd5b6000612a8a825461298e565b9050919050565b60008160001c9050919050565b612aa781612918565b8114612ab257600080fd5b50565b612abe8161292a565b8114612ac957600080fd5b50565b612ad581612936565b8114612ae057600080fd5b50565b612aec81612960565b8114612af757600080fd5b5056fea2646970667358221220bcc3eea5170a9bdf50b74d544da448597f41bab93e483f578a3d0fb3c20ae08964736f6c63430008000033",
  "linkReferences": {},
  "deployedLinkReferences": {}
}