{
  "_format": "hh-sol-artifact-1",
  "contractName": "FeeReceiver",
  "sourceName": "contracts/FeeReceiver.sol",
  "abi": [
    {
      "inputs": [
        {
          "internalType": "address",
          "name": "_swapToToken",
          "type": "address"
        },
        {
          "internalType": "address",
          "name": "_poolAddress",
          "type": "address"
        },
        {
          "internalType": "address",
          "name": "_uniRouter",
          "type": "address"
        },
        {
          "internalType": "uint256",
          "name": "_triggerFee",
          "type": "uint256"
        },
        {
          "internalType": "address[]",
          "name": "_payees",
          "type": "address[]"
        },
        {
          "internalType": "uint256[]",
          "name": "_shares",
          "type": "uint256[]"
        }
      ],
      "stateMutability": "nonpayable",
      "type": "constructor"
    },
    {
      "anonymous": false,
      "inputs": [
        {
          "indexed": false,
          "internalType": "address",
          "name": "triggerAccount",
          "type": "address"
        },
        {
          "indexed": false,
          "internalType": "contract IERC20",
          "name": "swapTokenFrom",
          "type": "address"
        },
        {
          "indexed": false,
          "internalType": "contract IERC20",
          "name": "swapTokenTo",
          "type": "address"
        },
        {
          "indexed": false,
          "internalType": "uint256",
          "name": "amountTokenFrom",
          "type": "uint256"
        },
        {
          "indexed": false,
          "internalType": "uint256",
          "name": "amountTokenTo",
          "type": "uint256"
        },
        {
          "indexed": false,
          "internalType": "address[]",
          "name": "recievedAddresses",
          "type": "address[]"
        }
      ],
      "name": "FeeConsolidatation",
      "type": "event"
    },
    {
      "anonymous": false,
      "inputs": [
        {
          "indexed": true,
          "internalType": "address",
          "name": "previousOwner",
          "type": "address"
        },
        {
          "indexed": true,
          "internalType": "address",
          "name": "newOwner",
          "type": "address"
        }
      ],
      "name": "OwnershipTransferred",
      "type": "event"
    },
    {
      "anonymous": false,
      "inputs": [
        {
          "indexed": false,
          "internalType": "address",
          "name": "account",
          "type": "address"
        },
        {
          "indexed": false,
          "internalType": "uint256",
          "name": "shares",
          "type": "uint256"
        }
      ],
      "name": "PayeeAdded",
      "type": "event"
    },
    {
      "anonymous": false,
      "inputs": [
        {
          "indexed": false,
          "internalType": "address",
          "name": "account",
          "type": "address"
        }
      ],
      "name": "PayeeRemoved",
      "type": "event"
    },
    {
      "anonymous": false,
      "inputs": [
        {
          "indexed": false,
          "internalType": "address",
          "name": "from",
          "type": "address"
        },
        {
          "indexed": false,
          "internalType": "uint256",
          "name": "amount",
          "type": "uint256"
        }
      ],
      "name": "PaymentReceived",
      "type": "event"
    },
    {
      "anonymous": false,
      "inputs": [
        {
          "indexed": false,
          "internalType": "address",
          "name": "to",
          "type": "address"
        },
        {
          "indexed": false,
          "internalType": "uint256",
          "name": "amount",
          "type": "uint256"
        }
      ],
      "name": "PaymentReleased",
      "type": "event"
    },
    {
      "inputs": [
        {
          "internalType": "address",
          "name": "_account",
          "type": "address"
        },
        {
          "internalType": "uint256",
          "name": "_shares",
          "type": "uint256"
        }
      ],
      "name": "addPayee",
      "outputs": [],
      "stateMutability": "nonpayable",
      "type": "function"
    },
    {
      "inputs": [
        {
          "internalType": "address",
          "name": "_swapFromToken",
          "type": "address"
        },
        {
          "internalType": "uint256",
          "name": "_amountOutMin",
          "type": "uint256"
        },
        {
          "internalType": "address[]",
          "name": "_path",
          "type": "address[]"
        }
      ],
      "name": "convertAndTransfer",
      "outputs": [],
      "stateMutability": "nonpayable",
      "type": "function"
    },
    {
      "inputs": [],
      "name": "owner",
      "outputs": [
        {
          "internalType": "address",
          "name": "",
          "type": "address"
        }
      ],
      "stateMutability": "view",
      "type": "function"
    },
    {
      "inputs": [
        {
          "internalType": "uint256",
          "name": "index",
          "type": "uint256"
        }
      ],
      "name": "payee",
      "outputs": [
        {
          "internalType": "address",
          "name": "",
          "type": "address"
        }
      ],
      "stateMutability": "view",
      "type": "function"
    },
    {
      "inputs": [],
      "name": "poolAddress",
      "outputs": [
        {
          "internalType": "address",
          "name": "",
          "type": "address"
        }
      ],
      "stateMutability": "view",
      "type": "function"
    },
    {
      "inputs": [
        {
          "internalType": "address",
          "name": "_account",
          "type": "address"
        },
        {
          "internalType": "uint256",
          "name": "_index",
          "type": "uint256"
        }
      ],
      "name": "removePayee",
      "outputs": [],
      "stateMutability": "nonpayable",
      "type": "function"
    },
    {
      "inputs": [],
      "name": "renounceOwnership",
      "outputs": [],
      "stateMutability": "nonpayable",
      "type": "function"
    },
    {
      "inputs": [
        {
          "internalType": "address",
          "name": "_poolAddress",
          "type": "address"
        }
      ],
      "name": "setPoolAddress",
      "outputs": [],
      "stateMutability": "nonpayable",
      "type": "function"
    },
    {
      "inputs": [
        {
          "internalType": "bool",
          "name": "_switch",
          "type": "bool"
        }
      ],
      "name": "setStakeActive",
      "outputs": [],
      "stateMutability": "nonpayable",
      "type": "function"
    },
    {
      "inputs": [
        {
          "internalType": "address",
          "name": "_stakeAddress",
          "type": "address"
        }
      ],
      "name": "setStakeAddress",
      "outputs": [],
      "stateMutability": "nonpayable",
      "type": "function"
    },
    {
      "inputs": [
        {
          "internalType": "uint256",
          "name": "_stakeThreshold",
          "type": "uint256"
        }
      ],
      "name": "setStakeThreshold",
      "outputs": [],
      "stateMutability": "nonpayable",
      "type": "function"
    },
    {
      "inputs": [
        {
          "internalType": "address",
          "name": "_swapToToken",
          "type": "address"
        }
      ],
      "name": "setSwapToToken",
      "outputs": [],
      "stateMutability": "nonpayable",
      "type": "function"
    },
    {
      "inputs": [
        {
          "internalType": "uint256",
          "name": "_triggerFee",
          "type": "uint256"
        }
      ],
      "name": "setTriggerFee",
      "outputs": [],
      "stateMutability": "nonpayable",
      "type": "function"
    },
    {
      "inputs": [
        {
          "internalType": "address",
          "name": "account",
          "type": "address"
        }
      ],
      "name": "shares",
      "outputs": [
        {
          "internalType": "uint256",
          "name": "",
          "type": "uint256"
        }
      ],
      "stateMutability": "view",
      "type": "function"
    },
    {
      "inputs": [],
      "name": "stakeActive",
      "outputs": [
        {
          "internalType": "bool",
          "name": "",
          "type": "bool"
        }
      ],
      "stateMutability": "view",
      "type": "function"
    },
    {
      "inputs": [],
      "name": "stakeAddress",
      "outputs": [
        {
          "internalType": "address",
          "name": "",
          "type": "address"
        }
      ],
      "stateMutability": "view",
      "type": "function"
    },
    {
      "inputs": [],
      "name": "stakeThreshold",
      "outputs": [
        {
          "internalType": "uint256",
          "name": "",
          "type": "uint256"
        }
      ],
      "stateMutability": "view",
      "type": "function"
    },
    {
      "inputs": [],
      "name": "swapToToken",
      "outputs": [
        {
          "internalType": "address",
          "name": "",
          "type": "address"
        }
      ],
      "stateMutability": "view",
      "type": "function"
    },
    {
      "inputs": [],
      "name": "totalShares",
      "outputs": [
        {
          "internalType": "uint256",
          "name": "",
          "type": "uint256"
        }
      ],
      "stateMutability": "view",
      "type": "function"
    },
    {
      "inputs": [
        {
          "internalType": "address",
          "name": "newOwner",
          "type": "address"
        }
      ],
      "name": "transferOwnership",
      "outputs": [],
      "stateMutability": "nonpayable",
      "type": "function"
    },
    {
      "inputs": [],
      "name": "triggerFee",
      "outputs": [
        {
          "internalType": "uint256",
          "name": "",
          "type": "uint256"
        }
      ],
      "stateMutability": "view",
      "type": "function"
    },
    {
      "inputs": [],
      "name": "uniRouter",
      "outputs": [
        {
          "internalType": "address",
          "name": "",
          "type": "address"
        }
      ],
      "stateMutability": "view",
      "type": "function"
    }
  ],
  "bytecode": "0x60a06040523480156200001157600080fd5b50604051620033a6380380620033a68339818101604052810190620000379190620006e5565b8181620000596200004d6200026d60201b60201c565b6200027560201b60201c565b8051825114620000a0576040517f08c379a00000000000000000000000000000000000000000000000000000000081526004016200009790620009da565b60405180910390fd5b6000825111620000e7576040517f08c379a0000000000000000000000000000000000000000000000000000000008152600401620000de9062000a1e565b60405180910390fd5b60005b82518110156200019e576200018883828151811062000132577f4e487b7100000000000000000000000000000000000000000000000000000000600052603260045260246000fd5b602002602001015183838151811062000174577f4e487b7100000000000000000000000000000000000000000000000000000000600052603260045260246000fd5b60200260200101516200033960201b60201c565b8080620001959062000ba0565b915050620000ea565b50505085600460006101000a81548173ffffffffffffffffffffffffffffffffffffffff021916908373ffffffffffffffffffffffffffffffffffffffff16021790555084600560006101000a81548173ffffffffffffffffffffffffffffffffffffffff021916908373ffffffffffffffffffffffffffffffffffffffff1602179055508373ffffffffffffffffffffffffffffffffffffffff1660808173ffffffffffffffffffffffffffffffffffffffff1660601b815250508260088190555050505050505062000c80565b600033905090565b60008060009054906101000a900473ffffffffffffffffffffffffffffffffffffffff169050816000806101000a81548173ffffffffffffffffffffffffffffffffffffffff021916908373ffffffffffffffffffffffffffffffffffffffff1602179055508173ffffffffffffffffffffffffffffffffffffffff168173ffffffffffffffffffffffffffffffffffffffff167f8be0079c531659141344cd1fd0a4f28419497f9722a3daafe3b4186f6b6457e060405160405180910390a35050565b600073ffffffffffffffffffffffffffffffffffffffff168273ffffffffffffffffffffffffffffffffffffffff161415620003ac576040517f08c379a0000000000000000000000000000000000000000000000000000000008152600401620003a390620009b8565b60405180910390fd5b60008111620003f2576040517f08c379a0000000000000000000000000000000000000000000000000000000008152600401620003e99062000a40565b60405180910390fd5b6000600260008473ffffffffffffffffffffffffffffffffffffffff1673ffffffffffffffffffffffffffffffffffffffff168152602001908152602001600020541462000477576040517f08c379a00000000000000000000000000000000000000000000000000000000081526004016200046e90620009fc565b60405180910390fd5b6003829080600181540180825580915050600190039060005260206000200160009091909190916101000a81548173ffffffffffffffffffffffffffffffffffffffff021916908373ffffffffffffffffffffffffffffffffffffffff16021790555080600260008473ffffffffffffffffffffffffffffffffffffffff1673ffffffffffffffffffffffffffffffffffffffff16815260200190815260200160002081905550806001546200052e919062000b05565b6001819055507f40c340f65e17194d14ddddb073d3c9f888e3cb52b5aae0c6c7706b4fbc905fac8282604051620005679291906200098b565b60405180910390a15050565b60006200058a620005848462000a96565b62000a62565b90508083825260208201905082856020860282011115620005aa57600080fd5b60005b85811015620005de5781620005c388826200065d565b845260208401935060208301925050600181019050620005ad565b5050509392505050565b6000620005ff620005f98462000ac5565b62000a62565b905080838252602082019050828560208602820111156200061f57600080fd5b60005b85811015620006535781620006388882620006ce565b84526020840193506020830192505060018101905062000622565b5050509392505050565b6000815190506200066e8162000c4c565b92915050565b600082601f8301126200068657600080fd5b81516200069884826020860162000573565b91505092915050565b600082601f830112620006b357600080fd5b8151620006c5848260208601620005e8565b91505092915050565b600081519050620006df8162000c66565b92915050565b60008060008060008060c08789031215620006ff57600080fd5b60006200070f89828a016200065d565b96505060206200072289828a016200065d565b95505060406200073589828a016200065d565b94505060606200074889828a01620006ce565b935050608087015167ffffffffffffffff8111156200076657600080fd5b6200077489828a0162000674565b92505060a087015167ffffffffffffffff8111156200079257600080fd5b620007a089828a01620006a1565b9150509295509295509295565b620007b88162000b62565b82525050565b6000620007cd602c8362000af4565b91507f5061796d656e7453706c69747465723a206163636f756e74206973207468652060008301527f7a65726f206164647265737300000000000000000000000000000000000000006020830152604082019050919050565b60006200083560328362000af4565b91507f5061796d656e7453706c69747465723a2070617965657320616e64207368617260008301527f6573206c656e677468206d69736d6174636800000000000000000000000000006020830152604082019050919050565b60006200089d602b8362000af4565b91507f5061796d656e7453706c69747465723a206163636f756e7420616c726561647960008301527f20686173207368617265730000000000000000000000000000000000000000006020830152604082019050919050565b600062000905601a8362000af4565b91507f5061796d656e7453706c69747465723a206e6f207061796565730000000000006000830152602082019050919050565b600062000947601d8362000af4565b91507f5061796d656e7453706c69747465723a207368617265732061726520300000006000830152602082019050919050565b620009858162000b96565b82525050565b6000604082019050620009a26000830185620007ad565b620009b160208301846200097a565b9392505050565b60006020820190508181036000830152620009d381620007be565b9050919050565b60006020820190508181036000830152620009f58162000826565b9050919050565b6000602082019050818103600083015262000a17816200088e565b9050919050565b6000602082019050818103600083015262000a3981620008f6565b9050919050565b6000602082019050818103600083015262000a5b8162000938565b9050919050565b6000604051905081810181811067ffffffffffffffff8211171562000a8c5762000a8b62000c1d565b5b8060405250919050565b600067ffffffffffffffff82111562000ab45762000ab362000c1d565b5b602082029050602081019050919050565b600067ffffffffffffffff82111562000ae35762000ae262000c1d565b5b602082029050602081019050919050565b600082825260208201905092915050565b600062000b128262000b96565b915062000b1f8362000b96565b9250827fffffffffffffffffffffffffffffffffffffffffffffffffffffffffffffffff0382111562000b575762000b5662000bee565b5b828201905092915050565b600062000b6f8262000b76565b9050919050565b600073ffffffffffffffffffffffffffffffffffffffff82169050919050565b6000819050919050565b600062000bad8262000b96565b91507fffffffffffffffffffffffffffffffffffffffffffffffffffffffffffffffff82141562000be35762000be262000bee565b5b600182019050919050565b7f4e487b7100000000000000000000000000000000000000000000000000000000600052601160045260246000fd5b7f4e487b7100000000000000000000000000000000000000000000000000000000600052604160045260246000fd5b62000c578162000b62565b811462000c6357600080fd5b50565b62000c718162000b96565b811462000c7d57600080fd5b50565b60805160601c6126f962000cad6000396000818161087a01528181610c95015261186d01526126f96000f3fe608060405234801561001057600080fd5b50600436106101425760003560e01c80638da5cb5b116100b8578063ce7c2ac21161007c578063ce7c2ac214610317578063e9e15b4f14610347578063f11f77f914610363578063f2fde38b14610381578063f68371571461039d578063fd712848146103bb57610142565b80638da5cb5b1461028557806390b2dd57146102a3578063a0e47bf6146102c1578063b21285ce146102df578063b6a9a334146102fb57610142565b8063715018a61161010a578063715018a6146101d757806373b411cb146101e157806376aa3fef146101ff57806384e45c3d1461021b57806385107367146102375780638b83209b1461025557610142565b80631755ff211461014757806318f9b0231461016557806323471d18146101815780633a98ef391461019d5780635ff162ca146101bb575b600080fd5b61014f6103d7565b60405161015c9190612121565b60405180910390f35b61017f600480360381019061017a9190611bd8565b6103fd565b005b61019b60048036038101906101969190611baf565b610487565b005b6101a5610547565b6040516101b29190612308565b60405180910390f35b6101d560048036038101906101d09190611c80565b610551565b005b6101df6105ea565b005b6101e9610672565b6040516101f69190612121565b60405180910390f35b61021960048036038101906102149190611cd2565b610698565b005b61023560048036038101906102309190611bd8565b61071e565b005b61023f6107a8565b60405161024c9190612121565b60405180910390f35b61026f600480360381019061026a9190611cd2565b6107ce565b60405161027c9190612121565b60405180910390f35b61028d61083c565b60405161029a9190612121565b60405180910390f35b6102ab610865565b6040516102b891906121cd565b60405180910390f35b6102c9610878565b6040516102d69190612121565b60405180910390f35b6102f960048036038101906102f49190611baf565b61089c565b005b61031560048036038101906103109190611cd2565b61095c565b005b610331600480360381019061032c9190611baf565b6109e2565b60405161033e9190612308565b60405180910390f35b610361600480360381019061035c9190611baf565b610a2b565b005b61036b610aeb565b6040516103789190612308565b60405180910390f35b61039b60048036038101906103969190611baf565b610af1565b005b6103a5610be9565b6040516103b29190612308565b60405180910390f35b6103d560048036038101906103d09190611c14565b610bef565b005b600560009054906101000a900473ffffffffffffffffffffffffffffffffffffffff1681565b610405610fe6565b73ffffffffffffffffffffffffffffffffffffffff1661042361083c565b73ffffffffffffffffffffffffffffffffffffffff1614610479576040517f08c379a000000000000000000000000000000000000000000000000000000000815260040161047090612248565b60405180910390fd5b6104838282610fee565b5050565b61048f610fe6565b73ffffffffffffffffffffffffffffffffffffffff166104ad61083c565b73ffffffffffffffffffffffffffffffffffffffff1614610503576040517f08c379a00000000000000000000000000000000000000000000000000000000081526004016104fa90612248565b60405180910390fd5b80600660006101000a81548173ffffffffffffffffffffffffffffffffffffffff021916908373ffffffffffffffffffffffffffffffffffffffff16021790555050565b6000600154905090565b610559610fe6565b73ffffffffffffffffffffffffffffffffffffffff1661057761083c565b73ffffffffffffffffffffffffffffffffffffffff16146105cd576040517f08c379a00000000000000000000000000000000000000000000000000000000081526004016105c490612248565b60405180910390fd5b80600960006101000a81548160ff02191690831515021790555050565b6105f2610fe6565b73ffffffffffffffffffffffffffffffffffffffff1661061061083c565b73ffffffffffffffffffffffffffffffffffffffff1614610666576040517f08c379a000000000000000000000000000000000000000000000000000000000815260040161065d90612248565b60405180910390fd5b610670600061121b565b565b600460009054906101000a900473ffffffffffffffffffffffffffffffffffffffff1681565b6106a0610fe6565b73ffffffffffffffffffffffffffffffffffffffff166106be61083c565b73ffffffffffffffffffffffffffffffffffffffff1614610714576040517f08c379a000000000000000000000000000000000000000000000000000000000815260040161070b90612248565b60405180910390fd5b8060088190555050565b610726610fe6565b73ffffffffffffffffffffffffffffffffffffffff1661074461083c565b73ffffffffffffffffffffffffffffffffffffffff161461079a576040517f08c379a000000000000000000000000000000000000000000000000000000000815260040161079190612248565b60405180910390fd5b6107a482826112df565b5050565b600660009054906101000a900473ffffffffffffffffffffffffffffffffffffffff1681565b60006003828154811061080a577f4e487b7100000000000000000000000000000000000000000000000000000000600052603260045260246000fd5b9060005260206000200160009054906101000a900473ffffffffffffffffffffffffffffffffffffffff169050919050565b60008060009054906101000a900473ffffffffffffffffffffffffffffffffffffffff16905090565b600960009054906101000a900460ff1681565b7f000000000000000000000000000000000000000000000000000000000000000081565b6108a4610fe6565b73ffffffffffffffffffffffffffffffffffffffff166108c261083c565b73ffffffffffffffffffffffffffffffffffffffff1614610918576040517f08c379a000000000000000000000000000000000000000000000000000000000815260040161090f90612248565b60405180910390fd5b80600460006101000a81548173ffffffffffffffffffffffffffffffffffffffff021916908373ffffffffffffffffffffffffffffffffffffffff16021790555050565b610964610fe6565b73ffffffffffffffffffffffffffffffffffffffff1661098261083c565b73ffffffffffffffffffffffffffffffffffffffff16146109d8576040517f08c379a00000000000000000000000000000000000000000000000000000000081526004016109cf90612248565b60405180910390fd5b8060078190555050565b6000600260008373ffffffffffffffffffffffffffffffffffffffff1673ffffffffffffffffffffffffffffffffffffffff168152602001908152602001600020549050919050565b610a33610fe6565b73ffffffffffffffffffffffffffffffffffffffff16610a5161083c565b73ffffffffffffffffffffffffffffffffffffffff1614610aa7576040517f08c379a0000000000000000000000000000000000000000000000000000000008152600401610a9e90612248565b60405180910390fd5b80600560006101000a81548173ffffffffffffffffffffffffffffffffffffffff021916908373ffffffffffffffffffffffffffffffffffffffff16021790555050565b60075481565b610af9610fe6565b73ffffffffffffffffffffffffffffffffffffffff16610b1761083c565b73ffffffffffffffffffffffffffffffffffffffff1614610b6d576040517f08c379a0000000000000000000000000000000000000000000000000000000008152600401610b6490612248565b60405180910390fd5b600073ffffffffffffffffffffffffffffffffffffffff168173ffffffffffffffffffffffffffffffffffffffff161415610bdd576040517f08c379a0000000000000000000000000000000000000000000000000000000008152600401610bd490612208565b60405180910390fd5b610be68161121b565b50565b60085481565b600960009054906101000a900460ff1615610c4d57610c0d336116db565b610c4c576040517f08c379a0000000000000000000000000000000000000000000000000000000008152600401610c43906122a8565b60405180910390fd5b5b6000610c58856117ad565b9050610c64858261184a565b6000610c91600460009054906101000a900473ffffffffffffffffffffffffffffffffffffffff166117ad565b90507f000000000000000000000000000000000000000000000000000000000000000073ffffffffffffffffffffffffffffffffffffffff16635c11d7958387878730610ce96102584261194090919063ffffffff16565b6040518763ffffffff1660e01b8152600401610d0a96959493929190612323565b600060405180830381600087803b158015610d2457600080fd5b505af1158015610d38573d6000803e3d6000fd5b505050506000610d69600460009054906101000a900473ffffffffffffffffffffffffffffffffffffffff166117ad565b90506000610d80838361195690919063ffffffff16565b90506000610dac6064610d9e6008548561196c90919063ffffffff16565b61198290919063ffffffff16565b9050610ddb33600460009054906101000a900473ffffffffffffffffffffffffffffffffffffffff1683611998565b6000610df0828461195690919063ffffffff16565b905060005b600380549050811015610f75576000610ebc6001546002600060038681548110610e48577f4e487b7100000000000000000000000000000000000000000000000000000000600052603260045260246000fd5b9060005260206000200160009054906101000a900473ffffffffffffffffffffffffffffffffffffffff1673ffffffffffffffffffffffffffffffffffffffff1673ffffffffffffffffffffffffffffffffffffffff1681526020019081526020016000205461198290919063ffffffff16565b9050610f6160038381548110610efb577f4e487b7100000000000000000000000000000000000000000000000000000000600052603260045260246000fd5b9060005260206000200160009054906101000a900473ffffffffffffffffffffffffffffffffffffffff16600460009054906101000a900473ffffffffffffffffffffffffffffffffffffffff16610f5c848761196c90919063ffffffff16565b611998565b508080610f6d906125b7565b915050610df5565b507f5d03c435d1450906d6b9b5491651a022d34c4a406481b08b4663f31e82a66747338b600460009054906101000a900473ffffffffffffffffffffffffffffffffffffffff1689876003604051610fd29695949392919061213c565b60405180910390a150505050505050505050565b600033905090565b600073ffffffffffffffffffffffffffffffffffffffff168273ffffffffffffffffffffffffffffffffffffffff16141561105e576040517f08c379a0000000000000000000000000000000000000000000000000000000008152600401611055906121e8565b60405180910390fd5b600081116110a1576040517f08c379a0000000000000000000000000000000000000000000000000000000008152600401611098906122e8565b60405180910390fd5b6000600260008473ffffffffffffffffffffffffffffffffffffffff1673ffffffffffffffffffffffffffffffffffffffff1681526020019081526020016000205414611123576040517f08c379a000000000000000000000000000000000000000000000000000000000815260040161111a906122c8565b60405180910390fd5b6003829080600181540180825580915050600190039060005260206000200160009091909190916101000a81548173ffffffffffffffffffffffffffffffffffffffff021916908373ffffffffffffffffffffffffffffffffffffffff16021790555080600260008473ffffffffffffffffffffffffffffffffffffffff1673ffffffffffffffffffffffffffffffffffffffff16815260200190815260200160002081905550806001546111d891906123fc565b6001819055507f40c340f65e17194d14ddddb073d3c9f888e3cb52b5aae0c6c7706b4fbc905fac828260405161120f9291906121a4565b60405180910390a15050565b60008060009054906101000a900473ffffffffffffffffffffffffffffffffffffffff169050816000806101000a81548173ffffffffffffffffffffffffffffffffffffffff021916908373ffffffffffffffffffffffffffffffffffffffff1602179055508173ffffffffffffffffffffffffffffffffffffffff168173ffffffffffffffffffffffffffffffffffffffff167f8be0079c531659141344cd1fd0a4f28419497f9722a3daafe3b4186f6b6457e060405160405180910390a35050565b600073ffffffffffffffffffffffffffffffffffffffff168273ffffffffffffffffffffffffffffffffffffffff16141561134f576040517f08c379a0000000000000000000000000000000000000000000000000000000008152600401611346906121e8565b60405180910390fd5b6000600260008473ffffffffffffffffffffffffffffffffffffffff1673ffffffffffffffffffffffffffffffffffffffff16815260200190815260200160002054116113d1576040517f08c379a00000000000000000000000000000000000000000000000000000000081526004016113c8906122e8565b60405180910390fd5b6003818154811061140b577f4e487b7100000000000000000000000000000000000000000000000000000000600052603260045260246000fd5b9060005260206000200160009054906101000a900473ffffffffffffffffffffffffffffffffffffffff1673ffffffffffffffffffffffffffffffffffffffff168273ffffffffffffffffffffffffffffffffffffffff16146114a3576040517f08c379a000000000000000000000000000000000000000000000000000000000815260040161149a90612268565b60405180910390fd5b600260008373ffffffffffffffffffffffffffffffffffffffff1673ffffffffffffffffffffffffffffffffffffffff168152602001908152602001600020546001546114f091906124dd565b6001819055506000600260008473ffffffffffffffffffffffffffffffffffffffff1673ffffffffffffffffffffffffffffffffffffffff168152602001908152602001600020819055506003600160038054905061154f91906124dd565b81548110611586577f4e487b7100000000000000000000000000000000000000000000000000000000600052603260045260246000fd5b9060005260206000200160009054906101000a900473ffffffffffffffffffffffffffffffffffffffff16600382815481106115eb577f4e487b7100000000000000000000000000000000000000000000000000000000600052603260045260246000fd5b9060005260206000200160006101000a81548173ffffffffffffffffffffffffffffffffffffffff021916908373ffffffffffffffffffffffffffffffffffffffff160217905550600380548061166b577f4e487b7100000000000000000000000000000000000000000000000000000000600052603160045260246000fd5b6001900381819060005260206000200160006101000a81549073ffffffffffffffffffffffffffffffffffffffff021916905590557fc2ee819acfe1baf117c2aac9d3f627a864f075d2fecc990eebd82d59f2662605826040516116cf9190612121565b60405180910390a15050565b600080600660009054906101000a900473ffffffffffffffffffffffffffffffffffffffff16905060006007548273ffffffffffffffffffffffffffffffffffffffff166370a08231866040518263ffffffff1660e01b81526004016117419190612121565b60206040518083038186803b15801561175957600080fd5b505afa15801561176d573d6000803e3d6000fd5b505050506040513d601f19601f820116820180604052508101906117919190611cfb565b101561179e5760006117a1565b60015b90508092505050919050565b60008082905060008173ffffffffffffffffffffffffffffffffffffffff166370a08231306040518263ffffffff1660e01b81526004016117ee9190612121565b60206040518083038186803b15801561180657600080fd5b505afa15801561181a573d6000803e3d6000fd5b505050506040513d601f19601f8201168201806040525081019061183e9190611cfb565b90508092505050919050565b60008290508073ffffffffffffffffffffffffffffffffffffffff1663095ea7b37f0000000000000000000000000000000000000000000000000000000000000000846040518363ffffffff1660e01b81526004016118aa9291906121a4565b602060405180830381600087803b1580156118c457600080fd5b505af11580156118d8573d6000803e3d6000fd5b505050506040513d601f19601f820116820180604052508101906118fc9190611ca9565b61193b576040517f08c379a000000000000000000000000000000000000000000000000000000000815260040161193290612288565b60405180910390fd5b505050565b6000818361194e91906123fc565b905092915050565b6000818361196491906124dd565b905092915050565b6000818361197a9190612483565b905092915050565b600081836119909190612452565b905092915050565b6000829050818173ffffffffffffffffffffffffffffffffffffffff166370a08231306040518263ffffffff1660e01b81526004016119d79190612121565b60206040518083038186803b1580156119ef57600080fd5b505afa158015611a03573d6000803e3d6000fd5b505050506040513d601f19601f82011682018060405250810190611a279190611cfb565b1015611a68576040517f08c379a0000000000000000000000000000000000000000000000000000000008152600401611a5f90612228565b60405180910390fd5b8073ffffffffffffffffffffffffffffffffffffffff1663a9059cbb85846040518363ffffffff1660e01b8152600401611aa39291906121a4565b602060405180830381600087803b158015611abd57600080fd5b505af1158015611ad1573d6000803e3d6000fd5b505050506040513d601f19601f82011682018060405250810190611af59190611ca9565b5050505050565b600081359050611b0b8161267e565b92915050565b60008083601f840112611b2357600080fd5b8235905067ffffffffffffffff811115611b3c57600080fd5b602083019150836020820283011115611b5457600080fd5b9250929050565b600081359050611b6a81612695565b92915050565b600081519050611b7f81612695565b92915050565b600081359050611b94816126ac565b92915050565b600081519050611ba9816126ac565b92915050565b600060208284031215611bc157600080fd5b6000611bcf84828501611afc565b91505092915050565b60008060408385031215611beb57600080fd5b6000611bf985828601611afc565b9250506020611c0a85828601611b85565b9150509250929050565b60008060008060608587031215611c2a57600080fd5b6000611c3887828801611afc565b9450506020611c4987828801611b85565b935050604085013567ffffffffffffffff811115611c6657600080fd5b611c7287828801611b11565b925092505092959194509250565b600060208284031215611c9257600080fd5b6000611ca084828501611b5b565b91505092915050565b600060208284031215611cbb57600080fd5b6000611cc984828501611b70565b91505092915050565b600060208284031215611ce457600080fd5b6000611cf284828501611b85565b91505092915050565b600060208284031215611d0d57600080fd5b6000611d1b84828501611b9a565b91505092915050565b6000611d308383611d3c565b60208301905092915050565b611d4581612531565b82525050565b611d5481612531565b82525050565b6000611d6683856123c3565b9350611d718261237f565b8060005b85811015611daa57611d8782846123e5565b611d918882611d24565b9750611d9c836123a9565b925050600181019050611d75565b5085925050509392505050565b6000611dc28261239e565b611dcc81856123c3565b9350611dd783612389565b8060005b83811015611e0f57611dec8261265e565b611df68882611d24565b9750611e01836123b6565b925050600181019050611ddb565b5085935050505092915050565b611e2581612543565b82525050565b611e3481612579565b82525050565b6000611e47602c836123d4565b91507f5061796d656e7453706c69747465723a206163636f756e74206973207468652060008301527f7a65726f206164647265737300000000000000000000000000000000000000006020830152604082019050919050565b6000611ead6026836123d4565b91507f4f776e61626c653a206e6577206f776e657220697320746865207a65726f206160008301527f64647265737300000000000000000000000000000000000000000000000000006020830152604082019050919050565b6000611f13601c836123d4565b91507f4e6f7420656e6f7567682066756e647320746f207472616e73666572000000006000830152602082019050919050565b6000611f536020836123d4565b91507f4f776e61626c653a2063616c6c6572206973206e6f7420746865206f776e65726000830152602082019050919050565b6000611f936039836123d4565b91507f5061796d656e7453706c69747465723a206163636f756e7420646f6573206e6f60008301527f74206d6174636820706179656520617272617920696e646578000000000000006020830152604082019050919050565b6000611ff9600f836123d4565b91507f617070726f7665206661696c65642e00000000000000000000000000000000006000830152602082019050919050565b60006120396018836123d4565b91507f4e6f7420656e6f756768207374616b656420746f6b656e7300000000000000006000830152602082019050919050565b6000612079602b836123d4565b91507f5061796d656e7453706c69747465723a206163636f756e7420616c726561647960008301527f20686173207368617265730000000000000000000000000000000000000000006020830152604082019050919050565b60006120df601d836123d4565b91507f5061796d656e7453706c69747465723a207368617265732061726520300000006000830152602082019050919050565b61211b8161256f565b82525050565b60006020820190506121366000830184611d4b565b92915050565b600060c0820190506121516000830189611d4b565b61215e6020830188611e2b565b61216b6040830187611e2b565b6121786060830186612112565b6121856080830185612112565b81810360a08301526121978184611db7565b9050979650505050505050565b60006040820190506121b96000830185611d4b565b6121c66020830184612112565b9392505050565b60006020820190506121e26000830184611e1c565b92915050565b6000602082019050818103600083015261220181611e3a565b9050919050565b6000602082019050818103600083015261222181611ea0565b9050919050565b6000602082019050818103600083015261224181611f06565b9050919050565b6000602082019050818103600083015261226181611f46565b9050919050565b6000602082019050818103600083015261228181611f86565b9050919050565b600060208201905081810360008301526122a181611fec565b9050919050565b600060208201905081810360008301526122c18161202c565b9050919050565b600060208201905081810360008301526122e18161206c565b9050919050565b60006020820190508181036000830152612301816120d2565b9050919050565b600060208201905061231d6000830184612112565b92915050565b600060a0820190506123386000830189612112565b6123456020830188612112565b8181036040830152612358818688611d5a565b90506123676060830185611d4b565b6123746080830184612112565b979650505050505050565b6000819050919050565b60008190508160005260206000209050919050565b600081549050919050565b6000602082019050919050565b6000600182019050919050565b600082825260208201905092915050565b600082825260208201905092915050565b60006123f46020840184611afc565b905092915050565b60006124078261256f565b91506124128361256f565b9250827fffffffffffffffffffffffffffffffffffffffffffffffffffffffffffffffff0382111561244757612446612600565b5b828201905092915050565b600061245d8261256f565b91506124688361256f565b9250826124785761247761262f565b5b828204905092915050565b600061248e8261256f565b91506124998361256f565b9250817fffffffffffffffffffffffffffffffffffffffffffffffffffffffffffffffff04831182151516156124d2576124d1612600565b5b828202905092915050565b60006124e88261256f565b91506124f38361256f565b92508282101561250657612505612600565b5b828203905092915050565b600073ffffffffffffffffffffffffffffffffffffffff82169050919050565b600061253c8261254f565b9050919050565b60008115159050919050565b600073ffffffffffffffffffffffffffffffffffffffff82169050919050565b6000819050919050565b60006125848261258b565b9050919050565b60006125968261254f565b9050919050565b60006125b06125ab83612671565b612511565b9050919050565b60006125c28261256f565b91507fffffffffffffffffffffffffffffffffffffffffffffffffffffffffffffffff8214156125f5576125f4612600565b5b600182019050919050565b7f4e487b7100000000000000000000000000000000000000000000000000000000600052601160045260246000fd5b7f4e487b7100000000000000000000000000000000000000000000000000000000600052601260045260246000fd5b600061266a825461259d565b9050919050565b60008160001c9050919050565b61268781612531565b811461269257600080fd5b50565b61269e81612543565b81146126a957600080fd5b50565b6126b58161256f565b81146126c057600080fd5b5056fea264697066735822122081a7027b7ca528b7feb1e2615aae531b133a7cbacfc1c584723c8f5179aff59064736f6c63430008000033",
  "linkReferences": {},
  "deployedLinkReferences": {}
}