{
  "_format": "hh-sol-artifact-1",
  "contractName": "TokenPaymentSplitter",
  "sourceName": "contracts/TokenPaymentSplitter.sol",
  "abi": [
    {
      "inputs": [
        {
          "internalType": "address[]",
          "name": "payees",
          "type": "address[]"
        },
        {
          "internalType": "uint256[]",
          "name": "shares_",
          "type": "uint256[]"
        }
      ],
      "stateMutability": "payable",
      "type": "constructor"
    },
    {
      "anonymous": false,
      "inputs": [
        {
          "indexed": false,
          "internalType": "address",
          "name": "account",
          "type": "address"
        },
        {
          "indexed": false,
          "internalType": "uint256",
          "name": "shares",
          "type": "uint256"
        }
      ],
      "name": "PayeeAdded",
      "type": "event"
    },
    {
      "anonymous": false,
      "inputs": [
        {
          "indexed": false,
          "internalType": "address",
          "name": "account",
          "type": "address"
        }
      ],
      "name": "PayeeRemoved",
      "type": "event"
    },
    {
      "anonymous": false,
      "inputs": [
        {
          "indexed": false,
          "internalType": "address",
          "name": "from",
          "type": "address"
        },
        {
          "indexed": false,
          "internalType": "uint256",
          "name": "amount",
          "type": "uint256"
        }
      ],
      "name": "PaymentReceived",
      "type": "event"
    },
    {
      "anonymous": false,
      "inputs": [
        {
          "indexed": false,
          "internalType": "address",
          "name": "to",
          "type": "address"
        },
        {
          "indexed": false,
          "internalType": "uint256",
          "name": "amount",
          "type": "uint256"
        }
      ],
      "name": "PaymentReleased",
      "type": "event"
    },
    {
      "inputs": [
        {
          "internalType": "uint256",
          "name": "index",
          "type": "uint256"
        }
      ],
      "name": "payee",
      "outputs": [
        {
          "internalType": "address",
          "name": "",
          "type": "address"
        }
      ],
      "stateMutability": "view",
      "type": "function"
    },
    {
      "inputs": [
        {
          "internalType": "address",
          "name": "account",
          "type": "address"
        }
      ],
      "name": "shares",
      "outputs": [
        {
          "internalType": "uint256",
          "name": "",
          "type": "uint256"
        }
      ],
      "stateMutability": "view",
      "type": "function"
    },
    {
      "inputs": [],
      "name": "totalShares",
      "outputs": [
        {
          "internalType": "uint256",
          "name": "",
          "type": "uint256"
        }
      ],
      "stateMutability": "view",
      "type": "function"
    }
  ],
  "bytecode": "0x608060405260405162000d6d38038062000d6d833981810160405281019062000029919062000523565b805182511462000070576040517f08c379a00000000000000000000000000000000000000000000000000000000081526004016200006790620007c3565b60405180910390fd5b6000825111620000b7576040517f08c379a0000000000000000000000000000000000000000000000000000000008152600401620000ae9062000807565b60405180910390fd5b60005b82518110156200016e576200015883828151811062000102577f4e487b7100000000000000000000000000000000000000000000000000000000600052603260045260246000fd5b602002602001015183838151811062000144577f4e487b7100000000000000000000000000000000000000000000000000000000600052603260045260246000fd5b60200260200101516200017760201b60201c565b8080620001659062000989565b915050620000ba565b50505062000a69565b600073ffffffffffffffffffffffffffffffffffffffff168273ffffffffffffffffffffffffffffffffffffffff161415620001ea576040517f08c379a0000000000000000000000000000000000000000000000000000000008152600401620001e190620007a1565b60405180910390fd5b6000811162000230576040517f08c379a0000000000000000000000000000000000000000000000000000000008152600401620002279062000829565b60405180910390fd5b6000600160008473ffffffffffffffffffffffffffffffffffffffff1673ffffffffffffffffffffffffffffffffffffffff1681526020019081526020016000205414620002b5576040517f08c379a0000000000000000000000000000000000000000000000000000000008152600401620002ac90620007e5565b60405180910390fd5b6002829080600181540180825580915050600190039060005260206000200160009091909190916101000a81548173ffffffffffffffffffffffffffffffffffffffff021916908373ffffffffffffffffffffffffffffffffffffffff16021790555080600160008473ffffffffffffffffffffffffffffffffffffffff1673ffffffffffffffffffffffffffffffffffffffff16815260200190815260200160002081905550806000546200036c9190620008ee565b6000819055507f40c340f65e17194d14ddddb073d3c9f888e3cb52b5aae0c6c7706b4fbc905fac8282604051620003a592919062000774565b60405180910390a15050565b6000620003c8620003c2846200087f565b6200084b565b90508083825260208201905082856020860282011115620003e857600080fd5b60005b858110156200041c57816200040188826200049b565b845260208401935060208301925050600181019050620003eb565b5050509392505050565b60006200043d6200043784620008ae565b6200084b565b905080838252602082019050828560208602820111156200045d57600080fd5b60005b858110156200049157816200047688826200050c565b84526020840193506020830192505060018101905062000460565b5050509392505050565b600081519050620004ac8162000a35565b92915050565b600082601f830112620004c457600080fd5b8151620004d6848260208601620003b1565b91505092915050565b600082601f830112620004f157600080fd5b81516200050384826020860162000426565b91505092915050565b6000815190506200051d8162000a4f565b92915050565b600080604083850312156200053757600080fd5b600083015167ffffffffffffffff8111156200055257600080fd5b6200056085828601620004b2565b925050602083015167ffffffffffffffff8111156200057e57600080fd5b6200058c85828601620004df565b9150509250929050565b620005a1816200094b565b82525050565b6000620005b6602c83620008dd565b91507f5061796d656e7453706c69747465723a206163636f756e74206973207468652060008301527f7a65726f206164647265737300000000000000000000000000000000000000006020830152604082019050919050565b60006200061e603283620008dd565b91507f5061796d656e7453706c69747465723a2070617965657320616e64207368617260008301527f6573206c656e677468206d69736d6174636800000000000000000000000000006020830152604082019050919050565b600062000686602b83620008dd565b91507f5061796d656e7453706c69747465723a206163636f756e7420616c726561647960008301527f20686173207368617265730000000000000000000000000000000000000000006020830152604082019050919050565b6000620006ee601a83620008dd565b91507f5061796d656e7453706c69747465723a206e6f207061796565730000000000006000830152602082019050919050565b600062000730601d83620008dd565b91507f5061796d656e7453706c69747465723a207368617265732061726520300000006000830152602082019050919050565b6200076e816200097f565b82525050565b60006040820190506200078b600083018562000596565b6200079a602083018462000763565b9392505050565b60006020820190508181036000830152620007bc81620005a7565b9050919050565b60006020820190508181036000830152620007de816200060f565b9050919050565b60006020820190508181036000830152620008008162000677565b9050919050565b600060208201905081810360008301526200082281620006df565b9050919050565b60006020820190508181036000830152620008448162000721565b9050919050565b6000604051905081810181811067ffffffffffffffff8211171562000875576200087462000a06565b5b8060405250919050565b600067ffffffffffffffff8211156200089d576200089c62000a06565b5b602082029050602081019050919050565b600067ffffffffffffffff821115620008cc57620008cb62000a06565b5b602082029050602081019050919050565b600082825260208201905092915050565b6000620008fb826200097f565b915062000908836200097f565b9250827fffffffffffffffffffffffffffffffffffffffffffffffffffffffffffffffff0382111562000940576200093f620009d7565b5b828201905092915050565b600062000958826200095f565b9050919050565b600073ffffffffffffffffffffffffffffffffffffffff82169050919050565b6000819050919050565b600062000996826200097f565b91507fffffffffffffffffffffffffffffffffffffffffffffffffffffffffffffffff821415620009cc57620009cb620009d7565b5b600182019050919050565b7f4e487b7100000000000000000000000000000000000000000000000000000000600052601160045260246000fd5b7f4e487b7100000000000000000000000000000000000000000000000000000000600052604160045260246000fd5b62000a40816200094b565b811462000a4c57600080fd5b50565b62000a5a816200097f565b811462000a6657600080fd5b50565b6102f48062000a796000396000f3fe608060405234801561001057600080fd5b50600436106100415760003560e01c80633a98ef39146100465780638b83209b14610064578063ce7c2ac214610094575b600080fd5b61004e6100c4565b60405161005b9190610239565b60405180910390f35b61007e600480360381019061007991906101d7565b6100cd565b60405161008b919061021e565b60405180910390f35b6100ae60048036038101906100a991906101ae565b61013b565b6040516100bb9190610239565b60405180910390f35b60008054905090565b600060028281548110610109577f4e487b7100000000000000000000000000000000000000000000000000000000600052603260045260246000fd5b9060005260206000200160009054906101000a900473ffffffffffffffffffffffffffffffffffffffff169050919050565b6000600160008373ffffffffffffffffffffffffffffffffffffffff1673ffffffffffffffffffffffffffffffffffffffff168152602001908152602001600020549050919050565b60008135905061019381610290565b92915050565b6000813590506101a8816102a7565b92915050565b6000602082840312156101c057600080fd5b60006101ce84828501610184565b91505092915050565b6000602082840312156101e957600080fd5b60006101f784828501610199565b91505092915050565b61020981610254565b82525050565b61021881610286565b82525050565b60006020820190506102336000830184610200565b92915050565b600060208201905061024e600083018461020f565b92915050565b600061025f82610266565b9050919050565b600073ffffffffffffffffffffffffffffffffffffffff82169050919050565b6000819050919050565b61029981610254565b81146102a457600080fd5b50565b6102b081610286565b81146102bb57600080fd5b5056fea2646970667358221220f45effb2679a580a60403d9a669173c94b9fe732e8bb2d42ef3c8043234b120264736f6c63430008000033",
  "linkReferences": {},
  "deployedLinkReferences": {}
}