{
  "contractName": "FeeReceiver",
  "abi": [
    {
      "inputs": [
        {
          "internalType": "address",
          "name": "_swapToToken",
          "type": "address"
        },
        {
          "internalType": "address",
          "name": "_poolAddress",
          "type": "address"
        },
        {
          "internalType": "address",
          "name": "_oneSplitAudit",
          "type": "address"
        },
        {
          "internalType": "uint256",
          "name": "_triggerFee",
          "type": "uint256"
        },
        {
          "internalType": "address[]",
          "name": "payees",
          "type": "address[]"
        },
        {
          "internalType": "uint256[]",
          "name": "shares_",
          "type": "uint256[]"
        }
      ],
      "stateMutability": "nonpayable",
      "type": "constructor"
    },
    {
      "anonymous": false,
      "inputs": [
        {
          "indexed": false,
          "internalType": "address",
          "name": "triggerAccount",
          "type": "address"
        },
        {
          "indexed": false,
          "internalType": "contract IERC20",
          "name": "swapFrom",
          "type": "address"
        },
        {
          "indexed": false,
          "internalType": "contract IERC20",
          "name": "swapTo",
          "type": "address"
        },
        {
          "indexed": false,
          "internalType": "uint256",
          "name": "amount",
          "type": "uint256"
        },
        {
          "indexed": false,
          "internalType": "address[]",
          "name": "recievedAddresses",
          "type": "address[]"
        }
      ],
      "name": "FeeConsolidatation",
      "type": "event"
    },
    {
      "anonymous": false,
      "inputs": [
        {
          "indexed": true,
          "internalType": "address",
          "name": "previousOwner",
          "type": "address"
        },
        {
          "indexed": true,
          "internalType": "address",
          "name": "newOwner",
          "type": "address"
        }
      ],
      "name": "OwnershipTransferred",
      "type": "event"
    },
    {
      "anonymous": false,
      "inputs": [
        {
          "indexed": false,
          "internalType": "address",
          "name": "account",
          "type": "address"
        },
        {
          "indexed": false,
          "internalType": "uint256",
          "name": "shares",
          "type": "uint256"
        }
      ],
      "name": "PayeeAdded",
      "type": "event"
    },
    {
      "anonymous": false,
      "inputs": [
        {
          "indexed": false,
          "internalType": "address",
          "name": "account",
          "type": "address"
        }
      ],
      "name": "PayeeRemoved",
      "type": "event"
    },
    {
      "anonymous": false,
      "inputs": [
        {
          "indexed": false,
          "internalType": "address",
          "name": "from",
          "type": "address"
        },
        {
          "indexed": false,
          "internalType": "uint256",
          "name": "amount",
          "type": "uint256"
        }
      ],
      "name": "PaymentReceived",
      "type": "event"
    },
    {
      "anonymous": false,
      "inputs": [
        {
          "indexed": false,
          "internalType": "address",
          "name": "to",
          "type": "address"
        },
        {
          "indexed": false,
          "internalType": "uint256",
          "name": "amount",
          "type": "uint256"
        }
      ],
      "name": "PaymentReleased",
      "type": "event"
    },
    {
      "inputs": [],
      "name": "oneSplitAudit",
      "outputs": [
        {
          "internalType": "address",
          "name": "",
          "type": "address"
        }
      ],
      "stateMutability": "view",
      "type": "function",
      "constant": true
    },
    {
      "inputs": [],
      "name": "owner",
      "outputs": [
        {
          "internalType": "address",
          "name": "",
          "type": "address"
        }
      ],
      "stateMutability": "view",
      "type": "function",
      "constant": true
    },
    {
      "inputs": [
        {
          "internalType": "uint256",
          "name": "index",
          "type": "uint256"
        }
      ],
      "name": "payee",
      "outputs": [
        {
          "internalType": "address",
          "name": "",
          "type": "address"
        }
      ],
      "stateMutability": "view",
      "type": "function",
      "constant": true
    },
    {
      "inputs": [],
      "name": "poolAddress",
      "outputs": [
        {
          "internalType": "address",
          "name": "",
          "type": "address"
        }
      ],
      "stateMutability": "view",
      "type": "function",
      "constant": true
    },
    {
      "inputs": [],
      "name": "renounceOwnership",
      "outputs": [],
      "stateMutability": "nonpayable",
      "type": "function"
    },
    {
      "inputs": [
        {
          "internalType": "address",
          "name": "account",
          "type": "address"
        }
      ],
      "name": "shares",
      "outputs": [
        {
          "internalType": "uint256",
          "name": "",
          "type": "uint256"
        }
      ],
      "stateMutability": "view",
      "type": "function",
      "constant": true
    },
    {
      "inputs": [],
      "name": "swapToToken",
      "outputs": [
        {
          "internalType": "address",
          "name": "",
          "type": "address"
        }
      ],
      "stateMutability": "view",
      "type": "function",
      "constant": true
    },
    {
      "inputs": [],
      "name": "totalShares",
      "outputs": [
        {
          "internalType": "uint256",
          "name": "",
          "type": "uint256"
        }
      ],
      "stateMutability": "view",
      "type": "function",
      "constant": true
    },
    {
      "inputs": [
        {
          "internalType": "address",
          "name": "newOwner",
          "type": "address"
        }
      ],
      "name": "transferOwnership",
      "outputs": [],
      "stateMutability": "nonpayable",
      "type": "function"
    },
    {
      "inputs": [],
      "name": "triggerFee",
      "outputs": [
        {
          "internalType": "uint256",
          "name": "",
          "type": "uint256"
        }
      ],
      "stateMutability": "view",
      "type": "function",
      "constant": true
    },
    {
      "inputs": [
        {
          "internalType": "address",
          "name": "_swapToToken",
          "type": "address"
        }
      ],
      "name": "setSwapToToken",
      "outputs": [],
      "stateMutability": "nonpayable",
      "type": "function"
    },
    {
      "inputs": [
        {
          "internalType": "address",
          "name": "_poolAddress",
          "type": "address"
        }
      ],
      "name": "setPoolAddress",
      "outputs": [],
      "stateMutability": "nonpayable",
      "type": "function"
    },
    {
      "inputs": [
        {
          "internalType": "address",
          "name": "_oneSplitAudit",
          "type": "address"
        }
      ],
      "name": "setoneSplitAudit",
      "outputs": [],
      "stateMutability": "nonpayable",
      "type": "function"
    },
    {
      "inputs": [
        {
          "internalType": "uint256",
          "name": "_triggerFee",
          "type": "uint256"
        }
      ],
      "name": "setTriggerFee",
      "outputs": [],
      "stateMutability": "nonpayable",
      "type": "function"
    },
    {
      "inputs": [
        {
          "components": [
            {
              "internalType": "bytes32",
              "name": "root",
              "type": "bytes32"
            },
            {
              "internalType": "uint256",
              "name": "score",
              "type": "uint256"
            },
            {
              "internalType": "bytes32[]",
              "name": "proof",
              "type": "bytes32[]"
            }
          ],
          "internalType": "struct IPool.Claim[]",
          "name": "_claims",
          "type": "tuple[]"
        },
        {
          "internalType": "address",
          "name": "_swapFromToken",
          "type": "address"
        },
        {
          "internalType": "uint256",
          "name": "_amount",
          "type": "uint256"
        }
      ],
      "name": "ConsolidateFeeToken",
      "outputs": [],
      "stateMutability": "nonpayable",
      "type": "function"
    },
    {
      "inputs": [
        {
          "internalType": "address",
          "name": "_account",
          "type": "address"
        },
        {
          "internalType": "uint256",
          "name": "_shares",
          "type": "uint256"
        }
      ],
      "name": "addPayee",
      "outputs": [],
      "stateMutability": "nonpayable",
      "type": "function"
    },
    {
      "inputs": [
        {
          "internalType": "address",
          "name": "_account",
          "type": "address"
        },
        {
          "internalType": "uint256",
          "name": "_index",
          "type": "uint256"
        }
      ],
      "name": "removePayee",
      "outputs": [],
      "stateMutability": "nonpayable",
      "type": "function"
    }
  ],
  "bytecode": "0x60806040523480156200001157600080fd5b506040516200364f3803806200364f8339818101604052810190620000379190620006da565b81816200006b620000566200024a640100000000026401000000009004565b62000252640100000000026401000000009004565b8051825114620000b2576040517f08c379a0000000000000000000000000000000000000000000000000000000008152600401620000a990620008e8565b60405180910390fd5b6000825111620000f9576040517f08c379a0000000000000000000000000000000000000000000000000000000008152600401620000f0906200092c565b60405180910390fd5b60005b825181101562000171576200015b83828151811062000120576200011f62000b56565b5b60200260200101518383815181106200013e576200013d62000b56565b5b602002602001015162000316640100000000026401000000009004565b8080620001689062000ad9565b915050620000fc565b50505085600460006101000a81548173ffffffffffffffffffffffffffffffffffffffff021916908373ffffffffffffffffffffffffffffffffffffffff16021790555084600560006101000a81548173ffffffffffffffffffffffffffffffffffffffff021916908373ffffffffffffffffffffffffffffffffffffffff16021790555083600660006101000a81548173ffffffffffffffffffffffffffffffffffffffff021916908373ffffffffffffffffffffffffffffffffffffffff1602179055508260078190555050505050505062000d4c565b600033905090565b60008060009054906101000a900473ffffffffffffffffffffffffffffffffffffffff169050816000806101000a81548173ffffffffffffffffffffffffffffffffffffffff021916908373ffffffffffffffffffffffffffffffffffffffff1602179055508173ffffffffffffffffffffffffffffffffffffffff168173ffffffffffffffffffffffffffffffffffffffff167f8be0079c531659141344cd1fd0a4f28419497f9722a3daafe3b4186f6b6457e060405160405180910390a35050565b600073ffffffffffffffffffffffffffffffffffffffff168273ffffffffffffffffffffffffffffffffffffffff16141562000389576040517f08c379a00000000000000000000000000000000000000000000000000000000081526004016200038090620008c6565b60405180910390fd5b60008111620003cf576040517f08c379a0000000000000000000000000000000000000000000000000000000008152600401620003c6906200094e565b60405180910390fd5b6000600260008473ffffffffffffffffffffffffffffffffffffffff1673ffffffffffffffffffffffffffffffffffffffff168152602001908152602001600020541462000454576040517f08c379a00000000000000000000000000000000000000000000000000000000081526004016200044b906200090a565b60405180910390fd5b6003829080600181540180825580915050600190039060005260206000200160009091909190916101000a81548173ffffffffffffffffffffffffffffffffffffffff021916908373ffffffffffffffffffffffffffffffffffffffff16021790555080600260008473ffffffffffffffffffffffffffffffffffffffff1673ffffffffffffffffffffffffffffffffffffffff16815260200190815260200160002081905550806001546200050b919062000a08565b6001819055507f40c340f65e17194d14ddddb073d3c9f888e3cb52b5aae0c6c7706b4fbc905fac82826040516200054492919062000899565b60405180910390a15050565b600062000567620005618462000999565b62000970565b905080838252602082019050828560208602820111156200058d576200058c62000bb9565b5b60005b85811015620005c15781620005a6888262000646565b84526020840193506020830192505060018101905062000590565b5050509392505050565b6000620005e2620005dc84620009c8565b62000970565b9050808382526020820190508285602086028201111562000608576200060762000bb9565b5b60005b858110156200063c5781620006218882620006c3565b8452602084019350602083019250506001810190506200060b565b5050509392505050565b600081519050620006578162000d18565b92915050565b600082601f83011262000675576200067462000bb4565b5b81516200068784826020860162000550565b91505092915050565b600082601f830112620006a857620006a762000bb4565b5b8151620006ba848260208601620005cb565b91505092915050565b600081519050620006d48162000d32565b92915050565b60008060008060008060c08789031215620006fa57620006f962000bc3565b5b60006200070a89828a0162000646565b96505060206200071d89828a0162000646565b95505060406200073089828a0162000646565b94505060606200074389828a01620006c3565b935050608087015167ffffffffffffffff81111562000767576200076662000bbe565b5b6200077589828a016200065d565b92505060a087015167ffffffffffffffff81111562000799576200079862000bbe565b5b620007a789828a0162000690565b9150509295509295509295565b620007bf8162000a65565b82525050565b6000620007d4602c83620009f7565b9150620007e18262000bd9565b604082019050919050565b6000620007fb603283620009f7565b9150620008088262000c28565b604082019050919050565b600062000822602b83620009f7565b91506200082f8262000c77565b604082019050919050565b600062000849601a83620009f7565b9150620008568262000cc6565b602082019050919050565b600062000870601d83620009f7565b91506200087d8262000cef565b602082019050919050565b620008938162000a99565b82525050565b6000604082019050620008b06000830185620007b4565b620008bf602083018462000888565b9392505050565b60006020820190508181036000830152620008e181620007c5565b9050919050565b600060208201905081810360008301526200090381620007ec565b9050919050565b60006020820190508181036000830152620009258162000813565b9050919050565b6000602082019050818103600083015262000947816200083a565b9050919050565b60006020820190508181036000830152620009698162000861565b9050919050565b60006200097c6200098f565b90506200098a828262000aa3565b919050565b6000604051905090565b600067ffffffffffffffff821115620009b757620009b662000b85565b5b602082029050602081019050919050565b600067ffffffffffffffff821115620009e657620009e562000b85565b5b602082029050602081019050919050565b600082825260208201905092915050565b600062000a158262000a99565b915062000a228362000a99565b9250827fffffffffffffffffffffffffffffffffffffffffffffffffffffffffffffffff0382111562000a5a5762000a5962000b27565b5b828201905092915050565b600062000a728262000a79565b9050919050565b600073ffffffffffffffffffffffffffffffffffffffff82169050919050565b6000819050919050565b62000aae8262000bc8565b810181811067ffffffffffffffff8211171562000ad05762000acf62000b85565b5b80604052505050565b600062000ae68262000a99565b91507fffffffffffffffffffffffffffffffffffffffffffffffffffffffffffffffff82141562000b1c5762000b1b62000b27565b5b600182019050919050565b7f4e487b7100000000000000000000000000000000000000000000000000000000600052601160045260246000fd5b7f4e487b7100000000000000000000000000000000000000000000000000000000600052603260045260246000fd5b7f4e487b7100000000000000000000000000000000000000000000000000000000600052604160045260246000fd5b600080fd5b600080fd5b600080fd5b600080fd5b6000601f19601f8301169050919050565b7f5061796d656e7453706c69747465723a206163636f756e74206973207468652060008201527f7a65726f20616464726573730000000000000000000000000000000000000000602082015250565b7f5061796d656e7453706c69747465723a2070617965657320616e64207368617260008201527f6573206c656e677468206d69736d617463680000000000000000000000000000602082015250565b7f5061796d656e7453706c69747465723a206163636f756e7420616c726561647960008201527f2068617320736861726573000000000000000000000000000000000000000000602082015250565b7f5061796d656e7453706c69747465723a206e6f20706179656573000000000000600082015250565b7f5061796d656e7453706c69747465723a20736861726573206172652030000000600082015250565b62000d238162000a65565b811462000d2f57600080fd5b50565b62000d3d8162000a99565b811462000d4957600080fd5b50565b6128f38062000d5c6000396000f3fe608060405234801561001057600080fd5b5060043610610128576000357c0100000000000000000000000000000000000000000000000000000000900480638b83209b116100bf578063ce7c2ac21161008e578063ce7c2ac214610289578063e1c941dc146102b9578063e9e15b4f146102d5578063f2fde38b146102f1578063f68371571461030d57610128565b80638b83209b146102035780638da5cb5b14610233578063a7d45b2c14610251578063b21285ce1461026d57610128565b8063715018a6116100fb578063715018a6146101a357806373b411cb146101ad57806376aa3fef146101cb57806384e45c3d146101e757610128565b80631755ff211461012d57806318f9b0231461014b5780633a98ef391461016757806370cb393214610185575b600080fd5b61013561032b565b6040516101429190611eea565b60405180910390f35b610165600480360381019061016091906119b8565b610351565b005b61016f6103db565b60405161017c9190612161565b60405180910390f35b61018d6103e5565b60405161019a9190611eea565b60405180910390f35b6101ab61040b565b005b6101b5610493565b6040516101c29190611eea565b60405180910390f35b6101e560048036038101906101e09190611a94565b6104b9565b005b61020160048036038101906101fc91906119b8565b61053f565b005b61021d60048036038101906102189190611a94565b6105c9565b60405161022a9190611eea565b60405180910390f35b61023b610611565b6040516102489190611eea565b60405180910390f35b61026b6004803603810190610266919061198b565b61063a565b005b6102876004803603810190610282919061198b565b6106fa565b005b6102a3600480360381019061029e919061198b565b6107ba565b6040516102b09190612161565b60405180910390f35b6102d360048036038101906102ce91906119f8565b610803565b005b6102ef60048036038101906102ea919061198b565b610cb1565b005b61030b6004803603810190610306919061198b565b610d71565b005b610315610e69565b6040516103229190612161565b60405180910390f35b600560009054906101000a900473ffffffffffffffffffffffffffffffffffffffff1681565b610359610e6f565b73ffffffffffffffffffffffffffffffffffffffff16610377610611565b73ffffffffffffffffffffffffffffffffffffffff16146103cd576040517f08c379a00000000000000000000000000000000000000000000000000000000081526004016103c4906120e1565b60405180910390fd5b6103d78282610e77565b5050565b6000600154905090565b600660009054906101000a900473ffffffffffffffffffffffffffffffffffffffff1681565b610413610e6f565b73ffffffffffffffffffffffffffffffffffffffff16610431610611565b73ffffffffffffffffffffffffffffffffffffffff1614610487576040517f08c379a000000000000000000000000000000000000000000000000000000000815260040161047e906120e1565b60405180910390fd5b61049160006110a4565b565b600460009054906101000a900473ffffffffffffffffffffffffffffffffffffffff1681565b6104c1610e6f565b73ffffffffffffffffffffffffffffffffffffffff166104df610611565b73ffffffffffffffffffffffffffffffffffffffff1614610535576040517f08c379a000000000000000000000000000000000000000000000000000000000815260040161052c906120e1565b60405180910390fd5b8060078190555050565b610547610e6f565b73ffffffffffffffffffffffffffffffffffffffff16610565610611565b73ffffffffffffffffffffffffffffffffffffffff16146105bb576040517f08c379a00000000000000000000000000000000000000000000000000000000081526004016105b2906120e1565b60405180910390fd5b6105c58282611168565b5050565b6000600382815481106105df576105de6125fd565b5b9060005260206000200160009054906101000a900473ffffffffffffffffffffffffffffffffffffffff169050919050565b60008060009054906101000a900473ffffffffffffffffffffffffffffffffffffffff16905090565b610642610e6f565b73ffffffffffffffffffffffffffffffffffffffff16610660610611565b73ffffffffffffffffffffffffffffffffffffffff16146106b6576040517f08c379a00000000000000000000000000000000000000000000000000000000081526004016106ad906120e1565b60405180910390fd5b80600660006101000a81548173ffffffffffffffffffffffffffffffffffffffff021916908373ffffffffffffffffffffffffffffffffffffffff16021790555050565b610702610e6f565b73ffffffffffffffffffffffffffffffffffffffff16610720610611565b73ffffffffffffffffffffffffffffffffffffffff1614610776576040517f08c379a000000000000000000000000000000000000000000000000000000000815260040161076d906120e1565b60405180910390fd5b80600460006101000a81548173ffffffffffffffffffffffffffffffffffffffff021916908373ffffffffffffffffffffffffffffffffffffffff16021790555050565b6000600260008373ffffffffffffffffffffffffffffffffffffffff1673ffffffffffffffffffffffffffffffffffffffff168152602001908152602001600020549050919050565b600560009054906101000a900473ffffffffffffffffffffffffffffffffffffffff1673ffffffffffffffffffffffffffffffffffffffff16634eef70e48484846040518463ffffffff167c010000000000000000000000000000000000000000000000000000000002815260040161087e93929190611f88565b600060405180830381600087803b15801561089857600080fd5b505af11580156108ac573d6000803e3d6000fd5b50505050600080600660009054906101000a900473ffffffffffffffffffffffffffffffffffffffff1673ffffffffffffffffffffffffffffffffffffffff1663085e2c5b85600460009054906101000a900473ffffffffffffffffffffffffffffffffffffffff16866000806040518663ffffffff167c0100000000000000000000000000000000000000000000000000000000028152600401610955959493929190611fc6565b60006040518083038186803b15801561096d57600080fd5b505afa158015610981573d6000803e3d6000fd5b505050506040513d6000823e3d601f19601f820116820180604052508101906109aa9190611aee565b91509150600660009054906101000a900473ffffffffffffffffffffffffffffffffffffffff1673ffffffffffffffffffffffffffffffffffffffff1663e2a7515e85600460009054906101000a900473ffffffffffffffffffffffffffffffffffffffff1686868660006040518763ffffffff167c0100000000000000000000000000000000000000000000000000000000028152600401610a5296959493929190612019565b602060405180830381600087803b158015610a6c57600080fd5b505af1158015610a80573d6000803e3d6000fd5b505050506040513d601f19601f82011682018060405250810190610aa49190611ac1565b506000610acf6064610ac1600754876114cc90919063ffffffff16565b6114e290919063ffffffff16565b9050610afe33600460009054906101000a900473ffffffffffffffffffffffffffffffffffffffff16836114f8565b6000610b13828661169490919063ffffffff16565b905060005b600380549050811015610c455760006001546002600060038581548110610b4257610b416125fd565b5b9060005260206000200160009054906101000a900473ffffffffffffffffffffffffffffffffffffffff1673ffffffffffffffffffffffffffffffffffffffff1673ffffffffffffffffffffffffffffffffffffffff16815260200190815260200160002054610bb29190612375565b9050610c3160038381548110610bcb57610bca6125fd565b5b9060005260206000200160009054906101000a900473ffffffffffffffffffffffffffffffffffffffff16600460009054906101000a900473ffffffffffffffffffffffffffffffffffffffff16610c2c84876114cc90919063ffffffff16565b6114f8565b508080610c3d90612527565b915050610b18565b507f261df384dc63e9de53c9811f4a93c7fc0cbba42af8be50131c04944cef7daf723387600460009054906101000a900473ffffffffffffffffffffffffffffffffffffffff16886003604051610ca0959493929190611f05565b60405180910390a150505050505050565b610cb9610e6f565b73ffffffffffffffffffffffffffffffffffffffff16610cd7610611565b73ffffffffffffffffffffffffffffffffffffffff1614610d2d576040517f08c379a0000000000000000000000000000000000000000000000000000000008152600401610d24906120e1565b60405180910390fd5b80600560006101000a81548173ffffffffffffffffffffffffffffffffffffffff021916908373ffffffffffffffffffffffffffffffffffffffff16021790555050565b610d79610e6f565b73ffffffffffffffffffffffffffffffffffffffff16610d97610611565b73ffffffffffffffffffffffffffffffffffffffff1614610ded576040517f08c379a0000000000000000000000000000000000000000000000000000000008152600401610de4906120e1565b60405180910390fd5b600073ffffffffffffffffffffffffffffffffffffffff168173ffffffffffffffffffffffffffffffffffffffff161415610e5d576040517f08c379a0000000000000000000000000000000000000000000000000000000008152600401610e54906120a1565b60405180910390fd5b610e66816110a4565b50565b60075481565b600033905090565b600073ffffffffffffffffffffffffffffffffffffffff168273ffffffffffffffffffffffffffffffffffffffff161415610ee7576040517f08c379a0000000000000000000000000000000000000000000000000000000008152600401610ede90612081565b60405180910390fd5b60008111610f2a576040517f08c379a0000000000000000000000000000000000000000000000000000000008152600401610f2190612141565b60405180910390fd5b6000600260008473ffffffffffffffffffffffffffffffffffffffff1673ffffffffffffffffffffffffffffffffffffffff1681526020019081526020016000205414610fac576040517f08c379a0000000000000000000000000000000000000000000000000000000008152600401610fa390612121565b60405180910390fd5b6003829080600181540180825580915050600190039060005260206000200160009091909190916101000a81548173ffffffffffffffffffffffffffffffffffffffff021916908373ffffffffffffffffffffffffffffffffffffffff16021790555080600260008473ffffffffffffffffffffffffffffffffffffffff1673ffffffffffffffffffffffffffffffffffffffff1681526020019081526020016000208190555080600154611061919061231f565b6001819055507f40c340f65e17194d14ddddb073d3c9f888e3cb52b5aae0c6c7706b4fbc905fac8282604051611098929190611f5f565b60405180910390a15050565b60008060009054906101000a900473ffffffffffffffffffffffffffffffffffffffff169050816000806101000a81548173ffffffffffffffffffffffffffffffffffffffff021916908373ffffffffffffffffffffffffffffffffffffffff1602179055508173ffffffffffffffffffffffffffffffffffffffff168173ffffffffffffffffffffffffffffffffffffffff167f8be0079c531659141344cd1fd0a4f28419497f9722a3daafe3b4186f6b6457e060405160405180910390a35050565b600073ffffffffffffffffffffffffffffffffffffffff168273ffffffffffffffffffffffffffffffffffffffff1614156111d8576040517f08c379a00000000000000000000000000000000000000000000000000000000081526004016111cf90612081565b60405180910390fd5b6000600260008473ffffffffffffffffffffffffffffffffffffffff1673ffffffffffffffffffffffffffffffffffffffff168152602001908152602001600020541161125a576040517f08c379a000000000000000000000000000000000000000000000000000000000815260040161125190612141565b60405180910390fd5b6003818154811061126e5761126d6125fd565b5b9060005260206000200160009054906101000a900473ffffffffffffffffffffffffffffffffffffffff1673ffffffffffffffffffffffffffffffffffffffff168273ffffffffffffffffffffffffffffffffffffffff1614611306576040517f08c379a00000000000000000000000000000000000000000000000000000000081526004016112fd90612101565b60405180910390fd5b600260008373ffffffffffffffffffffffffffffffffffffffff1673ffffffffffffffffffffffffffffffffffffffff168152602001908152602001600020546001546113539190612400565b6001819055506000600260008473ffffffffffffffffffffffffffffffffffffffff1673ffffffffffffffffffffffffffffffffffffffff16815260200190815260200160002081905550600360016003805490506113b29190612400565b815481106113c3576113c26125fd565b5b9060005260206000200160009054906101000a900473ffffffffffffffffffffffffffffffffffffffff1660038281548110611402576114016125fd565b5b9060005260206000200160006101000a81548173ffffffffffffffffffffffffffffffffffffffff021916908373ffffffffffffffffffffffffffffffffffffffff160217905550600380548061145c5761145b6125ce565b5b6001900381819060005260206000200160006101000a81549073ffffffffffffffffffffffffffffffffffffffff021916905590557fc2ee819acfe1baf117c2aac9d3f627a864f075d2fecc990eebd82d59f2662605826040516114c09190611eea565b60405180910390a15050565b600081836114da91906123a6565b905092915050565b600081836114f09190612375565b905092915050565b6000829050818173ffffffffffffffffffffffffffffffffffffffff166370a08231306040518263ffffffff167c01000000000000000000000000000000000000000000000000000000000281526004016115539190611eea565b60206040518083038186803b15801561156b57600080fd5b505afa15801561157f573d6000803e3d6000fd5b505050506040513d601f19601f820116820180604052508101906115a39190611ac1565b10156115e4576040517f08c379a00000000000000000000000000000000000000000000000000000000081526004016115db906120c1565b60405180910390fd5b8073ffffffffffffffffffffffffffffffffffffffff1663a9059cbb85846040518363ffffffff167c010000000000000000000000000000000000000000000000000000000002815260040161163b929190611f5f565b602060405180830381600087803b15801561165557600080fd5b505af1158015611669573d6000803e3d6000fd5b505050506040513d601f19601f8201168201806040525081019061168d9190611a67565b5050505050565b600081836116a29190612400565b905092915050565b60006116bd6116b8846121a1565b61217c565b905080838252602082019050828560208602820111156116e0576116df61267d565b5b60005b8581101561171057816116f688826118cc565b8452602084019350602083019250506001810190506116e3565b5050509392505050565b600061172d611728846121cd565b61217c565b905080838252602082019050828560208602820111156117505761174f61267d565b5b60005b8581101561179e57813567ffffffffffffffff8111156117765761177561266e565b5b80860161178389826118e1565b85526020850194506020840193505050600181019050611753565b5050509392505050565b60006117bb6117b6846121f9565b61217c565b905080838252602082019050828560208602820111156117de576117dd61267d565b5b60005b8581101561180e57816117f48882611976565b8452602084019350602083019250506001810190506117e1565b5050509392505050565b60008135905061182781612861565b92915050565b600082601f8301126118425761184161266e565b5b81356118528482602086016116aa565b91505092915050565b600082601f8301126118705761186f61266e565b5b813561188084826020860161171a565b91505092915050565b600082601f83011261189e5761189d61266e565b5b81516118ae8482602086016117a8565b91505092915050565b6000815190506118c681612878565b92915050565b6000813590506118db8161288f565b92915050565b6000606082840312156118f7576118f6612673565b5b611901606061217c565b90506000611911848285016118cc565b600083015250602061192584828501611961565b602083015250604082013567ffffffffffffffff81111561194957611948612678565b5b6119558482850161182d565b60408301525092915050565b600081359050611970816128a6565b92915050565b600081519050611985816128a6565b92915050565b6000602082840312156119a1576119a0612687565b5b60006119af84828501611818565b91505092915050565b600080604083850312156119cf576119ce612687565b5b60006119dd85828601611818565b92505060206119ee85828601611961565b9150509250929050565b600080600060608486031215611a1157611a10612687565b5b600084013567ffffffffffffffff811115611a2f57611a2e612682565b5b611a3b8682870161185b565b9350506020611a4c86828701611818565b9250506040611a5d86828701611961565b9150509250925092565b600060208284031215611a7d57611a7c612687565b5b6000611a8b848285016118b7565b91505092915050565b600060208284031215611aaa57611aa9612687565b5b6000611ab884828501611961565b91505092915050565b600060208284031215611ad757611ad6612687565b5b6000611ae584828501611976565b91505092915050565b60008060408385031215611b0557611b04612687565b5b6000611b1385828601611976565b925050602083015167ffffffffffffffff811115611b3457611b33612682565b5b611b4085828601611889565b9150509250929050565b6000611b568383611ba6565b60208301905092915050565b6000611b6e8383611d5a565b60208301905092915050565b6000611b868383611e7c565b905092915050565b6000611b9a8383611ecc565b60208301905092915050565b611baf81612454565b82525050565b611bbe81612454565b82525050565b6000611bcf8261226a565b611bd981856122ca565b9350611be483612225565b8060005b83811015611c1c57611bf98261265b565b611c038882611b4a565b9750611c0e83612296565b925050600181019050611be8565b5085935050505092915050565b6000611c3482612275565b611c3e81856122db565b9350611c498361223a565b8060005b83811015611c7a578151611c618882611b62565b9750611c6c836122a3565b925050600181019050611c4d565b5085935050505092915050565b6000611c9282612280565b611c9c81856122ec565b935083602082028501611cae8561224a565b8060005b85811015611cea5784840389528151611ccb8582611b7a565b9450611cd6836122b0565b925060208a01995050600181019050611cb2565b50829750879550505050505092915050565b6000611d078261228b565b611d1181856122fd565b9350611d1c8361225a565b8060005b83811015611d4d578151611d348882611b8e565b9750611d3f836122bd565b925050600181019050611d20565b5085935050505092915050565b611d6381612472565b82525050565b611d72816124a6565b82525050565b611d81816124ca565b82525050565b6000611d94602c8361230e565b9150611d9f826126aa565b604082019050919050565b6000611db760268361230e565b9150611dc2826126f9565b604082019050919050565b6000611dda601c8361230e565b9150611de582612748565b602082019050919050565b6000611dfd60208361230e565b9150611e0882612771565b602082019050919050565b6000611e2060398361230e565b9150611e2b8261279a565b604082019050919050565b6000611e43602b8361230e565b9150611e4e826127e9565b604082019050919050565b6000611e66601d8361230e565b9150611e7182612838565b602082019050919050565b6000606083016000830151611e946000860182611d5a565b506020830151611ea76020860182611ecc565b5060408301518482036040860152611ebf8282611c29565b9150508091505092915050565b611ed58161249c565b82525050565b611ee48161249c565b82525050565b6000602082019050611eff6000830184611bb5565b92915050565b600060a082019050611f1a6000830188611bb5565b611f276020830187611d69565b611f346040830186611d69565b611f416060830185611edb565b8181036080830152611f538184611bc4565b90509695505050505050565b6000604082019050611f746000830185611bb5565b611f816020830184611edb565b9392505050565b60006060820190508181036000830152611fa28186611c87565b9050611fb16020830185611d69565b611fbe6040830184611edb565b949350505050565b600060a082019050611fdb6000830188611d69565b611fe86020830187611d69565b611ff56040830186611edb565b6120026060830185611d78565b61200f6080830184611d78565b9695505050505050565b600060c08201905061202e6000830189611d69565b61203b6020830188611d69565b6120486040830187611edb565b6120556060830186611edb565b81810360808301526120678185611cfc565b905061207660a0830184611d78565b979650505050505050565b6000602082019050818103600083015261209a81611d87565b9050919050565b600060208201905081810360008301526120ba81611daa565b9050919050565b600060208201905081810360008301526120da81611dcd565b9050919050565b600060208201905081810360008301526120fa81611df0565b9050919050565b6000602082019050818103600083015261211a81611e13565b9050919050565b6000602082019050818103600083015261213a81611e36565b9050919050565b6000602082019050818103600083015261215a81611e59565b9050919050565b60006020820190506121766000830184611edb565b92915050565b6000612186612197565b905061219282826124f6565b919050565b6000604051905090565b600067ffffffffffffffff8211156121bc576121bb61262c565b5b602082029050602081019050919050565b600067ffffffffffffffff8211156121e8576121e761262c565b5b602082029050602081019050919050565b600067ffffffffffffffff8211156122145761221361262c565b5b602082029050602081019050919050565b60008190508160005260206000209050919050565b6000819050602082019050919050565b6000819050602082019050919050565b6000819050602082019050919050565b600081549050919050565b600081519050919050565b600081519050919050565b600081519050919050565b6000600182019050919050565b6000602082019050919050565b6000602082019050919050565b6000602082019050919050565b600082825260208201905092915050565b600082825260208201905092915050565b600082825260208201905092915050565b600082825260208201905092915050565b600082825260208201905092915050565b600061232a8261249c565b91506123358361249c565b9250827fffffffffffffffffffffffffffffffffffffffffffffffffffffffffffffffff0382111561236a57612369612570565b5b828201905092915050565b60006123808261249c565b915061238b8361249c565b92508261239b5761239a61259f565b5b828204905092915050565b60006123b18261249c565b91506123bc8361249c565b9250817fffffffffffffffffffffffffffffffffffffffffffffffffffffffffffffffff04831182151516156123f5576123f4612570565b5b828202905092915050565b600061240b8261249c565b91506124168361249c565b92508282101561242957612428612570565b5b828203905092915050565b600073ffffffffffffffffffffffffffffffffffffffff82169050919050565b600061245f8261247c565b9050919050565b60008115159050919050565b6000819050919050565b600073ffffffffffffffffffffffffffffffffffffffff82169050919050565b6000819050919050565b60006124b1826124b8565b9050919050565b60006124c38261247c565b9050919050565b60006124d58261249c565b9050919050565b60006124ef6124ea8361269d565b612434565b9050919050565b6124ff8261268c565b810181811067ffffffffffffffff8211171561251e5761251d61262c565b5b80604052505050565b60006125328261249c565b91507fffffffffffffffffffffffffffffffffffffffffffffffffffffffffffffffff82141561256557612564612570565b5b600182019050919050565b7f4e487b7100000000000000000000000000000000000000000000000000000000600052601160045260246000fd5b7f4e487b7100000000000000000000000000000000000000000000000000000000600052601260045260246000fd5b7f4e487b7100000000000000000000000000000000000000000000000000000000600052603160045260246000fd5b7f4e487b7100000000000000000000000000000000000000000000000000000000600052603260045260246000fd5b7f4e487b7100000000000000000000000000000000000000000000000000000000600052604160045260246000fd5b600061266782546124dc565b9050919050565b600080fd5b600080fd5b600080fd5b600080fd5b600080fd5b600080fd5b6000601f19601f8301169050919050565b6000600182049050919050565b7f5061796d656e7453706c69747465723a206163636f756e74206973207468652060008201527f7a65726f20616464726573730000000000000000000000000000000000000000602082015250565b7f4f776e61626c653a206e6577206f776e657220697320746865207a65726f206160008201527f6464726573730000000000000000000000000000000000000000000000000000602082015250565b7f4e6f7420656e6f7567682066756e647320746f207472616e7366657200000000600082015250565b7f4f776e61626c653a2063616c6c6572206973206e6f7420746865206f776e6572600082015250565b7f5061796d656e7453706c69747465723a206163636f756e7420646f6573206e6f60008201527f74206d6174636820706179656520617272617920696e64657800000000000000602082015250565b7f5061796d656e7453706c69747465723a206163636f756e7420616c726561647960008201527f2068617320736861726573000000000000000000000000000000000000000000602082015250565b7f5061796d656e7453706c69747465723a20736861726573206172652030000000600082015250565b61286a81612454565b811461287557600080fd5b50565b61288181612466565b811461288c57600080fd5b50565b61289881612472565b81146128a357600080fd5b50565b6128af8161249c565b81146128ba57600080fd5b5056fea2646970667358221220239c125c00efcd695f28b5068dce9755e0ec174c9f0b910e57d31a3b201e7a3564736f6c63430008050033",
  "immutableReferences": {},
  "source": "// SPDX-License-Identifier: MIT\n\npragma solidity ^0.8.5;\n\nimport \"@openzeppelin/contracts/token/ERC20/IERC20.sol\";\nimport \"@openzeppelin/contracts/access/Ownable.sol\";\nimport \"@openzeppelin/contracts/utils/math/SafeMath.sol\";\nimport \"./TokenPaymentSplitter.sol\";\n\ninterface IOneSplitAudit {\n    function swap(\n        IERC20 fromToken,\n        IERC20 destToken,\n        uint256 amount,\n        uint256 minReturn,\n        uint256[] memory distribution,\n        uint256 flags\n    ) external payable returns (uint256 returnAmount);\n\n    function getExpectedReturn(\n        IERC20 fromToken,\n        IERC20 destToken,\n        uint256 amount,\n        uint256 parts,\n        uint256 flags // See constants in IOneSplit.sol\n    )\n        external\n        view\n        returns (uint256 returnAmount, uint256[] memory distribution);\n}\n\ninterface IPool {\n    /**\n     * @notice Structs\n     */\n    struct Claim {\n        bytes32 root;\n        uint256 score;\n        bytes32[] proof;\n    }\n\n    function withdrawProtected(\n        Claim[] memory claims,\n        IERC20 token,\n        uint256 minimumAmount\n    ) external;\n}\n\ncontract FeeReceiver is Ownable, TokenPaymentSplitter {\n    using SafeMath for uint256;\n\n    event FeeConsolidatation(\n        address triggerAccount,\n        IERC20 swapFrom,\n        IERC20 swapTo,\n        uint256 amount,\n        address[] recievedAddresses\n    );\n\n    address public swapToToken;\n\n    address public poolAddress;\n\n    address public oneSplitAudit;\n\n    uint256 public triggerFee;\n\n    /**\n     * @dev Set a new token to swap to (e.g., stabletoken).\n     */\n    function setSwapToToken(address _swapToToken) public onlyOwner {\n        swapToToken = _swapToToken;\n    }\n\n    /**\n     * @dev Set a new address of fee pool.\n     */\n    function setPoolAddress(address _poolAddress) public onlyOwner {\n        poolAddress = _poolAddress;\n    }\n\n    /**\n     * @dev Set a new address of on-chain AMM.\n     */\n    function setoneSplitAudit(address _oneSplitAudit) public onlyOwner {\n        oneSplitAudit = _oneSplitAudit;\n    }\n\n    /**\n     * @dev Set a new fee (perentage 0 - 100) for calling the ConsolidateFeeToken function.\n     */\n    function setTriggerFee(uint256 _triggerFee) public onlyOwner {\n        triggerFee = _triggerFee;\n    }\n\n    constructor(\n        address _swapToToken,\n        address _poolAddress,\n        address _oneSplitAudit,\n        uint256 _triggerFee,\n        address[] memory payees,\n        uint256[] memory shares_\n    ) TokenPaymentSplitter(payees, shares_) {\n        swapToToken = _swapToToken;\n        poolAddress = _poolAddress;\n        oneSplitAudit = _oneSplitAudit;\n        triggerFee = _triggerFee;\n    }\n\n    /**\n     * @dev Set a new fee (perentage 0 - 100) for calling the ConsolidateFeeToken function.\n     * @param _claims The claim struct necessary to withdraw from the fee pool.\n     * @param _swapFromToken The token from the fee pool to be swapped from.\n     * @param _amount The amount of token from the fee pool to be swapped and distributed.\n     */\n    function ConsolidateFeeToken(\n        IPool.Claim[] memory _claims,\n        address _swapFromToken,\n        uint256 _amount\n    ) public {\n\n        // Calls the withdrawProtected function from the fee pool to transfer tokens into this contract.\n        IPool(poolAddress).withdrawProtected(\n            _claims,\n            IERC20(_swapFromToken),\n            _amount\n        );\n\n        // Calls the getExpectedReturn function from the on-chain AMM and catches result.\n        (uint256 _expected, uint256[] memory _distribution) = IOneSplitAudit(\n            oneSplitAudit\n        ).getExpectedReturn(\n            IERC20(_swapFromToken),\n            IERC20(swapToToken),\n            _amount,\n            0,\n            0\n        );\n\n        // Calls the swap function from the on-chain AMM to swap token from fee pool into (stable)token.\n        IOneSplitAudit(oneSplitAudit).swap(\n            IERC20(_swapFromToken),\n            IERC20(swapToToken),\n            _amount,\n            _expected,\n            _distribution,\n            0\n        );\n\n        // Calculates trigger reward amount and transfers to msg.sender.\n        uint256 triggerFeeAmount = _amount.mul(triggerFee).div(100);\n        _transferErc20(msg.sender, swapToToken, triggerFeeAmount);\n\n        // Transfers remaining amount to reward pool address(es).\n        uint256 rewardPoolAmount = _amount.sub(triggerFeeAmount);\n        for (uint256 i = 0; i < _payees.length; i++) {\n            uint256 distributionRatio = (_shares[_payees[i]] / _totalShares);\n            _transferErc20(\n                _payees[i],\n                swapToToken,\n                rewardPoolAmount.mul(distributionRatio)\n            );\n        }\n\n        emit FeeConsolidatation(\n            msg.sender,\n            IERC20(_swapFromToken),\n            IERC20(swapToToken),\n            _amount,\n            _payees\n        );\n    }\n\n    /**\n     * @dev Internal function to transfer ERC20 held in the contract.\n     *\n     * */\n    function _transferErc20(\n        address _recipient,\n        address _tokenContract,\n        uint256 _returnAmount\n    ) internal {\n        IERC20 erc;\n        erc = IERC20(_tokenContract);\n        require(\n            erc.balanceOf(address(this)) >= _returnAmount,\n            \"Not enough funds to transfer\"\n        );\n        erc.transfer(_recipient, _returnAmount);\n    }\n\n    function addPayee(address _account, uint256 _shares) public onlyOwner {\n        _addPayee(_account, _shares);\n    }\n\n    function removePayee(address _account, uint256 _index) public onlyOwner {\n        _removePayee(_account, _index);\n    }\n}\n",
  "sourcePath": "C:/Users/mster/OneDrive/Documents/Dapp Projects/airswap-projects/AIP-26/contracts/FeeReceiver.sol",
  "compiler": {
    "name": "solc",
    "version": "0.8.5+commit.a4f2e591.Emscripten.clang"
  },
  "schemaVersion": "3.3.4",
  "updatedAt": "2021-07-21T17:37:09.051Z",
  "networkType": "ethereum",
  "devdoc": {
    "kind": "dev",
    "methods": {
      "ConsolidateFeeToken((bytes32,uint256,bytes32[])[],address,uint256)": {
        "details": "Set a new fee (perentage 0 - 100) for calling the ConsolidateFeeToken function.",
        "params": {
          "_amount": "The amount of token from the fee pool to be swapped and distributed.",
          "_claims": "The claim struct necessary to withdraw from the fee pool.",
          "_swapFromToken": "The token from the fee pool to be swapped from."
        }
      },
      "owner()": {
        "details": "Returns the address of the current owner."
      },
      "payee(uint256)": {
        "details": "Getter for the address of the payee number `index`."
      },
      "renounceOwnership()": {
        "details": "Leaves the contract without owner. It will not be possible to call `onlyOwner` functions anymore. Can only be called by the current owner. NOTE: Renouncing ownership will leave the contract without an owner, thereby removing any functionality that is only available to the owner."
      },
      "setPoolAddress(address)": {
        "details": "Set a new address of fee pool."
      },
      "setSwapToToken(address)": {
        "details": "Set a new token to swap to (e.g., stabletoken)."
      },
      "setTriggerFee(uint256)": {
        "details": "Set a new fee (perentage 0 - 100) for calling the ConsolidateFeeToken function."
      },
      "setoneSplitAudit(address)": {
        "details": "Set a new address of on-chain AMM."
      },
      "shares(address)": {
        "details": "Getter for the amount of shares held by an account."
      },
      "totalShares()": {
        "details": "Getter for the total shares held by payees."
      },
      "transferOwnership(address)": {
        "details": "Transfers ownership of the contract to a new account (`newOwner`). Can only be called by the current owner."
      }
    },
    "version": 1
  },
  "userdoc": {
    "kind": "user",
    "methods": {},
    "version": 1
  }
}