{
  "contractName": "FeeReceiver",
  "abi": [
    {
      "inputs": [
        {
          "internalType": "address",
          "name": "_swapToToken",
          "type": "address"
        },
        {
          "internalType": "address",
          "name": "_poolAddress",
          "type": "address"
        },
        {
          "internalType": "address",
          "name": "_oneSplitAudit",
          "type": "address"
        },
        {
          "internalType": "uint256",
          "name": "_triggerFee",
          "type": "uint256"
        },
        {
          "internalType": "address[]",
          "name": "payees",
          "type": "address[]"
        },
        {
          "internalType": "uint256[]",
          "name": "shares_",
          "type": "uint256[]"
        }
      ],
      "stateMutability": "nonpayable",
      "type": "constructor"
    },
    {
      "anonymous": false,
      "inputs": [
        {
          "indexed": false,
          "internalType": "address",
          "name": "triggerAccount",
          "type": "address"
        },
        {
          "indexed": false,
          "internalType": "contract IERC20",
          "name": "swapFrom",
          "type": "address"
        },
        {
          "indexed": false,
          "internalType": "contract IERC20",
          "name": "swapTo",
          "type": "address"
        },
        {
          "indexed": false,
          "internalType": "uint256",
          "name": "amount",
          "type": "uint256"
        },
        {
          "indexed": false,
          "internalType": "address[]",
          "name": "recievedAddresses",
          "type": "address[]"
        }
      ],
      "name": "FeeConsolidatation",
      "type": "event"
    },
    {
      "anonymous": false,
      "inputs": [
        {
          "indexed": true,
          "internalType": "address",
          "name": "previousOwner",
          "type": "address"
        },
        {
          "indexed": true,
          "internalType": "address",
          "name": "newOwner",
          "type": "address"
        }
      ],
      "name": "OwnershipTransferred",
      "type": "event"
    },
    {
      "anonymous": false,
      "inputs": [
        {
          "indexed": false,
          "internalType": "address",
          "name": "account",
          "type": "address"
        },
        {
          "indexed": false,
          "internalType": "uint256",
          "name": "shares",
          "type": "uint256"
        }
      ],
      "name": "PayeeAdded",
      "type": "event"
    },
    {
      "anonymous": false,
      "inputs": [
        {
          "indexed": false,
          "internalType": "address",
          "name": "account",
          "type": "address"
        }
      ],
      "name": "PayeeRemoved",
      "type": "event"
    },
    {
      "anonymous": false,
      "inputs": [
        {
          "indexed": false,
          "internalType": "address",
          "name": "from",
          "type": "address"
        },
        {
          "indexed": false,
          "internalType": "uint256",
          "name": "amount",
          "type": "uint256"
        }
      ],
      "name": "PaymentReceived",
      "type": "event"
    },
    {
      "anonymous": false,
      "inputs": [
        {
          "indexed": false,
          "internalType": "address",
          "name": "to",
          "type": "address"
        },
        {
          "indexed": false,
          "internalType": "uint256",
          "name": "amount",
          "type": "uint256"
        }
      ],
      "name": "PaymentReleased",
      "type": "event"
    },
    {
      "inputs": [],
      "name": "oneSplitAudit",
      "outputs": [
        {
          "internalType": "address",
          "name": "",
          "type": "address"
        }
      ],
      "stateMutability": "view",
      "type": "function",
      "constant": true
    },
    {
      "inputs": [],
      "name": "owner",
      "outputs": [
        {
          "internalType": "address",
          "name": "",
          "type": "address"
        }
      ],
      "stateMutability": "view",
      "type": "function",
      "constant": true
    },
    {
      "inputs": [
        {
          "internalType": "uint256",
          "name": "index",
          "type": "uint256"
        }
      ],
      "name": "payee",
      "outputs": [
        {
          "internalType": "address",
          "name": "",
          "type": "address"
        }
      ],
      "stateMutability": "view",
      "type": "function",
      "constant": true
    },
    {
      "inputs": [],
      "name": "poolAddress",
      "outputs": [
        {
          "internalType": "address",
          "name": "",
          "type": "address"
        }
      ],
      "stateMutability": "view",
      "type": "function",
      "constant": true
    },
    {
      "inputs": [],
      "name": "renounceOwnership",
      "outputs": [],
      "stateMutability": "nonpayable",
      "type": "function"
    },
    {
      "inputs": [
        {
          "internalType": "address",
          "name": "account",
          "type": "address"
        }
      ],
      "name": "shares",
      "outputs": [
        {
          "internalType": "uint256",
          "name": "",
          "type": "uint256"
        }
      ],
      "stateMutability": "view",
      "type": "function",
      "constant": true
    },
    {
      "inputs": [],
      "name": "stakeActive",
      "outputs": [
        {
          "internalType": "bool",
          "name": "",
          "type": "bool"
        }
      ],
      "stateMutability": "view",
      "type": "function",
      "constant": true
    },
    {
      "inputs": [],
      "name": "stakeAddress",
      "outputs": [
        {
          "internalType": "address",
          "name": "",
          "type": "address"
        }
      ],
      "stateMutability": "view",
      "type": "function",
      "constant": true
    },
    {
      "inputs": [],
      "name": "stakeThreshold",
      "outputs": [
        {
          "internalType": "uint256",
          "name": "",
          "type": "uint256"
        }
      ],
      "stateMutability": "view",
      "type": "function",
      "constant": true
    },
    {
      "inputs": [],
      "name": "swapToToken",
      "outputs": [
        {
          "internalType": "address",
          "name": "",
          "type": "address"
        }
      ],
      "stateMutability": "view",
      "type": "function",
      "constant": true
    },
    {
      "inputs": [],
      "name": "totalShares",
      "outputs": [
        {
          "internalType": "uint256",
          "name": "",
          "type": "uint256"
        }
      ],
      "stateMutability": "view",
      "type": "function",
      "constant": true
    },
    {
      "inputs": [
        {
          "internalType": "address",
          "name": "newOwner",
          "type": "address"
        }
      ],
      "name": "transferOwnership",
      "outputs": [],
      "stateMutability": "nonpayable",
      "type": "function"
    },
    {
      "inputs": [],
      "name": "triggerFee",
      "outputs": [
        {
          "internalType": "uint256",
          "name": "",
          "type": "uint256"
        }
      ],
      "stateMutability": "view",
      "type": "function",
      "constant": true
    },
    {
      "inputs": [
        {
          "internalType": "address",
          "name": "_swapToToken",
          "type": "address"
        }
      ],
      "name": "setSwapToToken",
      "outputs": [],
      "stateMutability": "nonpayable",
      "type": "function"
    },
    {
      "inputs": [
        {
          "internalType": "address",
          "name": "_poolAddress",
          "type": "address"
        }
      ],
      "name": "setPoolAddress",
      "outputs": [],
      "stateMutability": "nonpayable",
      "type": "function"
    },
    {
      "inputs": [
        {
          "internalType": "address",
          "name": "_oneSplitAudit",
          "type": "address"
        }
      ],
      "name": "setOneSplitAudit",
      "outputs": [],
      "stateMutability": "nonpayable",
      "type": "function"
    },
    {
      "inputs": [
        {
          "internalType": "address",
          "name": "_stakeAddress",
          "type": "address"
        }
      ],
      "name": "setStakeAddress",
      "outputs": [],
      "stateMutability": "nonpayable",
      "type": "function"
    },
    {
      "inputs": [
        {
          "internalType": "uint256",
          "name": "_stakeThreshold",
          "type": "uint256"
        }
      ],
      "name": "setStakeThreshold",
      "outputs": [],
      "stateMutability": "nonpayable",
      "type": "function"
    },
    {
      "inputs": [
        {
          "internalType": "bool",
          "name": "_switch",
          "type": "bool"
        }
      ],
      "name": "setStakeActive",
      "outputs": [],
      "stateMutability": "nonpayable",
      "type": "function"
    },
    {
      "inputs": [
        {
          "internalType": "uint256",
          "name": "_triggerFee",
          "type": "uint256"
        }
      ],
      "name": "setTriggerFee",
      "outputs": [],
      "stateMutability": "nonpayable",
      "type": "function"
    },
    {
      "inputs": [
        {
          "components": [
            {
              "internalType": "bytes32",
              "name": "root",
              "type": "bytes32"
            },
            {
              "internalType": "uint256",
              "name": "score",
              "type": "uint256"
            },
            {
              "internalType": "bytes32[]",
              "name": "proof",
              "type": "bytes32[]"
            }
          ],
          "internalType": "struct IPool.Claim[]",
          "name": "_claims",
          "type": "tuple[]"
        },
        {
          "internalType": "address",
          "name": "_swapFromToken",
          "type": "address"
        },
        {
          "internalType": "uint256",
          "name": "_amount",
          "type": "uint256"
        }
      ],
      "name": "ConsolidateFeeToken",
      "outputs": [],
      "stateMutability": "nonpayable",
      "type": "function"
    },
    {
      "inputs": [
        {
          "internalType": "address",
          "name": "_account",
          "type": "address"
        },
        {
          "internalType": "uint256",
          "name": "_shares",
          "type": "uint256"
        }
      ],
      "name": "addPayee",
      "outputs": [],
      "stateMutability": "nonpayable",
      "type": "function"
    },
    {
      "inputs": [
        {
          "internalType": "address",
          "name": "_account",
          "type": "address"
        },
        {
          "internalType": "uint256",
          "name": "_index",
          "type": "uint256"
        }
      ],
      "name": "removePayee",
      "outputs": [],
      "stateMutability": "nonpayable",
      "type": "function"
    }
  ],
  "bytecode": "0x60806040523480156200001157600080fd5b5060405162003b8138038062003b818339818101604052810190620000379190620006da565b81816200006b620000566200024a640100000000026401000000009004565b62000252640100000000026401000000009004565b8051825114620000b2576040517f08c379a0000000000000000000000000000000000000000000000000000000008152600401620000a990620008e8565b60405180910390fd5b6000825111620000f9576040517f08c379a0000000000000000000000000000000000000000000000000000000008152600401620000f0906200092c565b60405180910390fd5b60005b825181101562000171576200015b83828151811062000120576200011f62000b56565b5b60200260200101518383815181106200013e576200013d62000b56565b5b602002602001015162000316640100000000026401000000009004565b8080620001689062000ad9565b915050620000fc565b50505085600460006101000a81548173ffffffffffffffffffffffffffffffffffffffff021916908373ffffffffffffffffffffffffffffffffffffffff16021790555084600560006101000a81548173ffffffffffffffffffffffffffffffffffffffff021916908373ffffffffffffffffffffffffffffffffffffffff16021790555083600660006101000a81548173ffffffffffffffffffffffffffffffffffffffff021916908373ffffffffffffffffffffffffffffffffffffffff1602179055508260098190555050505050505062000d4c565b600033905090565b60008060009054906101000a900473ffffffffffffffffffffffffffffffffffffffff169050816000806101000a81548173ffffffffffffffffffffffffffffffffffffffff021916908373ffffffffffffffffffffffffffffffffffffffff1602179055508173ffffffffffffffffffffffffffffffffffffffff168173ffffffffffffffffffffffffffffffffffffffff167f8be0079c531659141344cd1fd0a4f28419497f9722a3daafe3b4186f6b6457e060405160405180910390a35050565b600073ffffffffffffffffffffffffffffffffffffffff168273ffffffffffffffffffffffffffffffffffffffff16141562000389576040517f08c379a00000000000000000000000000000000000000000000000000000000081526004016200038090620008c6565b60405180910390fd5b60008111620003cf576040517f08c379a0000000000000000000000000000000000000000000000000000000008152600401620003c6906200094e565b60405180910390fd5b6000600260008473ffffffffffffffffffffffffffffffffffffffff1673ffffffffffffffffffffffffffffffffffffffff168152602001908152602001600020541462000454576040517f08c379a00000000000000000000000000000000000000000000000000000000081526004016200044b906200090a565b60405180910390fd5b6003829080600181540180825580915050600190039060005260206000200160009091909190916101000a81548173ffffffffffffffffffffffffffffffffffffffff021916908373ffffffffffffffffffffffffffffffffffffffff16021790555080600260008473ffffffffffffffffffffffffffffffffffffffff1673ffffffffffffffffffffffffffffffffffffffff16815260200190815260200160002081905550806001546200050b919062000a08565b6001819055507f40c340f65e17194d14ddddb073d3c9f888e3cb52b5aae0c6c7706b4fbc905fac82826040516200054492919062000899565b60405180910390a15050565b600062000567620005618462000999565b62000970565b905080838252602082019050828560208602820111156200058d576200058c62000bb9565b5b60005b85811015620005c15781620005a6888262000646565b84526020840193506020830192505060018101905062000590565b5050509392505050565b6000620005e2620005dc84620009c8565b62000970565b9050808382526020820190508285602086028201111562000608576200060762000bb9565b5b60005b858110156200063c5781620006218882620006c3565b8452602084019350602083019250506001810190506200060b565b5050509392505050565b600081519050620006578162000d18565b92915050565b600082601f83011262000675576200067462000bb4565b5b81516200068784826020860162000550565b91505092915050565b600082601f830112620006a857620006a762000bb4565b5b8151620006ba848260208601620005cb565b91505092915050565b600081519050620006d48162000d32565b92915050565b60008060008060008060c08789031215620006fa57620006f962000bc3565b5b60006200070a89828a0162000646565b96505060206200071d89828a0162000646565b95505060406200073089828a0162000646565b94505060606200074389828a01620006c3565b935050608087015167ffffffffffffffff81111562000767576200076662000bbe565b5b6200077589828a016200065d565b92505060a087015167ffffffffffffffff81111562000799576200079862000bbe565b5b620007a789828a0162000690565b9150509295509295509295565b620007bf8162000a65565b82525050565b6000620007d4602c83620009f7565b9150620007e18262000bd9565b604082019050919050565b6000620007fb603283620009f7565b9150620008088262000c28565b604082019050919050565b600062000822602b83620009f7565b91506200082f8262000c77565b604082019050919050565b600062000849601a83620009f7565b9150620008568262000cc6565b602082019050919050565b600062000870601d83620009f7565b91506200087d8262000cef565b602082019050919050565b620008938162000a99565b82525050565b6000604082019050620008b06000830185620007b4565b620008bf602083018462000888565b9392505050565b60006020820190508181036000830152620008e181620007c5565b9050919050565b600060208201905081810360008301526200090381620007ec565b9050919050565b60006020820190508181036000830152620009258162000813565b9050919050565b6000602082019050818103600083015262000947816200083a565b9050919050565b60006020820190508181036000830152620009698162000861565b9050919050565b60006200097c6200098f565b90506200098a828262000aa3565b919050565b6000604051905090565b600067ffffffffffffffff821115620009b757620009b662000b85565b5b602082029050602081019050919050565b600067ffffffffffffffff821115620009e657620009e562000b85565b5b602082029050602081019050919050565b600082825260208201905092915050565b600062000a158262000a99565b915062000a228362000a99565b9250827fffffffffffffffffffffffffffffffffffffffffffffffffffffffffffffffff0382111562000a5a5762000a5962000b27565b5b828201905092915050565b600062000a728262000a79565b9050919050565b600073ffffffffffffffffffffffffffffffffffffffff82169050919050565b6000819050919050565b62000aae8262000bc8565b810181811067ffffffffffffffff8211171562000ad05762000acf62000b85565b5b80604052505050565b600062000ae68262000a99565b91507fffffffffffffffffffffffffffffffffffffffffffffffffffffffffffffffff82141562000b1c5762000b1b62000b27565b5b600182019050919050565b7f4e487b7100000000000000000000000000000000000000000000000000000000600052601160045260246000fd5b7f4e487b7100000000000000000000000000000000000000000000000000000000600052603260045260246000fd5b7f4e487b7100000000000000000000000000000000000000000000000000000000600052604160045260246000fd5b600080fd5b600080fd5b600080fd5b600080fd5b6000601f19601f8301169050919050565b7f5061796d656e7453706c69747465723a206163636f756e74206973207468652060008201527f7a65726f20616464726573730000000000000000000000000000000000000000602082015250565b7f5061796d656e7453706c69747465723a2070617965657320616e64207368617260008201527f6573206c656e677468206d69736d617463680000000000000000000000000000602082015250565b7f5061796d656e7453706c69747465723a206163636f756e7420616c726561647960008201527f2068617320736861726573000000000000000000000000000000000000000000602082015250565b7f5061796d656e7453706c69747465723a206e6f20706179656573000000000000600082015250565b7f5061796d656e7453706c69747465723a20736861726573206172652030000000600082015250565b62000d238162000a65565b811462000d2f57600080fd5b50565b62000d3d8162000a99565b811462000d4957600080fd5b50565b612e258062000d5c6000396000f3fe608060405234801561001057600080fd5b506004361061016a576000357c0100000000000000000000000000000000000000000000000000000000900480638b83209b116100e0578063e1c941dc11610099578063e1c941dc1461036f578063e9e15b4f1461038b578063f103462c146103a7578063f11f77f9146103c3578063f2fde38b146103e1578063f6837157146103fd5761016a565b80638b83209b1461029b5780638da5cb5b146102cb57806390b2dd57146102e9578063b21285ce14610307578063b6a9a33414610323578063ce7c2ac21461033f5761016a565b806370cb39321161013257806370cb3932146101ff578063715018a61461021d57806373b411cb1461022757806376aa3fef1461024557806384e45c3d14610261578063851073671461027d5761016a565b80631755ff211461016f57806318f9b0231461018d57806323471d18146101a95780633a98ef39146101c55780635ff162ca146101e3575b600080fd5b61017761041b565b60405161018491906123b8565b60405180910390f35b6101a760048036038101906101a29190611e27565b610441565b005b6101c360048036038101906101be9190611dfa565b6104cb565b005b6101cd61058b565b6040516101da919061266a565b60405180910390f35b6101fd60048036038101906101f89190611ed6565b610595565b005b61020761062e565b60405161021491906123b8565b60405180910390f35b610225610654565b005b61022f6106dc565b60405161023c91906123b8565b60405180910390f35b61025f600480360381019061025a9190611f30565b610702565b005b61027b60048036038101906102769190611e27565b610788565b005b610285610812565b60405161029291906123b8565b60405180910390f35b6102b560048036038101906102b09190611f30565b610838565b6040516102c291906123b8565b60405180910390f35b6102d3610880565b6040516102e091906123b8565b60405180910390f35b6102f16108a9565b6040516102fe9190612494565b60405180910390f35b610321600480360381019061031c9190611dfa565b6108bc565b005b61033d60048036038101906103389190611f30565b61097c565b005b61035960048036038101906103549190611dfa565b610a02565b604051610366919061266a565b60405180910390f35b61038960048036038101906103849190611e67565b610a4b565b005b6103a560048036038101906103a09190611dfa565b610f57565b005b6103c160048036038101906103bc9190611dfa565b611017565b005b6103cb6110d7565b6040516103d8919061266a565b60405180910390f35b6103fb60048036038101906103f69190611dfa565b6110dd565b005b6104056111d5565b604051610412919061266a565b60405180910390f35b600560009054906101000a900473ffffffffffffffffffffffffffffffffffffffff1681565b6104496111db565b73ffffffffffffffffffffffffffffffffffffffff16610467610880565b73ffffffffffffffffffffffffffffffffffffffff16146104bd576040517f08c379a00000000000000000000000000000000000000000000000000000000081526004016104b4906125ca565b60405180910390fd5b6104c782826111e3565b5050565b6104d36111db565b73ffffffffffffffffffffffffffffffffffffffff166104f1610880565b73ffffffffffffffffffffffffffffffffffffffff1614610547576040517f08c379a000000000000000000000000000000000000000000000000000000000815260040161053e906125ca565b60405180910390fd5b80600760006101000a81548173ffffffffffffffffffffffffffffffffffffffff021916908373ffffffffffffffffffffffffffffffffffffffff16021790555050565b6000600154905090565b61059d6111db565b73ffffffffffffffffffffffffffffffffffffffff166105bb610880565b73ffffffffffffffffffffffffffffffffffffffff1614610611576040517f08c379a0000000000000000000000000000000000000000000000000000000008152600401610608906125ca565b60405180910390fd5b80600a60006101000a81548160ff02191690831515021790555050565b600660009054906101000a900473ffffffffffffffffffffffffffffffffffffffff1681565b61065c6111db565b73ffffffffffffffffffffffffffffffffffffffff1661067a610880565b73ffffffffffffffffffffffffffffffffffffffff16146106d0576040517f08c379a00000000000000000000000000000000000000000000000000000000081526004016106c7906125ca565b60405180910390fd5b6106da6000611410565b565b600460009054906101000a900473ffffffffffffffffffffffffffffffffffffffff1681565b61070a6111db565b73ffffffffffffffffffffffffffffffffffffffff16610728610880565b73ffffffffffffffffffffffffffffffffffffffff161461077e576040517f08c379a0000000000000000000000000000000000000000000000000000000008152600401610775906125ca565b60405180910390fd5b8060098190555050565b6107906111db565b73ffffffffffffffffffffffffffffffffffffffff166107ae610880565b73ffffffffffffffffffffffffffffffffffffffff1614610804576040517f08c379a00000000000000000000000000000000000000000000000000000000081526004016107fb906125ca565b60405180910390fd5b61080e82826114d4565b5050565b600760009054906101000a900473ffffffffffffffffffffffffffffffffffffffff1681565b60006003828154811061084e5761084d612b06565b5b9060005260206000200160009054906101000a900473ffffffffffffffffffffffffffffffffffffffff169050919050565b60008060009054906101000a900473ffffffffffffffffffffffffffffffffffffffff16905090565b600a60009054906101000a900460ff1681565b6108c46111db565b73ffffffffffffffffffffffffffffffffffffffff166108e2610880565b73ffffffffffffffffffffffffffffffffffffffff1614610938576040517f08c379a000000000000000000000000000000000000000000000000000000000815260040161092f906125ca565b60405180910390fd5b80600460006101000a81548173ffffffffffffffffffffffffffffffffffffffff021916908373ffffffffffffffffffffffffffffffffffffffff16021790555050565b6109846111db565b73ffffffffffffffffffffffffffffffffffffffff166109a2610880565b73ffffffffffffffffffffffffffffffffffffffff16146109f8576040517f08c379a00000000000000000000000000000000000000000000000000000000081526004016109ef906125ca565b60405180910390fd5b8060088190555050565b6000600260008373ffffffffffffffffffffffffffffffffffffffff1673ffffffffffffffffffffffffffffffffffffffff168152602001908152602001600020549050919050565b600a60009054906101000a900460ff1615610aa957610a6933611838565b610aa8576040517f08c379a0000000000000000000000000000000000000000000000000000000008152600401610a9f9061260a565b60405180910390fd5b5b600560009054906101000a900473ffffffffffffffffffffffffffffffffffffffff1673ffffffffffffffffffffffffffffffffffffffff16634eef70e48484846040518463ffffffff167c0100000000000000000000000000000000000000000000000000000000028152600401610b2493929190612456565b600060405180830381600087803b158015610b3e57600080fd5b505af1158015610b52573d6000803e3d6000fd5b50505050600080600660009054906101000a900473ffffffffffffffffffffffffffffffffffffffff1673ffffffffffffffffffffffffffffffffffffffff1663085e2c5b85600460009054906101000a900473ffffffffffffffffffffffffffffffffffffffff16866000806040518663ffffffff167c0100000000000000000000000000000000000000000000000000000000028152600401610bfb9594939291906124af565b60006040518083038186803b158015610c1357600080fd5b505afa158015610c27573d6000803e3d6000fd5b505050506040513d6000823e3d601f19601f82011682018060405250810190610c509190611f8a565b91509150600660009054906101000a900473ffffffffffffffffffffffffffffffffffffffff1673ffffffffffffffffffffffffffffffffffffffff1663e2a7515e85600460009054906101000a900473ffffffffffffffffffffffffffffffffffffffff1686868660006040518763ffffffff167c0100000000000000000000000000000000000000000000000000000000028152600401610cf896959493929190612502565b602060405180830381600087803b158015610d1257600080fd5b505af1158015610d26573d6000803e3d6000fd5b505050506040513d601f19601f82011682018060405250810190610d4a9190611f5d565b506000610d756064610d676009548761192690919063ffffffff16565b61193c90919063ffffffff16565b9050610da433600460009054906101000a900473ffffffffffffffffffffffffffffffffffffffff1683611952565b6000610db98286611aee90919063ffffffff16565b905060005b600380549050811015610eeb5760006001546002600060038581548110610de857610de7612b06565b5b9060005260206000200160009054906101000a900473ffffffffffffffffffffffffffffffffffffffff1673ffffffffffffffffffffffffffffffffffffffff1673ffffffffffffffffffffffffffffffffffffffff16815260200190815260200160002054610e58919061287e565b9050610ed760038381548110610e7157610e70612b06565b5b9060005260206000200160009054906101000a900473ffffffffffffffffffffffffffffffffffffffff16600460009054906101000a900473ffffffffffffffffffffffffffffffffffffffff16610ed2848761192690919063ffffffff16565b611952565b508080610ee390612a30565b915050610dbe565b507f261df384dc63e9de53c9811f4a93c7fc0cbba42af8be50131c04944cef7daf723387600460009054906101000a900473ffffffffffffffffffffffffffffffffffffffff16886003604051610f469594939291906123d3565b60405180910390a150505050505050565b610f5f6111db565b73ffffffffffffffffffffffffffffffffffffffff16610f7d610880565b73ffffffffffffffffffffffffffffffffffffffff1614610fd3576040517f08c379a0000000000000000000000000000000000000000000000000000000008152600401610fca906125ca565b60405180910390fd5b80600560006101000a81548173ffffffffffffffffffffffffffffffffffffffff021916908373ffffffffffffffffffffffffffffffffffffffff16021790555050565b61101f6111db565b73ffffffffffffffffffffffffffffffffffffffff1661103d610880565b73ffffffffffffffffffffffffffffffffffffffff1614611093576040517f08c379a000000000000000000000000000000000000000000000000000000000815260040161108a906125ca565b60405180910390fd5b80600660006101000a81548173ffffffffffffffffffffffffffffffffffffffff021916908373ffffffffffffffffffffffffffffffffffffffff16021790555050565b60085481565b6110e56111db565b73ffffffffffffffffffffffffffffffffffffffff16611103610880565b73ffffffffffffffffffffffffffffffffffffffff1614611159576040517f08c379a0000000000000000000000000000000000000000000000000000000008152600401611150906125ca565b60405180910390fd5b600073ffffffffffffffffffffffffffffffffffffffff168173ffffffffffffffffffffffffffffffffffffffff1614156111c9576040517f08c379a00000000000000000000000000000000000000000000000000000000081526004016111c09061258a565b60405180910390fd5b6111d281611410565b50565b60095481565b600033905090565b600073ffffffffffffffffffffffffffffffffffffffff168273ffffffffffffffffffffffffffffffffffffffff161415611253576040517f08c379a000000000000000000000000000000000000000000000000000000000815260040161124a9061256a565b60405180910390fd5b60008111611296576040517f08c379a000000000000000000000000000000000000000000000000000000000815260040161128d9061264a565b60405180910390fd5b6000600260008473ffffffffffffffffffffffffffffffffffffffff1673ffffffffffffffffffffffffffffffffffffffff1681526020019081526020016000205414611318576040517f08c379a000000000000000000000000000000000000000000000000000000000815260040161130f9061262a565b60405180910390fd5b6003829080600181540180825580915050600190039060005260206000200160009091909190916101000a81548173ffffffffffffffffffffffffffffffffffffffff021916908373ffffffffffffffffffffffffffffffffffffffff16021790555080600260008473ffffffffffffffffffffffffffffffffffffffff1673ffffffffffffffffffffffffffffffffffffffff16815260200190815260200160002081905550806001546113cd9190612828565b6001819055507f40c340f65e17194d14ddddb073d3c9f888e3cb52b5aae0c6c7706b4fbc905fac828260405161140492919061242d565b60405180910390a15050565b60008060009054906101000a900473ffffffffffffffffffffffffffffffffffffffff169050816000806101000a81548173ffffffffffffffffffffffffffffffffffffffff021916908373ffffffffffffffffffffffffffffffffffffffff1602179055508173ffffffffffffffffffffffffffffffffffffffff168173ffffffffffffffffffffffffffffffffffffffff167f8be0079c531659141344cd1fd0a4f28419497f9722a3daafe3b4186f6b6457e060405160405180910390a35050565b600073ffffffffffffffffffffffffffffffffffffffff168273ffffffffffffffffffffffffffffffffffffffff161415611544576040517f08c379a000000000000000000000000000000000000000000000000000000000815260040161153b9061256a565b60405180910390fd5b6000600260008473ffffffffffffffffffffffffffffffffffffffff1673ffffffffffffffffffffffffffffffffffffffff16815260200190815260200160002054116115c6576040517f08c379a00000000000000000000000000000000000000000000000000000000081526004016115bd9061264a565b60405180910390fd5b600381815481106115da576115d9612b06565b5b9060005260206000200160009054906101000a900473ffffffffffffffffffffffffffffffffffffffff1673ffffffffffffffffffffffffffffffffffffffff168273ffffffffffffffffffffffffffffffffffffffff1614611672576040517f08c379a0000000000000000000000000000000000000000000000000000000008152600401611669906125ea565b60405180910390fd5b600260008373ffffffffffffffffffffffffffffffffffffffff1673ffffffffffffffffffffffffffffffffffffffff168152602001908152602001600020546001546116bf9190612909565b6001819055506000600260008473ffffffffffffffffffffffffffffffffffffffff1673ffffffffffffffffffffffffffffffffffffffff168152602001908152602001600020819055506003600160038054905061171e9190612909565b8154811061172f5761172e612b06565b5b9060005260206000200160009054906101000a900473ffffffffffffffffffffffffffffffffffffffff166003828154811061176e5761176d612b06565b5b9060005260206000200160006101000a81548173ffffffffffffffffffffffffffffffffffffffff021916908373ffffffffffffffffffffffffffffffffffffffff16021790555060038054806117c8576117c7612ad7565b5b6001900381819060005260206000200160006101000a81549073ffffffffffffffffffffffffffffffffffffffff021916905590557fc2ee819acfe1baf117c2aac9d3f627a864f075d2fecc990eebd82d59f26626058260405161182c91906123b8565b60405180910390a15050565b600080600760009054906101000a900473ffffffffffffffffffffffffffffffffffffffff16905060006008548273ffffffffffffffffffffffffffffffffffffffff166370a08231866040518263ffffffff167c01000000000000000000000000000000000000000000000000000000000281526004016118ba91906123b8565b60206040518083038186803b1580156118d257600080fd5b505afa1580156118e6573d6000803e3d6000fd5b505050506040513d601f19601f8201168201806040525081019061190a9190611f5d565b101561191757600061191a565b60015b90508092505050919050565b6000818361193491906128af565b905092915050565b6000818361194a919061287e565b905092915050565b6000829050818173ffffffffffffffffffffffffffffffffffffffff166370a08231306040518263ffffffff167c01000000000000000000000000000000000000000000000000000000000281526004016119ad91906123b8565b60206040518083038186803b1580156119c557600080fd5b505afa1580156119d9573d6000803e3d6000fd5b505050506040513d601f19601f820116820180604052508101906119fd9190611f5d565b1015611a3e576040517f08c379a0000000000000000000000000000000000000000000000000000000008152600401611a35906125aa565b60405180910390fd5b8073ffffffffffffffffffffffffffffffffffffffff1663a9059cbb85846040518363ffffffff167c0100000000000000000000000000000000000000000000000000000000028152600401611a9592919061242d565b602060405180830381600087803b158015611aaf57600080fd5b505af1158015611ac3573d6000803e3d6000fd5b505050506040513d601f19601f82011682018060405250810190611ae79190611f03565b5050505050565b60008183611afc9190612909565b905092915050565b6000611b17611b12846126aa565b612685565b90508083825260208201905082856020860282011115611b3a57611b39612b86565b5b60005b85811015611b6a5781611b508882611d3b565b845260208401935060208301925050600181019050611b3d565b5050509392505050565b6000611b87611b82846126d6565b612685565b90508083825260208201905082856020860282011115611baa57611ba9612b86565b5b60005b85811015611bf857813567ffffffffffffffff811115611bd057611bcf612b77565b5b808601611bdd8982611d50565b85526020850194506020840193505050600181019050611bad565b5050509392505050565b6000611c15611c1084612702565b612685565b90508083825260208201905082856020860282011115611c3857611c37612b86565b5b60005b85811015611c685781611c4e8882611de5565b845260208401935060208301925050600181019050611c3b565b5050509392505050565b600081359050611c8181612d93565b92915050565b600082601f830112611c9c57611c9b612b77565b5b8135611cac848260208601611b04565b91505092915050565b600082601f830112611cca57611cc9612b77565b5b8135611cda848260208601611b74565b91505092915050565b600082601f830112611cf857611cf7612b77565b5b8151611d08848260208601611c02565b91505092915050565b600081359050611d2081612daa565b92915050565b600081519050611d3581612daa565b92915050565b600081359050611d4a81612dc1565b92915050565b600060608284031215611d6657611d65612b7c565b5b611d706060612685565b90506000611d8084828501611d3b565b6000830152506020611d9484828501611dd0565b602083015250604082013567ffffffffffffffff811115611db857611db7612b81565b5b611dc484828501611c87565b60408301525092915050565b600081359050611ddf81612dd8565b92915050565b600081519050611df481612dd8565b92915050565b600060208284031215611e1057611e0f612b90565b5b6000611e1e84828501611c72565b91505092915050565b60008060408385031215611e3e57611e3d612b90565b5b6000611e4c85828601611c72565b9250506020611e5d85828601611dd0565b9150509250929050565b600080600060608486031215611e8057611e7f612b90565b5b600084013567ffffffffffffffff811115611e9e57611e9d612b8b565b5b611eaa86828701611cb5565b9350506020611ebb86828701611c72565b9250506040611ecc86828701611dd0565b9150509250925092565b600060208284031215611eec57611eeb612b90565b5b6000611efa84828501611d11565b91505092915050565b600060208284031215611f1957611f18612b90565b5b6000611f2784828501611d26565b91505092915050565b600060208284031215611f4657611f45612b90565b5b6000611f5484828501611dd0565b91505092915050565b600060208284031215611f7357611f72612b90565b5b6000611f8184828501611de5565b91505092915050565b60008060408385031215611fa157611fa0612b90565b5b6000611faf85828601611de5565b925050602083015167ffffffffffffffff811115611fd057611fcf612b8b565b5b611fdc85828601611ce3565b9150509250929050565b6000611ff28383612042565b60208301905092915050565b600061200a8383612205565b60208301905092915050565b6000612022838361234a565b905092915050565b6000612036838361239a565b60208301905092915050565b61204b8161295d565b82525050565b61205a8161295d565b82525050565b600061206b82612773565b61207581856127d3565b93506120808361272e565b8060005b838110156120b85761209582612b64565b61209f8882611fe6565b97506120aa8361279f565b925050600181019050612084565b5085935050505092915050565b60006120d08261277e565b6120da81856127e4565b93506120e583612743565b8060005b838110156121165781516120fd8882611ffe565b9750612108836127ac565b9250506001810190506120e9565b5085935050505092915050565b600061212e82612789565b61213881856127f5565b93508360208202850161214a85612753565b8060005b8581101561218657848403895281516121678582612016565b9450612172836127b9565b925060208a0199505060018101905061214e565b50829750879550505050505092915050565b60006121a382612794565b6121ad8185612806565b93506121b883612763565b8060005b838110156121e95781516121d0888261202a565b97506121db836127c6565b9250506001810190506121bc565b5085935050505092915050565b6121ff8161296f565b82525050565b61220e8161297b565b82525050565b61221d816129af565b82525050565b61222c816129d3565b82525050565b600061223f602c83612817565b915061224a82612bb3565b604082019050919050565b6000612262602683612817565b915061226d82612c02565b604082019050919050565b6000612285601c83612817565b915061229082612c51565b602082019050919050565b60006122a8602083612817565b91506122b382612c7a565b602082019050919050565b60006122cb603983612817565b91506122d682612ca3565b604082019050919050565b60006122ee601883612817565b91506122f982612cf2565b602082019050919050565b6000612311602b83612817565b915061231c82612d1b565b604082019050919050565b6000612334601d83612817565b915061233f82612d6a565b602082019050919050565b60006060830160008301516123626000860182612205565b506020830151612375602086018261239a565b506040830151848203604086015261238d82826120c5565b9150508091505092915050565b6123a3816129a5565b82525050565b6123b2816129a5565b82525050565b60006020820190506123cd6000830184612051565b92915050565b600060a0820190506123e86000830188612051565b6123f56020830187612214565b6124026040830186612214565b61240f60608301856123a9565b81810360808301526124218184612060565b90509695505050505050565b60006040820190506124426000830185612051565b61244f60208301846123a9565b9392505050565b600060608201905081810360008301526124708186612123565b905061247f6020830185612214565b61248c60408301846123a9565b949350505050565b60006020820190506124a960008301846121f6565b92915050565b600060a0820190506124c46000830188612214565b6124d16020830187612214565b6124de60408301866123a9565b6124eb6060830185612223565b6124f86080830184612223565b9695505050505050565b600060c0820190506125176000830189612214565b6125246020830188612214565b61253160408301876123a9565b61253e60608301866123a9565b81810360808301526125508185612198565b905061255f60a0830184612223565b979650505050505050565b6000602082019050818103600083015261258381612232565b9050919050565b600060208201905081810360008301526125a381612255565b9050919050565b600060208201905081810360008301526125c381612278565b9050919050565b600060208201905081810360008301526125e38161229b565b9050919050565b60006020820190508181036000830152612603816122be565b9050919050565b60006020820190508181036000830152612623816122e1565b9050919050565b6000602082019050818103600083015261264381612304565b9050919050565b6000602082019050818103600083015261266381612327565b9050919050565b600060208201905061267f60008301846123a9565b92915050565b600061268f6126a0565b905061269b82826129ff565b919050565b6000604051905090565b600067ffffffffffffffff8211156126c5576126c4612b35565b5b602082029050602081019050919050565b600067ffffffffffffffff8211156126f1576126f0612b35565b5b602082029050602081019050919050565b600067ffffffffffffffff82111561271d5761271c612b35565b5b602082029050602081019050919050565b60008190508160005260206000209050919050565b6000819050602082019050919050565b6000819050602082019050919050565b6000819050602082019050919050565b600081549050919050565b600081519050919050565b600081519050919050565b600081519050919050565b6000600182019050919050565b6000602082019050919050565b6000602082019050919050565b6000602082019050919050565b600082825260208201905092915050565b600082825260208201905092915050565b600082825260208201905092915050565b600082825260208201905092915050565b600082825260208201905092915050565b6000612833826129a5565b915061283e836129a5565b9250827fffffffffffffffffffffffffffffffffffffffffffffffffffffffffffffffff0382111561287357612872612a79565b5b828201905092915050565b6000612889826129a5565b9150612894836129a5565b9250826128a4576128a3612aa8565b5b828204905092915050565b60006128ba826129a5565b91506128c5836129a5565b9250817fffffffffffffffffffffffffffffffffffffffffffffffffffffffffffffffff04831182151516156128fe576128fd612a79565b5b828202905092915050565b6000612914826129a5565b915061291f836129a5565b92508282101561293257612931612a79565b5b828203905092915050565b600073ffffffffffffffffffffffffffffffffffffffff82169050919050565b600061296882612985565b9050919050565b60008115159050919050565b6000819050919050565b600073ffffffffffffffffffffffffffffffffffffffff82169050919050565b6000819050919050565b60006129ba826129c1565b9050919050565b60006129cc82612985565b9050919050565b60006129de826129a5565b9050919050565b60006129f86129f383612ba6565b61293d565b9050919050565b612a0882612b95565b810181811067ffffffffffffffff82111715612a2757612a26612b35565b5b80604052505050565b6000612a3b826129a5565b91507fffffffffffffffffffffffffffffffffffffffffffffffffffffffffffffffff821415612a6e57612a6d612a79565b5b600182019050919050565b7f4e487b7100000000000000000000000000000000000000000000000000000000600052601160045260246000fd5b7f4e487b7100000000000000000000000000000000000000000000000000000000600052601260045260246000fd5b7f4e487b7100000000000000000000000000000000000000000000000000000000600052603160045260246000fd5b7f4e487b7100000000000000000000000000000000000000000000000000000000600052603260045260246000fd5b7f4e487b7100000000000000000000000000000000000000000000000000000000600052604160045260246000fd5b6000612b7082546129e5565b9050919050565b600080fd5b600080fd5b600080fd5b600080fd5b600080fd5b600080fd5b6000601f19601f8301169050919050565b6000600182049050919050565b7f5061796d656e7453706c69747465723a206163636f756e74206973207468652060008201527f7a65726f20616464726573730000000000000000000000000000000000000000602082015250565b7f4f776e61626c653a206e6577206f776e657220697320746865207a65726f206160008201527f6464726573730000000000000000000000000000000000000000000000000000602082015250565b7f4e6f7420656e6f7567682066756e647320746f207472616e7366657200000000600082015250565b7f4f776e61626c653a2063616c6c6572206973206e6f7420746865206f776e6572600082015250565b7f5061796d656e7453706c69747465723a206163636f756e7420646f6573206e6f60008201527f74206d6174636820706179656520617272617920696e64657800000000000000602082015250565b7f4e6f7420656e6f756768207374616b656420746f6b656e730000000000000000600082015250565b7f5061796d656e7453706c69747465723a206163636f756e7420616c726561647960008201527f2068617320736861726573000000000000000000000000000000000000000000602082015250565b7f5061796d656e7453706c69747465723a20736861726573206172652030000000600082015250565b612d9c8161295d565b8114612da757600080fd5b50565b612db38161296f565b8114612dbe57600080fd5b50565b612dca8161297b565b8114612dd557600080fd5b50565b612de1816129a5565b8114612dec57600080fd5b5056fea2646970667358221220b6659650a240ea39e02e8fda6e23fb9be2c121ab309b8a2df9501ad58299032d64736f6c63430008050033",
  "immutableReferences": {},
  "source": "// SPDX-License-Identifier: MIT\n\npragma solidity ^0.8.5;\n\nimport \"@openzeppelin/contracts/token/ERC20/IERC20.sol\";\nimport \"@openzeppelin/contracts/access/Ownable.sol\";\nimport \"@openzeppelin/contracts/utils/math/SafeMath.sol\";\nimport \"./TokenPaymentSplitter.sol\";\n\ninterface IOneSplitAudit {\n    function swap(\n        IERC20 fromToken,\n        IERC20 destToken,\n        uint256 amount,\n        uint256 minReturn,\n        uint256[] memory distribution,\n        uint256 flags\n    ) external payable returns (uint256 returnAmount);\n\n    function getExpectedReturn(\n        IERC20 fromToken,\n        IERC20 destToken,\n        uint256 amount,\n        uint256 parts,\n        uint256 flags // See constants in IOneSplit.sol\n    )\n        external\n        view\n        returns (uint256 returnAmount, uint256[] memory distribution);\n}\n\ninterface IPool {\n    /**\n     * @notice Structs\n     */\n    struct Claim {\n        bytes32 root;\n        uint256 score;\n        bytes32[] proof;\n    }\n\n    function withdrawProtected(\n        Claim[] memory claims,\n        IERC20 token,\n        uint256 minimumAmount\n    ) external;\n}\n\ncontract FeeReceiver is Ownable, TokenPaymentSplitter {\n    using SafeMath for uint256;\n\n    event FeeConsolidatation(\n        address triggerAccount,\n        IERC20 swapFrom,\n        IERC20 swapTo,\n        uint256 amount,\n        address[] recievedAddresses\n    );\n\n    address public swapToToken;\n\n    address public poolAddress;\n\n    address public oneSplitAudit;\n\n    address public stakeAddress;\n\n    uint256 public stakeThreshold;\n\n    uint256 public triggerFee;\n\n    bool public stakeActive;\n\n    /**\n     * @dev Set a new token to swap to (e.g., stabletoken).\n     **/ \n    function setSwapToToken(address _swapToToken) public onlyOwner {\n        swapToToken = _swapToToken;\n    }\n\n    /**\n     * @dev Set a new address of fee pool.\n     */\n    function setPoolAddress(address _poolAddress) public onlyOwner {\n        poolAddress = _poolAddress;\n    }\n\n    /**\n     * @dev Set a new address of on-chain AMM.\n     */\n    function setOneSplitAudit(address _oneSplitAudit) public onlyOwner {\n        oneSplitAudit = _oneSplitAudit;\n    }\n\n    /**\n     * @dev Set a new address of stake contract.\n     */\n    function setStakeAddress(address _stakeAddress) public onlyOwner {\n        stakeAddress = _stakeAddress;\n    }\n\n    /**\n     * @dev Set a new threshold for stake contract token balance.\n     */\n    function setStakeThreshold(uint256 _stakeThreshold) public onlyOwner {\n        stakeThreshold = _stakeThreshold;\n    }\n\n        /**\n     * @dev Set a if staking is required.\n     */\n    function setStakeActive(bool _switch) public onlyOwner {\n        stakeActive = _switch;\n    }\n\n    /**\n     * @dev Set a new fee (perentage 0 - 100) for calling the ConsolidateFeeToken function.\n     */\n    function setTriggerFee(uint256 _triggerFee) public onlyOwner {\n        triggerFee = _triggerFee;\n    }\n\n    constructor(\n        address _swapToToken,\n        address _poolAddress,\n        address _oneSplitAudit,\n        uint256 _triggerFee,\n        address[] memory payees,\n        uint256[] memory shares_\n    ) TokenPaymentSplitter(payees, shares_) {\n        swapToToken = _swapToToken;\n        poolAddress = _poolAddress;\n        oneSplitAudit = _oneSplitAudit;\n        triggerFee = _triggerFee;\n    }\n\n    /**\n     * @dev Set a new fee (perentage 0 - 100) for calling the ConsolidateFeeToken function.\n     * @param _claims The claim struct necessary to withdraw from the fee pool.\n     * @param _swapFromToken The token from the fee pool to be swapped from.\n     * @param _amount The amount of token from the fee pool to be swapped and distributed.\n     */\n    function ConsolidateFeeToken(\n        IPool.Claim[] memory _claims,\n        address _swapFromToken,\n        uint256 _amount\n    ) public {\n\n        if (stakeActive) {\n            require(checkStake(msg.sender), \"Not enough staked tokens\");\n        }\n\n        // Calls the withdrawProtected function from the fee pool to transfer tokens into this contract.\n        IPool(poolAddress).withdrawProtected(\n            _claims,\n            IERC20(_swapFromToken),\n            _amount\n        );\n\n        // Calls the getExpectedReturn function from the on-chain AMM and catches result.\n        (uint256 _expected, uint256[] memory _distribution) = IOneSplitAudit(\n            oneSplitAudit\n        ).getExpectedReturn(\n            IERC20(_swapFromToken),\n            IERC20(swapToToken),\n            _amount,\n            0,\n            0\n        );\n\n        // Calls the swap function from the on-chain AMM to swap token from fee pool into (stable)token.\n        IOneSplitAudit(oneSplitAudit).swap(\n            IERC20(_swapFromToken),\n            IERC20(swapToToken),\n            _amount,\n            _expected,\n            _distribution,\n            0\n        );\n\n        // Calculates trigger reward amount and transfers to msg.sender.\n        uint256 triggerFeeAmount = _amount.mul(triggerFee).div(100);\n        _transferErc20(msg.sender, swapToToken, triggerFeeAmount);\n\n        // Transfers remaining amount to reward pool address(es).\n        uint256 rewardPoolAmount = _amount.sub(triggerFeeAmount);\n        for (uint256 i = 0; i < _payees.length; i++) {\n            uint256 distributionRatio = (_shares[_payees[i]] / _totalShares);\n            _transferErc20(\n                _payees[i],\n                swapToToken,\n                rewardPoolAmount.mul(distributionRatio)\n            );\n        }\n\n        emit FeeConsolidatation(\n            msg.sender,\n            IERC20(_swapFromToken),\n            IERC20(swapToToken),\n            _amount,\n            _payees\n        );\n    }\n\n    /**\n     * @dev Internal function to transfer ERC20 held in the contract.\n     *\n     * */\n    function _transferErc20(\n        address _recipient,\n        address _tokenContract,\n        uint256 _returnAmount\n    ) internal {\n        IERC20 erc;\n        erc = IERC20(_tokenContract);\n        require(\n            erc.balanceOf(address(this)) >= _returnAmount,\n            \"Not enough funds to transfer\"\n        );\n        erc.transfer(_recipient, _returnAmount);\n    }\n\n    /**\n     * @dev Checks if an address is staking tokens at or above threshold.\n     * @param _staker Address to check if token staker.\n     */\n    function checkStake(address _staker) internal view returns(bool) {\n        IERC20 erc;\n        erc = IERC20(stakeAddress);\n        bool verifiedStaker = (erc.balanceOf(_staker) >= stakeThreshold) ? true : false;\n        return verifiedStaker;\n    }\n\n    /**\n     * @dev Add a recipient to receive payouts from the consolidateFeeToken function.\n     * @param _account Address of the recipient.\n     * @param _shares Amount of shares to determine th proportion of payout received.\n     */\n    function addPayee(address _account, uint256 _shares) public onlyOwner {\n        _addPayee(_account, _shares);\n    }\n\n    /**\n     * @dev Remove a recipient from receiving payouts from the consolidateFeeToken function.\n     * @param _account Address of the recipient.\n     * @param _index Index number of the recipient in the array of recipients.\n     */\n    function removePayee(address _account, uint256 _index) public onlyOwner {\n        _removePayee(_account, _index);\n    }\n}\n",
  "sourcePath": "C:/Users/mster/OneDrive/Documents/Dapp Projects/airswap-projects/AIP-26/contracts/FeeReceiver.sol",
  "compiler": {
    "name": "solc",
    "version": "0.8.5+commit.a4f2e591.Emscripten.clang"
  },
  "schemaVersion": "3.3.4",
  "updatedAt": "2021-07-23T20:29:15.438Z",
  "networkType": "ethereum",
  "devdoc": {
    "kind": "dev",
    "methods": {
      "ConsolidateFeeToken((bytes32,uint256,bytes32[])[],address,uint256)": {
        "details": "Set a new fee (perentage 0 - 100) for calling the ConsolidateFeeToken function.",
        "params": {
          "_amount": "The amount of token from the fee pool to be swapped and distributed.",
          "_claims": "The claim struct necessary to withdraw from the fee pool.",
          "_swapFromToken": "The token from the fee pool to be swapped from."
        }
      },
      "addPayee(address,uint256)": {
        "details": "Add a recipient to receive payouts from the consolidateFeeToken function.",
        "params": {
          "_account": "Address of the recipient.",
          "_shares": "Amount of shares to determine th proportion of payout received."
        }
      },
      "owner()": {
        "details": "Returns the address of the current owner."
      },
      "payee(uint256)": {
        "details": "Getter for the address of the payee number `index`."
      },
      "removePayee(address,uint256)": {
        "details": "Remove a recipient from receiving payouts from the consolidateFeeToken function.",
        "params": {
          "_account": "Address of the recipient.",
          "_index": "Index number of the recipient in the array of recipients."
        }
      },
      "renounceOwnership()": {
        "details": "Leaves the contract without owner. It will not be possible to call `onlyOwner` functions anymore. Can only be called by the current owner. NOTE: Renouncing ownership will leave the contract without an owner, thereby removing any functionality that is only available to the owner."
      },
      "setOneSplitAudit(address)": {
        "details": "Set a new address of on-chain AMM."
      },
      "setPoolAddress(address)": {
        "details": "Set a new address of fee pool."
      },
      "setStakeActive(bool)": {
        "details": "Set a if staking is required."
      },
      "setStakeAddress(address)": {
        "details": "Set a new address of stake contract."
      },
      "setStakeThreshold(uint256)": {
        "details": "Set a new threshold for stake contract token balance."
      },
      "setSwapToToken(address)": {
        "details": "Set a new token to swap to (e.g., stabletoken).*"
      },
      "setTriggerFee(uint256)": {
        "details": "Set a new fee (perentage 0 - 100) for calling the ConsolidateFeeToken function."
      },
      "shares(address)": {
        "details": "Getter for the amount of shares held by an account."
      },
      "totalShares()": {
        "details": "Getter for the total shares held by payees."
      },
      "transferOwnership(address)": {
        "details": "Transfers ownership of the contract to a new account (`newOwner`). Can only be called by the current owner."
      }
    },
    "version": 1
  },
  "userdoc": {
    "kind": "user",
    "methods": {},
    "version": 1
  }
}