{
  "contractName": "FeeReceiver",
  "abi": [
    {
      "inputs": [
        {
          "internalType": "address",
          "name": "_swapToToken",
          "type": "address"
        },
        {
          "internalType": "address",
          "name": "_poolAddress",
          "type": "address"
        },
        {
          "internalType": "address",
          "name": "_rewardsAddress",
          "type": "address"
        },
        {
          "internalType": "uint256",
          "name": "_triggerFee",
          "type": "uint256"
        },
        {
          "internalType": "address[]",
          "name": "payees",
          "type": "address[]"
        },
        {
          "internalType": "uint256[]",
          "name": "shares_",
          "type": "uint256[]"
        }
      ],
      "stateMutability": "nonpayable",
      "type": "constructor"
    },
    {
      "anonymous": false,
      "inputs": [
        {
          "indexed": false,
          "internalType": "address",
          "name": "triggerAccount",
          "type": "address"
        },
        {
          "indexed": false,
          "internalType": "contract IERC20",
          "name": "swapFrom",
          "type": "address"
        },
        {
          "indexed": false,
          "internalType": "contract IERC20",
          "name": "swapTo",
          "type": "address"
        },
        {
          "indexed": false,
          "internalType": "uint256",
          "name": "amount",
          "type": "uint256"
        },
        {
          "indexed": false,
          "internalType": "address[]",
          "name": "recievedAddresses",
          "type": "address[]"
        }
      ],
      "name": "FeeConsolidated",
      "type": "event"
    },
    {
      "anonymous": false,
      "inputs": [
        {
          "indexed": true,
          "internalType": "address",
          "name": "previousOwner",
          "type": "address"
        },
        {
          "indexed": true,
          "internalType": "address",
          "name": "newOwner",
          "type": "address"
        }
      ],
      "name": "OwnershipTransferred",
      "type": "event"
    },
    {
      "anonymous": false,
      "inputs": [
        {
          "indexed": false,
          "internalType": "address",
          "name": "account",
          "type": "address"
        },
        {
          "indexed": false,
          "internalType": "uint256",
          "name": "shares",
          "type": "uint256"
        }
      ],
      "name": "PayeeAdded",
      "type": "event"
    },
    {
      "anonymous": false,
      "inputs": [
        {
          "indexed": false,
          "internalType": "address",
          "name": "account",
          "type": "address"
        }
      ],
      "name": "PayeeRemoved",
      "type": "event"
    },
    {
      "anonymous": false,
      "inputs": [
        {
          "indexed": false,
          "internalType": "address",
          "name": "from",
          "type": "address"
        },
        {
          "indexed": false,
          "internalType": "uint256",
          "name": "amount",
          "type": "uint256"
        }
      ],
      "name": "PaymentReceived",
      "type": "event"
    },
    {
      "anonymous": false,
      "inputs": [
        {
          "indexed": false,
          "internalType": "address",
          "name": "to",
          "type": "address"
        },
        {
          "indexed": false,
          "internalType": "uint256",
          "name": "amount",
          "type": "uint256"
        }
      ],
      "name": "PaymentReleased",
      "type": "event"
    },
    {
      "inputs": [],
      "name": "oneSplitAudit",
      "outputs": [
        {
          "internalType": "address",
          "name": "",
          "type": "address"
        }
      ],
      "stateMutability": "view",
      "type": "function",
      "constant": true
    },
    {
      "inputs": [],
      "name": "owner",
      "outputs": [
        {
          "internalType": "address",
          "name": "",
          "type": "address"
        }
      ],
      "stateMutability": "view",
      "type": "function",
      "constant": true
    },
    {
      "inputs": [
        {
          "internalType": "uint256",
          "name": "index",
          "type": "uint256"
        }
      ],
      "name": "payee",
      "outputs": [
        {
          "internalType": "address",
          "name": "",
          "type": "address"
        }
      ],
      "stateMutability": "view",
      "type": "function",
      "constant": true
    },
    {
      "inputs": [],
      "name": "poolAddress",
      "outputs": [
        {
          "internalType": "address",
          "name": "",
          "type": "address"
        }
      ],
      "stateMutability": "view",
      "type": "function",
      "constant": true
    },
    {
      "inputs": [],
      "name": "renounceOwnership",
      "outputs": [],
      "stateMutability": "nonpayable",
      "type": "function"
    },
    {
      "inputs": [],
      "name": "rewardsAddress",
      "outputs": [
        {
          "internalType": "address",
          "name": "",
          "type": "address"
        }
      ],
      "stateMutability": "view",
      "type": "function",
      "constant": true
    },
    {
      "inputs": [
        {
          "internalType": "address",
          "name": "account",
          "type": "address"
        }
      ],
      "name": "shares",
      "outputs": [
        {
          "internalType": "uint256",
          "name": "",
          "type": "uint256"
        }
      ],
      "stateMutability": "view",
      "type": "function",
      "constant": true
    },
    {
      "inputs": [],
      "name": "swapToToken",
      "outputs": [
        {
          "internalType": "address",
          "name": "",
          "type": "address"
        }
      ],
      "stateMutability": "view",
      "type": "function",
      "constant": true
    },
    {
      "inputs": [],
      "name": "totalShares",
      "outputs": [
        {
          "internalType": "uint256",
          "name": "",
          "type": "uint256"
        }
      ],
      "stateMutability": "view",
      "type": "function",
      "constant": true
    },
    {
      "inputs": [
        {
          "internalType": "address",
          "name": "newOwner",
          "type": "address"
        }
      ],
      "name": "transferOwnership",
      "outputs": [],
      "stateMutability": "nonpayable",
      "type": "function"
    },
    {
      "inputs": [],
      "name": "triggerFee",
      "outputs": [
        {
          "internalType": "uint256",
          "name": "",
          "type": "uint256"
        }
      ],
      "stateMutability": "view",
      "type": "function",
      "constant": true
    },
    {
      "inputs": [
        {
          "internalType": "address",
          "name": "_swapToToken",
          "type": "address"
        }
      ],
      "name": "setSwapToToken",
      "outputs": [],
      "stateMutability": "nonpayable",
      "type": "function"
    },
    {
      "inputs": [
        {
          "internalType": "address",
          "name": "_poolAddress",
          "type": "address"
        }
      ],
      "name": "setPoolAddress",
      "outputs": [],
      "stateMutability": "nonpayable",
      "type": "function"
    },
    {
      "inputs": [
        {
          "internalType": "address",
          "name": "_rewardsAddress",
          "type": "address"
        }
      ],
      "name": "setRewardsAddress",
      "outputs": [],
      "stateMutability": "nonpayable",
      "type": "function"
    },
    {
      "inputs": [
        {
          "internalType": "address",
          "name": "_oneSplitAudit",
          "type": "address"
        }
      ],
      "name": "setoneSplitAudit",
      "outputs": [],
      "stateMutability": "nonpayable",
      "type": "function"
    },
    {
      "inputs": [
        {
          "internalType": "uint256",
          "name": "_triggerFee",
          "type": "uint256"
        }
      ],
      "name": "setTriggerFee",
      "outputs": [],
      "stateMutability": "nonpayable",
      "type": "function"
    },
    {
      "inputs": [
        {
          "components": [
            {
              "internalType": "bytes32",
              "name": "root",
              "type": "bytes32"
            },
            {
              "internalType": "uint256",
              "name": "score",
              "type": "uint256"
            },
            {
              "internalType": "bytes32[]",
              "name": "proof",
              "type": "bytes32[]"
            }
          ],
          "internalType": "struct IPool.Claim[]",
          "name": "_claims",
          "type": "tuple[]"
        },
        {
          "internalType": "address",
          "name": "_swapFromtoken",
          "type": "address"
        },
        {
          "internalType": "uint256",
          "name": "_amount",
          "type": "uint256"
        }
      ],
      "name": "ConsolidateFeeToken",
      "outputs": [],
      "stateMutability": "nonpayable",
      "type": "function"
    }
  ],
  "bytecode": "0x60806040523480156200001157600080fd5b5060405162002d8f38038062002d8f8339818101604052810190620000379190620006da565b81816200006b620000566200024a640100000000026401000000009004565b62000252640100000000026401000000009004565b8051825114620000b2576040517f08c379a0000000000000000000000000000000000000000000000000000000008152600401620000a990620008e8565b60405180910390fd5b6000825111620000f9576040517f08c379a0000000000000000000000000000000000000000000000000000000008152600401620000f0906200092c565b60405180910390fd5b60005b825181101562000171576200015b83828151811062000120576200011f62000b56565b5b60200260200101518383815181106200013e576200013d62000b56565b5b602002602001015162000316640100000000026401000000009004565b8080620001689062000ad9565b915050620000fc565b50505085600460006101000a81548173ffffffffffffffffffffffffffffffffffffffff021916908373ffffffffffffffffffffffffffffffffffffffff16021790555084600560006101000a81548173ffffffffffffffffffffffffffffffffffffffff021916908373ffffffffffffffffffffffffffffffffffffffff16021790555083600660006101000a81548173ffffffffffffffffffffffffffffffffffffffff021916908373ffffffffffffffffffffffffffffffffffffffff1602179055508260088190555050505050505062000d4c565b600033905090565b60008060009054906101000a900473ffffffffffffffffffffffffffffffffffffffff169050816000806101000a81548173ffffffffffffffffffffffffffffffffffffffff021916908373ffffffffffffffffffffffffffffffffffffffff1602179055508173ffffffffffffffffffffffffffffffffffffffff168173ffffffffffffffffffffffffffffffffffffffff167f8be0079c531659141344cd1fd0a4f28419497f9722a3daafe3b4186f6b6457e060405160405180910390a35050565b600073ffffffffffffffffffffffffffffffffffffffff168273ffffffffffffffffffffffffffffffffffffffff16141562000389576040517f08c379a00000000000000000000000000000000000000000000000000000000081526004016200038090620008c6565b60405180910390fd5b60008111620003cf576040517f08c379a0000000000000000000000000000000000000000000000000000000008152600401620003c6906200094e565b60405180910390fd5b6000600260008473ffffffffffffffffffffffffffffffffffffffff1673ffffffffffffffffffffffffffffffffffffffff168152602001908152602001600020541462000454576040517f08c379a00000000000000000000000000000000000000000000000000000000081526004016200044b906200090a565b60405180910390fd5b6003829080600181540180825580915050600190039060005260206000200160009091909190916101000a81548173ffffffffffffffffffffffffffffffffffffffff021916908373ffffffffffffffffffffffffffffffffffffffff16021790555080600260008473ffffffffffffffffffffffffffffffffffffffff1673ffffffffffffffffffffffffffffffffffffffff16815260200190815260200160002081905550806001546200050b919062000a08565b6001819055507f40c340f65e17194d14ddddb073d3c9f888e3cb52b5aae0c6c7706b4fbc905fac82826040516200054492919062000899565b60405180910390a15050565b600062000567620005618462000999565b62000970565b905080838252602082019050828560208602820111156200058d576200058c62000bb9565b5b60005b85811015620005c15781620005a6888262000646565b84526020840193506020830192505060018101905062000590565b5050509392505050565b6000620005e2620005dc84620009c8565b62000970565b9050808382526020820190508285602086028201111562000608576200060762000bb9565b5b60005b858110156200063c5781620006218882620006c3565b8452602084019350602083019250506001810190506200060b565b5050509392505050565b600081519050620006578162000d18565b92915050565b600082601f83011262000675576200067462000bb4565b5b81516200068784826020860162000550565b91505092915050565b600082601f830112620006a857620006a762000bb4565b5b8151620006ba848260208601620005cb565b91505092915050565b600081519050620006d48162000d32565b92915050565b60008060008060008060c08789031215620006fa57620006f962000bc3565b5b60006200070a89828a0162000646565b96505060206200071d89828a0162000646565b95505060406200073089828a0162000646565b94505060606200074389828a01620006c3565b935050608087015167ffffffffffffffff81111562000767576200076662000bbe565b5b6200077589828a016200065d565b92505060a087015167ffffffffffffffff81111562000799576200079862000bbe565b5b620007a789828a0162000690565b9150509295509295509295565b620007bf8162000a65565b82525050565b6000620007d4602c83620009f7565b9150620007e18262000bd9565b604082019050919050565b6000620007fb603283620009f7565b9150620008088262000c28565b604082019050919050565b600062000822602b83620009f7565b91506200082f8262000c77565b604082019050919050565b600062000849601a83620009f7565b9150620008568262000cc6565b602082019050919050565b600062000870601d83620009f7565b91506200087d8262000cef565b602082019050919050565b620008938162000a99565b82525050565b6000604082019050620008b06000830185620007b4565b620008bf602083018462000888565b9392505050565b60006020820190508181036000830152620008e181620007c5565b9050919050565b600060208201905081810360008301526200090381620007ec565b9050919050565b60006020820190508181036000830152620009258162000813565b9050919050565b6000602082019050818103600083015262000947816200083a565b9050919050565b60006020820190508181036000830152620009698162000861565b9050919050565b60006200097c6200098f565b90506200098a828262000aa3565b919050565b6000604051905090565b600067ffffffffffffffff821115620009b757620009b662000b85565b5b602082029050602081019050919050565b600067ffffffffffffffff821115620009e657620009e562000b85565b5b602082029050602081019050919050565b600082825260208201905092915050565b600062000a158262000a99565b915062000a228362000a99565b9250827fffffffffffffffffffffffffffffffffffffffffffffffffffffffffffffffff0382111562000a5a5762000a5962000b27565b5b828201905092915050565b600062000a728262000a79565b9050919050565b600073ffffffffffffffffffffffffffffffffffffffff82169050919050565b6000819050919050565b62000aae8262000bc8565b810181811067ffffffffffffffff8211171562000ad05762000acf62000b85565b5b80604052505050565b600062000ae68262000a99565b91507fffffffffffffffffffffffffffffffffffffffffffffffffffffffffffffffff82141562000b1c5762000b1b62000b27565b5b600182019050919050565b7f4e487b7100000000000000000000000000000000000000000000000000000000600052601160045260246000fd5b7f4e487b7100000000000000000000000000000000000000000000000000000000600052603260045260246000fd5b7f4e487b7100000000000000000000000000000000000000000000000000000000600052604160045260246000fd5b600080fd5b600080fd5b600080fd5b600080fd5b6000601f19601f8301169050919050565b7f5061796d656e7453706c69747465723a206163636f756e74206973207468652060008201527f7a65726f20616464726573730000000000000000000000000000000000000000602082015250565b7f5061796d656e7453706c69747465723a2070617965657320616e64207368617260008201527f6573206c656e677468206d69736d617463680000000000000000000000000000602082015250565b7f5061796d656e7453706c69747465723a206163636f756e7420616c726561647960008201527f2068617320736861726573000000000000000000000000000000000000000000602082015250565b7f5061796d656e7453706c69747465723a206e6f20706179656573000000000000600082015250565b7f5061796d656e7453706c69747465723a20736861726573206172652030000000600082015250565b62000d238162000a65565b811462000d2f57600080fd5b50565b62000d3d8162000a99565b811462000d4957600080fd5b50565b6120338062000d5c6000396000f3fe608060405234801561001057600080fd5b5060043610610128576000357c0100000000000000000000000000000000000000000000000000000000900480638da5cb5b116100bf578063ce7c2ac21161008e578063ce7c2ac21461028b578063e1c941dc146102bb578063e9e15b4f146102d7578063f2fde38b146102f3578063f68371571461030f57610128565b80638da5cb5b14610217578063a7d45b2c14610235578063b21285ce14610251578063c0973eed1461026d57610128565b806373b411cb116100fb57806373b411cb1461019157806376aa3fef146101af5780638906758d146101cb5780638b83209b146101e757610128565b80631755ff211461012d5780633a98ef391461014b57806370cb393214610169578063715018a614610187575b600080fd5b61013561032d565b6040516101429190611845565b60405180910390f35b610153610353565b6040516101609190611a3c565b60405180910390f35b61017161035d565b60405161017e9190611845565b60405180910390f35b61018f610383565b005b61019961040b565b6040516101a69190611845565b60405180910390f35b6101c960048036038101906101c4919061147b565b610431565b005b6101e560048036038101906101e091906113b2565b6104b7565b005b61020160048036038101906101fc919061147b565b610577565b60405161020e9190611845565b60405180910390f35b61021f6105bf565b60405161022c9190611845565b60405180910390f35b61024f600480360381019061024a91906113b2565b6105e8565b005b61026b600480360381019061026691906113b2565b6106a8565b005b610275610768565b6040516102829190611845565b60405180910390f35b6102a560048036038101906102a091906113b2565b61078e565b6040516102b29190611a3c565b60405180910390f35b6102d560048036038101906102d091906113df565b6107d7565b005b6102f160048036038101906102ec91906113b2565b610c69565b005b61030d600480360381019061030891906113b2565b610d29565b005b610317610e21565b6040516103249190611a3c565b60405180910390f35b600560009054906101000a900473ffffffffffffffffffffffffffffffffffffffff1681565b6000600154905090565b600760009054906101000a900473ffffffffffffffffffffffffffffffffffffffff1681565b61038b610e27565b73ffffffffffffffffffffffffffffffffffffffff166103a96105bf565b73ffffffffffffffffffffffffffffffffffffffff16146103ff576040517f08c379a00000000000000000000000000000000000000000000000000000000081526004016103f690611a1c565b60405180910390fd5b6104096000610e2f565b565b600460009054906101000a900473ffffffffffffffffffffffffffffffffffffffff1681565b610439610e27565b73ffffffffffffffffffffffffffffffffffffffff166104576105bf565b73ffffffffffffffffffffffffffffffffffffffff16146104ad576040517f08c379a00000000000000000000000000000000000000000000000000000000081526004016104a490611a1c565b60405180910390fd5b8060088190555050565b6104bf610e27565b73ffffffffffffffffffffffffffffffffffffffff166104dd6105bf565b73ffffffffffffffffffffffffffffffffffffffff1614610533576040517f08c379a000000000000000000000000000000000000000000000000000000000815260040161052a90611a1c565b60405180910390fd5b80600660006101000a81548173ffffffffffffffffffffffffffffffffffffffff021916908373ffffffffffffffffffffffffffffffffffffffff16021790555050565b60006003828154811061058d5761058c611e53565b5b9060005260206000200160009054906101000a900473ffffffffffffffffffffffffffffffffffffffff169050919050565b60008060009054906101000a900473ffffffffffffffffffffffffffffffffffffffff16905090565b6105f0610e27565b73ffffffffffffffffffffffffffffffffffffffff1661060e6105bf565b73ffffffffffffffffffffffffffffffffffffffff1614610664576040517f08c379a000000000000000000000000000000000000000000000000000000000815260040161065b90611a1c565b60405180910390fd5b80600760006101000a81548173ffffffffffffffffffffffffffffffffffffffff021916908373ffffffffffffffffffffffffffffffffffffffff16021790555050565b6106b0610e27565b73ffffffffffffffffffffffffffffffffffffffff166106ce6105bf565b73ffffffffffffffffffffffffffffffffffffffff1614610724576040517f08c379a000000000000000000000000000000000000000000000000000000000815260040161071b90611a1c565b60405180910390fd5b80600460006101000a81548173ffffffffffffffffffffffffffffffffffffffff021916908373ffffffffffffffffffffffffffffffffffffffff16021790555050565b600660009054906101000a900473ffffffffffffffffffffffffffffffffffffffff1681565b6000600260008373ffffffffffffffffffffffffffffffffffffffff1673ffffffffffffffffffffffffffffffffffffffff168152602001908152602001600020549050919050565b600560009054906101000a900473ffffffffffffffffffffffffffffffffffffffff1673ffffffffffffffffffffffffffffffffffffffff16634eef70e48484846040518463ffffffff167c0100000000000000000000000000000000000000000000000000000000028152600401610852939291906118e3565b600060405180830381600087803b15801561086c57600080fd5b505af1158015610880573d6000803e3d6000fd5b50505050600080600760009054906101000a900473ffffffffffffffffffffffffffffffffffffffff1673ffffffffffffffffffffffffffffffffffffffff1663085e2c5b85600460009054906101000a900473ffffffffffffffffffffffffffffffffffffffff16866000806040518663ffffffff167c0100000000000000000000000000000000000000000000000000000000028152600401610929959493929190611921565b60006040518083038186803b15801561094157600080fd5b505afa158015610955573d6000803e3d6000fd5b505050506040513d6000823e3d601f19601f8201168201806040525081019061097e91906114d5565b91509150600760009054906101000a900473ffffffffffffffffffffffffffffffffffffffff1673ffffffffffffffffffffffffffffffffffffffff1663e2a7515e85600460009054906101000a900473ffffffffffffffffffffffffffffffffffffffff1686868660006040518763ffffffff167c0100000000000000000000000000000000000000000000000000000000028152600401610a2696959493929190611974565b602060405180830381600087803b158015610a4057600080fd5b505af1158015610a54573d6000803e3d6000fd5b505050506040513d601f19601f82011682018060405250810190610a7891906114a8565b506000610aa36064610a9560085487610ef390919063ffffffff16565b610f0990919063ffffffff16565b9050610ad233600460009054906101000a900473ffffffffffffffffffffffffffffffffffffffff1683610f1f565b6000610ae782866110bb90919063ffffffff16565b905060005b600380549050811015610bfd5760006001546002600060038581548110610b1657610b15611e53565b5b9060005260206000200160009054906101000a900473ffffffffffffffffffffffffffffffffffffffff1673ffffffffffffffffffffffffffffffffffffffff1673ffffffffffffffffffffffffffffffffffffffff16815260200190815260200160002054610b869190611bfa565b9050610be9600660009054906101000a900473ffffffffffffffffffffffffffffffffffffffff16600460009054906101000a900473ffffffffffffffffffffffffffffffffffffffff16610be48487610ef390919063ffffffff16565b610f1f565b508080610bf590611dac565b915050610aec565b507f0b19b6a436081d60da1ed68625a588f65a87ff0c8671e8a9bdf92b29fba720b33387600460009054906101000a900473ffffffffffffffffffffffffffffffffffffffff16886003604051610c58959493929190611860565b60405180910390a150505050505050565b610c71610e27565b73ffffffffffffffffffffffffffffffffffffffff16610c8f6105bf565b73ffffffffffffffffffffffffffffffffffffffff1614610ce5576040517f08c379a0000000000000000000000000000000000000000000000000000000008152600401610cdc90611a1c565b60405180910390fd5b80600560006101000a81548173ffffffffffffffffffffffffffffffffffffffff021916908373ffffffffffffffffffffffffffffffffffffffff16021790555050565b610d31610e27565b73ffffffffffffffffffffffffffffffffffffffff16610d4f6105bf565b73ffffffffffffffffffffffffffffffffffffffff1614610da5576040517f08c379a0000000000000000000000000000000000000000000000000000000008152600401610d9c90611a1c565b60405180910390fd5b600073ffffffffffffffffffffffffffffffffffffffff168173ffffffffffffffffffffffffffffffffffffffff161415610e15576040517f08c379a0000000000000000000000000000000000000000000000000000000008152600401610e0c906119dc565b60405180910390fd5b610e1e81610e2f565b50565b60085481565b600033905090565b60008060009054906101000a900473ffffffffffffffffffffffffffffffffffffffff169050816000806101000a81548173ffffffffffffffffffffffffffffffffffffffff021916908373ffffffffffffffffffffffffffffffffffffffff1602179055508173ffffffffffffffffffffffffffffffffffffffff168173ffffffffffffffffffffffffffffffffffffffff167f8be0079c531659141344cd1fd0a4f28419497f9722a3daafe3b4186f6b6457e060405160405180910390a35050565b60008183610f019190611c2b565b905092915050565b60008183610f179190611bfa565b905092915050565b6000829050818173ffffffffffffffffffffffffffffffffffffffff166370a08231306040518263ffffffff167c0100000000000000000000000000000000000000000000000000000000028152600401610f7a9190611845565b60206040518083038186803b158015610f9257600080fd5b505afa158015610fa6573d6000803e3d6000fd5b505050506040513d601f19601f82011682018060405250810190610fca91906114a8565b101561100b576040517f08c379a0000000000000000000000000000000000000000000000000000000008152600401611002906119fc565b60405180910390fd5b8073ffffffffffffffffffffffffffffffffffffffff1663a9059cbb85846040518363ffffffff167c01000000000000000000000000000000000000000000000000000000000281526004016110629291906118ba565b602060405180830381600087803b15801561107c57600080fd5b505af1158015611090573d6000803e3d6000fd5b505050506040513d601f19601f820116820180604052508101906110b4919061144e565b5050505050565b600081836110c99190611c85565b905092915050565b60006110e46110df84611a7c565b611a57565b9050808382526020820190508285602086028201111561110757611106611ed3565b5b60005b85811015611137578161111d88826112f3565b84526020840193506020830192505060018101905061110a565b5050509392505050565b600061115461114f84611aa8565b611a57565b9050808382526020820190508285602086028201111561117757611176611ed3565b5b60005b858110156111c557813567ffffffffffffffff81111561119d5761119c611ec4565b5b8086016111aa8982611308565b8552602085019450602084019350505060018101905061117a565b5050509392505050565b60006111e26111dd84611ad4565b611a57565b9050808382526020820190508285602086028201111561120557611204611ed3565b5b60005b85811015611235578161121b888261139d565b845260208401935060208301925050600181019050611208565b5050509392505050565b60008135905061124e81611fa1565b92915050565b600082601f83011261126957611268611ec4565b5b81356112798482602086016110d1565b91505092915050565b600082601f83011261129757611296611ec4565b5b81356112a7848260208601611141565b91505092915050565b600082601f8301126112c5576112c4611ec4565b5b81516112d58482602086016111cf565b91505092915050565b6000815190506112ed81611fb8565b92915050565b60008135905061130281611fcf565b92915050565b60006060828403121561131e5761131d611ec9565b5b6113286060611a57565b90506000611338848285016112f3565b600083015250602061134c84828501611388565b602083015250604082013567ffffffffffffffff8111156113705761136f611ece565b5b61137c84828501611254565b60408301525092915050565b60008135905061139781611fe6565b92915050565b6000815190506113ac81611fe6565b92915050565b6000602082840312156113c8576113c7611edd565b5b60006113d68482850161123f565b91505092915050565b6000806000606084860312156113f8576113f7611edd565b5b600084013567ffffffffffffffff81111561141657611415611ed8565b5b61142286828701611282565b93505060206114338682870161123f565b925050604061144486828701611388565b9150509250925092565b60006020828403121561146457611463611edd565b5b6000611472848285016112de565b91505092915050565b60006020828403121561149157611490611edd565b5b600061149f84828501611388565b91505092915050565b6000602082840312156114be576114bd611edd565b5b60006114cc8482850161139d565b91505092915050565b600080604083850312156114ec576114eb611edd565b5b60006114fa8582860161139d565b925050602083015167ffffffffffffffff81111561151b5761151a611ed8565b5b611527858286016112b0565b9150509250929050565b600061153d838361158d565b60208301905092915050565b60006115558383611741565b60208301905092915050565b600061156d83836117d7565b905092915050565b60006115818383611827565b60208301905092915050565b61159681611cd9565b82525050565b6115a581611cd9565b82525050565b60006115b682611b45565b6115c08185611ba5565b93506115cb83611b00565b8060005b83811015611603576115e082611eb1565b6115ea8882611531565b97506115f583611b71565b9250506001810190506115cf565b5085935050505092915050565b600061161b82611b50565b6116258185611bb6565b935061163083611b15565b8060005b838110156116615781516116488882611549565b975061165383611b7e565b925050600181019050611634565b5085935050505092915050565b600061167982611b5b565b6116838185611bc7565b93508360208202850161169585611b25565b8060005b858110156116d157848403895281516116b28582611561565b94506116bd83611b8b565b925060208a01995050600181019050611699565b50829750879550505050505092915050565b60006116ee82611b66565b6116f88185611bd8565b935061170383611b35565b8060005b8381101561173457815161171b8882611575565b975061172683611b98565b925050600181019050611707565b5085935050505092915050565b61174a81611cf7565b82525050565b61175981611d2b565b82525050565b61176881611d4f565b82525050565b600061177b602683611be9565b915061178682611f00565b604082019050919050565b600061179e601c83611be9565b91506117a982611f4f565b602082019050919050565b60006117c1602083611be9565b91506117cc82611f78565b602082019050919050565b60006060830160008301516117ef6000860182611741565b5060208301516118026020860182611827565b506040830151848203604086015261181a8282611610565b9150508091505092915050565b61183081611d21565b82525050565b61183f81611d21565b82525050565b600060208201905061185a600083018461159c565b92915050565b600060a082019050611875600083018861159c565b6118826020830187611750565b61188f6040830186611750565b61189c6060830185611836565b81810360808301526118ae81846115ab565b90509695505050505050565b60006040820190506118cf600083018561159c565b6118dc6020830184611836565b9392505050565b600060608201905081810360008301526118fd818661166e565b905061190c6020830185611750565b6119196040830184611836565b949350505050565b600060a0820190506119366000830188611750565b6119436020830187611750565b6119506040830186611836565b61195d606083018561175f565b61196a608083018461175f565b9695505050505050565b600060c0820190506119896000830189611750565b6119966020830188611750565b6119a36040830187611836565b6119b06060830186611836565b81810360808301526119c281856116e3565b90506119d160a083018461175f565b979650505050505050565b600060208201905081810360008301526119f58161176e565b9050919050565b60006020820190508181036000830152611a1581611791565b9050919050565b60006020820190508181036000830152611a35816117b4565b9050919050565b6000602082019050611a516000830184611836565b92915050565b6000611a61611a72565b9050611a6d8282611d7b565b919050565b6000604051905090565b600067ffffffffffffffff821115611a9757611a96611e82565b5b602082029050602081019050919050565b600067ffffffffffffffff821115611ac357611ac2611e82565b5b602082029050602081019050919050565b600067ffffffffffffffff821115611aef57611aee611e82565b5b602082029050602081019050919050565b60008190508160005260206000209050919050565b6000819050602082019050919050565b6000819050602082019050919050565b6000819050602082019050919050565b600081549050919050565b600081519050919050565b600081519050919050565b600081519050919050565b6000600182019050919050565b6000602082019050919050565b6000602082019050919050565b6000602082019050919050565b600082825260208201905092915050565b600082825260208201905092915050565b600082825260208201905092915050565b600082825260208201905092915050565b600082825260208201905092915050565b6000611c0582611d21565b9150611c1083611d21565b925082611c2057611c1f611e24565b5b828204905092915050565b6000611c3682611d21565b9150611c4183611d21565b9250817fffffffffffffffffffffffffffffffffffffffffffffffffffffffffffffffff0483118215151615611c7a57611c79611df5565b5b828202905092915050565b6000611c9082611d21565b9150611c9b83611d21565b925082821015611cae57611cad611df5565b5b828203905092915050565b600073ffffffffffffffffffffffffffffffffffffffff82169050919050565b6000611ce482611d01565b9050919050565b60008115159050919050565b6000819050919050565b600073ffffffffffffffffffffffffffffffffffffffff82169050919050565b6000819050919050565b6000611d3682611d3d565b9050919050565b6000611d4882611d01565b9050919050565b6000611d5a82611d21565b9050919050565b6000611d74611d6f83611ef3565b611cb9565b9050919050565b611d8482611ee2565b810181811067ffffffffffffffff82111715611da357611da2611e82565b5b80604052505050565b6000611db782611d21565b91507fffffffffffffffffffffffffffffffffffffffffffffffffffffffffffffffff821415611dea57611de9611df5565b5b600182019050919050565b7f4e487b7100000000000000000000000000000000000000000000000000000000600052601160045260246000fd5b7f4e487b7100000000000000000000000000000000000000000000000000000000600052601260045260246000fd5b7f4e487b7100000000000000000000000000000000000000000000000000000000600052603260045260246000fd5b7f4e487b7100000000000000000000000000000000000000000000000000000000600052604160045260246000fd5b6000611ebd8254611d61565b9050919050565b600080fd5b600080fd5b600080fd5b600080fd5b600080fd5b600080fd5b6000601f19601f8301169050919050565b6000600182049050919050565b7f4f776e61626c653a206e6577206f776e657220697320746865207a65726f206160008201527f6464726573730000000000000000000000000000000000000000000000000000602082015250565b7f4e6f7420656e6f7567682066756e647320746f207472616e7366657200000000600082015250565b7f4f776e61626c653a2063616c6c6572206973206e6f7420746865206f776e6572600082015250565b611faa81611cd9565b8114611fb557600080fd5b50565b611fc181611ceb565b8114611fcc57600080fd5b50565b611fd881611cf7565b8114611fe357600080fd5b50565b611fef81611d21565b8114611ffa57600080fd5b5056fea264697066735822122000fe1533d1e931b6ad4194fca7e9add1f1fbf8b8b38e11fa481a4c7a427fd8a464736f6c63430008050033",
  "immutableReferences": {},
  "source": "// SPDX-License-Identifier: UNLICENSED\n\npragma solidity ^0.8.5;\n\nimport \"@openzeppelin/contracts/token/ERC20/IERC20.sol\";\nimport \"@openzeppelin/contracts/access/Ownable.sol\";\nimport \"@openzeppelin/contracts/utils/math/SafeMath.sol\";\nimport \"./TokenPaymentSplitter.sol\";\n\ninterface IOneSplitAudit {\n    function swap(\n        IERC20 fromToken,\n        IERC20 destToken,\n        uint256 amount,\n        uint256 minReturn,\n        uint256[] memory distribution,\n        uint256 flags\n    ) external payable returns (uint256 returnAmount);\n\n    function getExpectedReturn(\n        IERC20 fromToken,\n        IERC20 destToken,\n        uint256 amount,\n        uint256 parts,\n        uint256 flags // See constants in IOneSplit.sol\n    )\n        external\n        view\n        returns (uint256 returnAmount, uint256[] memory distribution);\n}\n\ninterface IPool {\n    /**\n     * @notice Structs\n     */\n    struct Claim {\n        bytes32 root;\n        uint256 score;\n        bytes32[] proof;\n    }\n\n    function withdrawProtected(\n        Claim[] memory claims,\n        IERC20 token,\n        uint256 minimumAmount\n    ) external;\n}\n\ncontract FeeReceiver is Ownable, TokenPaymentSplitter {\n    using SafeMath for uint256;\n\n    address public swapToToken;\n\n    address public poolAddress;\n\n    address public rewardsAddress;\n\n    address public oneSplitAudit;\n\n    uint256 public triggerFee;\n\n    function setSwapToToken(address _swapToToken) public onlyOwner {\n        swapToToken = _swapToToken;\n    }\n\n    function setPoolAddress(address _poolAddress) public onlyOwner {\n        poolAddress = _poolAddress;\n    }\n\n    function setRewardsAddress(address _rewardsAddress) public onlyOwner {\n        rewardsAddress = _rewardsAddress;\n    }\n\n    function setoneSplitAudit(address _oneSplitAudit) public onlyOwner {\n        oneSplitAudit = _oneSplitAudit;\n    }\n\n    function setTriggerFee(uint256 _triggerFee) public onlyOwner {\n        triggerFee = _triggerFee;\n    }\n\n    event FeeConsolidated(\n        address triggerAccount,\n        IERC20 swapFrom,\n        IERC20 swapTo,\n        uint256 amount,\n        address[] recievedAddresses\n    );\n\n    constructor(\n        address _swapToToken,\n        address _poolAddress,\n        address _rewardsAddress,\n        uint256 _triggerFee,\n        address[] memory payees,\n        uint256[] memory shares_\n    ) TokenPaymentSplitter(payees, shares_) {\n        swapToToken = _swapToToken;\n        poolAddress = _poolAddress;\n        rewardsAddress = _rewardsAddress;\n        triggerFee = _triggerFee;\n    }\n\n    function ConsolidateFeeToken(\n        IPool.Claim[] memory _claims,\n        address _swapFromtoken,\n        uint256 _amount\n    ) public {\n        IPool(poolAddress).withdrawProtected(\n            _claims,\n            IERC20(_swapFromtoken),\n            _amount\n        );\n\n        (uint256 _expected, uint256[] memory _distribution) = IOneSplitAudit(\n            oneSplitAudit\n        ).getExpectedReturn(\n            IERC20(_swapFromtoken),\n            IERC20(swapToToken),\n            _amount,\n            0,\n            0\n        );\n\n        IOneSplitAudit(oneSplitAudit).swap(\n            IERC20(_swapFromtoken),\n            IERC20(swapToToken),\n            _amount,\n            _expected,\n            _distribution,\n            0\n        );\n\n        uint256 triggerFeeAmount = _amount.mul(triggerFee).div(100);\n        _transferErc20(msg.sender, swapToToken, triggerFeeAmount);\n\n        uint256 rewardPoolAmount = _amount.sub(triggerFeeAmount);\n\n        for (uint256 i = 0; i < _payees.length; i++) {\n            uint256 distributionRatio = (_shares[_payees[i]] / _totalShares);\n            _transferErc20(\n                rewardsAddress,\n                swapToToken,\n                rewardPoolAmount.mul(distributionRatio)\n            );\n        }\n\n        emit FeeConsolidated(\n            msg.sender,\n            IERC20(_swapFromtoken),\n            IERC20(swapToToken),\n            _amount,\n            _payees\n        );\n    }\n\n    /**\n     * @notice Internal function to transfer ERC20 held in the contract\n     *\n     * */\n    function _transferErc20(\n        address _recipient,\n        address _tokenContract,\n        uint256 _returnAmount\n    ) internal {\n        IERC20 erc;\n        erc = IERC20(_tokenContract);\n        require(\n            erc.balanceOf(address(this)) >= _returnAmount,\n            \"Not enough funds to transfer\"\n        );\n        erc.transfer(_recipient, _returnAmount);\n    }\n}\n",
  "sourcePath": "C:/Users/mster/OneDrive/Documents/Dapp Projects/airswap-projects/AIP-26/contracts/FeeReceiver.sol",
  "compiler": {
    "name": "solc",
    "version": "0.8.5+commit.a4f2e591.Emscripten.clang"
  },
  "schemaVersion": "3.3.4",
  "updatedAt": "2021-07-20T07:12:34.068Z",
  "networkType": "ethereum",
  "devdoc": {
    "kind": "dev",
    "methods": {
      "owner()": {
        "details": "Returns the address of the current owner."
      },
      "payee(uint256)": {
        "details": "Getter for the address of the payee number `index`."
      },
      "renounceOwnership()": {
        "details": "Leaves the contract without owner. It will not be possible to call `onlyOwner` functions anymore. Can only be called by the current owner. NOTE: Renouncing ownership will leave the contract without an owner, thereby removing any functionality that is only available to the owner."
      },
      "shares(address)": {
        "details": "Getter for the amount of shares held by an account."
      },
      "totalShares()": {
        "details": "Getter for the total shares held by payees."
      },
      "transferOwnership(address)": {
        "details": "Transfers ownership of the contract to a new account (`newOwner`). Can only be called by the current owner."
      }
    },
    "version": 1
  },
  "userdoc": {
    "kind": "user",
    "methods": {},
    "version": 1
  }
}