{
  "contractName": "TokenPaymentSplitter",
  "abi": [
    {
      "inputs": [
        {
          "internalType": "address[]",
          "name": "payees",
          "type": "address[]"
        },
        {
          "internalType": "uint256[]",
          "name": "shares_",
          "type": "uint256[]"
        }
      ],
      "stateMutability": "payable",
      "type": "constructor"
    },
    {
      "anonymous": false,
      "inputs": [
        {
          "indexed": false,
          "internalType": "address",
          "name": "account",
          "type": "address"
        },
        {
          "indexed": false,
          "internalType": "uint256",
          "name": "shares",
          "type": "uint256"
        }
      ],
      "name": "PayeeAdded",
      "type": "event"
    },
    {
      "anonymous": false,
      "inputs": [
        {
          "indexed": false,
          "internalType": "address",
          "name": "account",
          "type": "address"
        }
      ],
      "name": "PayeeRemoved",
      "type": "event"
    },
    {
      "anonymous": false,
      "inputs": [
        {
          "indexed": false,
          "internalType": "address",
          "name": "from",
          "type": "address"
        },
        {
          "indexed": false,
          "internalType": "uint256",
          "name": "amount",
          "type": "uint256"
        }
      ],
      "name": "PaymentReceived",
      "type": "event"
    },
    {
      "anonymous": false,
      "inputs": [
        {
          "indexed": false,
          "internalType": "address",
          "name": "to",
          "type": "address"
        },
        {
          "indexed": false,
          "internalType": "uint256",
          "name": "amount",
          "type": "uint256"
        }
      ],
      "name": "PaymentReleased",
      "type": "event"
    },
    {
      "inputs": [],
      "name": "totalShares",
      "outputs": [
        {
          "internalType": "uint256",
          "name": "",
          "type": "uint256"
        }
      ],
      "stateMutability": "view",
      "type": "function"
    },
    {
      "inputs": [
        {
          "internalType": "address",
          "name": "account",
          "type": "address"
        }
      ],
      "name": "shares",
      "outputs": [
        {
          "internalType": "uint256",
          "name": "",
          "type": "uint256"
        }
      ],
      "stateMutability": "view",
      "type": "function"
    },
    {
      "inputs": [
        {
          "internalType": "uint256",
          "name": "index",
          "type": "uint256"
        }
      ],
      "name": "payee",
      "outputs": [
        {
          "internalType": "address",
          "name": "",
          "type": "address"
        }
      ],
      "stateMutability": "view",
      "type": "function"
    }
  ],
  "bytecode": "0x608060405260405162000e5038038062000e508339818101604052810190620000299190620004fc565b805182511462000070576040517f08c379a00000000000000000000000000000000000000000000000000000000081526004016200006790620006b5565b60405180910390fd5b6000825111620000b7576040517f08c379a0000000000000000000000000000000000000000000000000000000008152600401620000ae90620006f9565b60405180910390fd5b60005b82518110156200012f5762000119838281518110620000de57620000dd62000923565b5b6020026020010151838381518110620000fc57620000fb62000923565b5b602002602001015162000138640100000000026401000000009004565b80806200012690620008a6565b915050620000ba565b50505062000b19565b600073ffffffffffffffffffffffffffffffffffffffff168273ffffffffffffffffffffffffffffffffffffffff161415620001ab576040517f08c379a0000000000000000000000000000000000000000000000000000000008152600401620001a29062000693565b60405180910390fd5b60008111620001f1576040517f08c379a0000000000000000000000000000000000000000000000000000000008152600401620001e8906200071b565b60405180910390fd5b6000600160008473ffffffffffffffffffffffffffffffffffffffff1673ffffffffffffffffffffffffffffffffffffffff168152602001908152602001600020541462000276576040517f08c379a00000000000000000000000000000000000000000000000000000000081526004016200026d90620006d7565b60405180910390fd5b6002829080600181540180825580915050600190039060005260206000200160009091909190916101000a81548173ffffffffffffffffffffffffffffffffffffffff021916908373ffffffffffffffffffffffffffffffffffffffff16021790555080600160008473ffffffffffffffffffffffffffffffffffffffff1673ffffffffffffffffffffffffffffffffffffffff16815260200190815260200160002081905550806000546200032d9190620007d5565b6000819055507f40c340f65e17194d14ddddb073d3c9f888e3cb52b5aae0c6c7706b4fbc905fac82826040516200036692919062000666565b60405180910390a15050565b600062000389620003838462000766565b6200073d565b90508083825260208201905082856020860282011115620003af57620003ae62000986565b5b60005b85811015620003e35781620003c8888262000468565b845260208401935060208301925050600181019050620003b2565b5050509392505050565b600062000404620003fe8462000795565b6200073d565b905080838252602082019050828560208602820111156200042a576200042962000986565b5b60005b858110156200045e5781620004438882620004e5565b8452602084019350602083019250506001810190506200042d565b5050509392505050565b600081519050620004798162000ae5565b92915050565b600082601f83011262000497576200049662000981565b5b8151620004a984826020860162000372565b91505092915050565b600082601f830112620004ca57620004c962000981565b5b8151620004dc848260208601620003ed565b91505092915050565b600081519050620004f68162000aff565b92915050565b6000806040838503121562000516576200051562000990565b5b600083015167ffffffffffffffff8111156200053757620005366200098b565b5b62000545858286016200047f565b925050602083015167ffffffffffffffff8111156200056957620005686200098b565b5b6200057785828601620004b2565b9150509250929050565b6200058c8162000832565b82525050565b6000620005a1602c83620007c4565b9150620005ae82620009a6565b604082019050919050565b6000620005c8603283620007c4565b9150620005d582620009f5565b604082019050919050565b6000620005ef602b83620007c4565b9150620005fc8262000a44565b604082019050919050565b600062000616601a83620007c4565b9150620006238262000a93565b602082019050919050565b60006200063d601d83620007c4565b91506200064a8262000abc565b602082019050919050565b620006608162000866565b82525050565b60006040820190506200067d600083018562000581565b6200068c602083018462000655565b9392505050565b60006020820190508181036000830152620006ae8162000592565b9050919050565b60006020820190508181036000830152620006d081620005b9565b9050919050565b60006020820190508181036000830152620006f281620005e0565b9050919050565b60006020820190508181036000830152620007148162000607565b9050919050565b6000602082019050818103600083015262000736816200062e565b9050919050565b6000620007496200075c565b905062000757828262000870565b919050565b6000604051905090565b600067ffffffffffffffff82111562000784576200078362000952565b5b602082029050602081019050919050565b600067ffffffffffffffff821115620007b357620007b262000952565b5b602082029050602081019050919050565b600082825260208201905092915050565b6000620007e28262000866565b9150620007ef8362000866565b9250827fffffffffffffffffffffffffffffffffffffffffffffffffffffffffffffffff03821115620008275762000826620008f4565b5b828201905092915050565b60006200083f8262000846565b9050919050565b600073ffffffffffffffffffffffffffffffffffffffff82169050919050565b6000819050919050565b6200087b8262000995565b810181811067ffffffffffffffff821117156200089d576200089c62000952565b5b80604052505050565b6000620008b38262000866565b91507fffffffffffffffffffffffffffffffffffffffffffffffffffffffffffffffff821415620008e957620008e8620008f4565b5b600182019050919050565b7f4e487b7100000000000000000000000000000000000000000000000000000000600052601160045260246000fd5b7f4e487b7100000000000000000000000000000000000000000000000000000000600052603260045260246000fd5b7f4e487b7100000000000000000000000000000000000000000000000000000000600052604160045260246000fd5b600080fd5b600080fd5b600080fd5b600080fd5b6000601f19601f8301169050919050565b7f5061796d656e7453706c69747465723a206163636f756e74206973207468652060008201527f7a65726f20616464726573730000000000000000000000000000000000000000602082015250565b7f5061796d656e7453706c69747465723a2070617965657320616e64207368617260008201527f6573206c656e677468206d69736d617463680000000000000000000000000000602082015250565b7f5061796d656e7453706c69747465723a206163636f756e7420616c726561647960008201527f2068617320736861726573000000000000000000000000000000000000000000602082015250565b7f5061796d656e7453706c69747465723a206e6f20706179656573000000000000600082015250565b7f5061796d656e7453706c69747465723a20736861726573206172652030000000600082015250565b62000af08162000832565b811462000afc57600080fd5b50565b62000b0a8162000866565b811462000b1657600080fd5b50565b6103278062000b296000396000f3fe608060405234801561001057600080fd5b506004361061005e576000357c0100000000000000000000000000000000000000000000000000000000900480633a98ef39146100635780638b83209b14610081578063ce7c2ac2146100b1575b600080fd5b61006b6100e1565b6040516100789190610238565b60405180910390f35b61009b600480360381019061009691906101d2565b6100ea565b6040516100a8919061021d565b60405180910390f35b6100cb60048036038101906100c691906101a5565b610132565b6040516100d89190610238565b60405180910390f35b60008054905090565b600060028281548110610100576100ff61028f565b5b9060005260206000200160009054906101000a900473ffffffffffffffffffffffffffffffffffffffff169050919050565b6000600160008373ffffffffffffffffffffffffffffffffffffffff1673ffffffffffffffffffffffffffffffffffffffff168152602001908152602001600020549050919050565b60008135905061018a816102c3565b92915050565b60008135905061019f816102da565b92915050565b6000602082840312156101bb576101ba6102be565b5b60006101c98482850161017b565b91505092915050565b6000602082840312156101e8576101e76102be565b5b60006101f684828501610190565b91505092915050565b61020881610253565b82525050565b61021781610285565b82525050565b600060208201905061023260008301846101ff565b92915050565b600060208201905061024d600083018461020e565b92915050565b600061025e82610265565b9050919050565b600073ffffffffffffffffffffffffffffffffffffffff82169050919050565b6000819050919050565b7f4e487b7100000000000000000000000000000000000000000000000000000000600052603260045260246000fd5b600080fd5b6102cc81610253565b81146102d757600080fd5b50565b6102e381610285565b81146102ee57600080fd5b5056fea264697066735822122085ebb9429b4f18554c08e3906328058d8415acfc0180915e6a4eaad72f68b46d64736f6c63430008050033",
  "immutableReferences": {},
  "source": "// SPDX-License-Identifier: MIT\r\n\r\npragma solidity ^0.8.5;\r\n\r\nimport \"@openzeppelin/contracts/token/ERC20/IERC20.sol\";\r\nimport \"@openzeppelin/contracts/utils/Address.sol\";\r\nimport \"@openzeppelin/contracts/utils/Context.sol\";\r\nimport \"@openzeppelin/contracts/utils/math/SafeMath.sol\";\r\n\r\n/**\r\n * @title TokenPaymentSplitter\r\n * @dev This contract is a modified version of OpenZeppelin's PaymentSplitter contract. This contract allows to split Token payments\r\n * among a group of accounts. The sender does not need to be aware that the Token will be split in this way, since it is handled\r\n * transparently by the contract.\r\n *\r\n * The split can be in equal parts or in any other arbitrary proportion. The way this is specified is by assigning each\r\n * account to a number of shares.\r\n *\r\n * The actual transfer is triggered as a separate function.\r\n */\r\ncontract TokenPaymentSplitter is Context {\r\n    event PayeeAdded(address account, uint256 shares);\r\n    event PayeeRemoved(address account);\r\n    event PaymentReleased(address to, uint256 amount);\r\n    event PaymentReceived(address from, uint256 amount);\r\n\r\n    uint256 internal _totalShares;\r\n\r\n    mapping(address => uint256) internal _shares;\r\n    address[] internal _payees;\r\n\r\n    /**\r\n     * @dev Creates an instance of `TokenPaymentSplitter` where each account in `payees` is assigned the number of shares at\r\n     * the matching position in the `shares` array.\r\n     *\r\n     * All addresses in `payees` must be non-zero. Both arrays must have the same non-zero length, and there must be no\r\n     * duplicates in `payees`.\r\n     */\r\n    constructor(address[] memory payees, uint256[] memory shares_) payable {\r\n        require(\r\n            payees.length == shares_.length,\r\n            \"PaymentSplitter: payees and shares length mismatch\"\r\n        );\r\n        require(payees.length > 0, \"PaymentSplitter: no payees\");\r\n\r\n        for (uint256 i = 0; i < payees.length; i++) {\r\n            _addPayee(payees[i], shares_[i]);\r\n        }\r\n    }\r\n\r\n    /**\r\n     * @dev Getter for the total shares held by payees.\r\n     */\r\n    function totalShares() public view returns (uint256) {\r\n        return _totalShares;\r\n    }\r\n\r\n    /**\r\n     * @dev Getter for the amount of shares held by an account.\r\n     */\r\n    function shares(address account) public view returns (uint256) {\r\n        return _shares[account];\r\n    }\r\n\r\n    /**\r\n     * @dev Getter for the address of the payee number `index`.\r\n     */\r\n    function payee(uint256 index) public view returns (address) {\r\n        return _payees[index];\r\n    }\r\n\r\n    /**\r\n     * @dev Add a new payee to the contract.\r\n     * @param account The address of the payee to add.\r\n     * @param shares_ The number of shares owned by the payee.\r\n     */\r\n    function _addPayee(address account, uint256 shares_) internal {\r\n        require(\r\n            account != address(0),\r\n            \"PaymentSplitter: account is the zero address\"\r\n        );\r\n        require(shares_ > 0, \"PaymentSplitter: shares are 0\");\r\n        require(\r\n            _shares[account] == 0,\r\n            \"PaymentSplitter: account already has shares\"\r\n        );\r\n\r\n        _payees.push(account);\r\n        _shares[account] = shares_;\r\n        _totalShares = _totalShares + shares_;\r\n        emit PayeeAdded(account, shares_);\r\n    }\r\n\r\n    /**\r\n     * @dev Remove an existing payee from the contract.\r\n     * @param account The address of the payee to remove.\r\n     * @param index The position of the payee in the _payees array.\r\n     */\r\n    function _removePayee(address account, uint256 index) internal {\r\n        require(\r\n            account != address(0),\r\n            \"PaymentSplitter: account is the zero address\"\r\n        );\r\n        require(_shares[account] > 0, \"PaymentSplitter: shares are 0\");\r\n        require(account == _payees[index], \"PaymentSplitter: account does not match payee array index\");\r\n\r\n        _totalShares = _totalShares - _shares[account];\r\n        _shares[account] = 0;\r\n        _payees[index] = _payees[_payees.length - 1];\r\n        _payees.pop();\r\n        emit PayeeRemoved(account);\r\n    }\r\n}\r\n",
  "sourcePath": "C:\\Users\\mster\\OneDrive\\Documents\\Dapp Projects\\airswap-projects\\AIP-26\\contracts\\TokenPaymentSplitter.sol",
  "compiler": {
    "name": "solc",
    "version": "0.8.5+commit.a4f2e591.Emscripten.clang"
  },
  "schemaVersion": "3.3.4",
  "updatedAt": "2021-07-21T17:37:05.837Z",
  "devdoc": {
    "details": "This contract is a modified version of OpenZeppelin's PaymentSplitter contract. This contract allows to split Token payments among a group of accounts. The sender does not need to be aware that the Token will be split in this way, since it is handled transparently by the contract. The split can be in equal parts or in any other arbitrary proportion. The way this is specified is by assigning each account to a number of shares. The actual transfer is triggered as a separate function.",
    "kind": "dev",
    "methods": {
      "constructor": {
        "details": "Creates an instance of `TokenPaymentSplitter` where each account in `payees` is assigned the number of shares at the matching position in the `shares` array. All addresses in `payees` must be non-zero. Both arrays must have the same non-zero length, and there must be no duplicates in `payees`."
      },
      "payee(uint256)": {
        "details": "Getter for the address of the payee number `index`."
      },
      "shares(address)": {
        "details": "Getter for the amount of shares held by an account."
      },
      "totalShares()": {
        "details": "Getter for the total shares held by payees."
      }
    },
    "title": "TokenPaymentSplitter",
    "version": 1
  },
  "userdoc": {
    "kind": "user",
    "methods": {},
    "version": 1
  }
}